{
  "_format": "hh-sol-artifact-1",
  "contractName": "LPTokenWrapper",
  "sourceName": "contracts/Unipool.sol",
  "abi": [
    {
      "constant": true,
      "inputs": [
        {
          "internalType": "address",
          "name": "account",
          "type": "address"
        }
      ],
      "name": "balanceOf",
      "outputs": [
        {
          "internalType": "uint256",
          "name": "",
          "type": "uint256"
        }
      ],
      "payable": false,
      "stateMutability": "view",
      "type": "function"
    },
    {
      "constant": false,
      "inputs": [
        {
          "internalType": "uint256",
          "name": "amount",
          "type": "uint256"
        }
      ],
      "name": "stake",
      "outputs": [],
      "payable": false,
      "stateMutability": "nonpayable",
      "type": "function"
    },
    {
      "constant": true,
      "inputs": [],
      "name": "totalSupply",
      "outputs": [
        {
          "internalType": "uint256",
          "name": "",
          "type": "uint256"
        }
      ],
      "payable": false,
      "stateMutability": "view",
      "type": "function"
    },
    {
      "constant": true,
      "inputs": [],
      "name": "uni",
      "outputs": [
        {
          "internalType": "contract IERC20",
          "name": "",
          "type": "address"
        }
      ],
      "payable": false,
      "stateMutability": "view",
      "type": "function"
    },
    {
      "constant": false,
      "inputs": [
        {
          "internalType": "uint256",
          "name": "amount",
          "type": "uint256"
        }
      ],
      "name": "withdraw",
      "outputs": [],
      "payable": false,
      "stateMutability": "nonpayable",
      "type": "function"
    }
  ],
  "bytecode": "0x608060405273302eb28eb068733ecc9c1e8f182f74500b887ba96000806101000a81610029610083565b8173ffffffffffffffffffffffffffffffffffffffff021916908373ffffffffffffffffffffffffffffffffffffffff160217906100656100e6565b50505034801561007d5760008061007a61014b565b50505b506101b9565b6303daa959598160e01b8152836004820152602081602483336000905af158600e01573d6000803e3d6000fd5b3d6001141558600a015760016000f35b8051935060005b60408110156100e1576000818301526020810190506100c7565b505050565b6322bd64c0598160e01b8152836004820152846024820152600081604483336000905af158600e01573d6000803e3d6000fd5b3d6001141558600a015760016000f35b60005b60408110156101465760008183015260208101905061012c565b505050565b632a2a7adb598160e01b8152600481016020815285602082015260005b86811015610186578086015181604084010152602081019050610168565b506020828760640184336000905af158600e01573d6000803e3d6000fd5b3d6001141558600a015760016000f35b505050565b610e75806101c86000396000f3fe608060405234801561001957600080610016610b54565b50505b50600436106100605760003560e01c806318160ddd1461006e5780632e1a7d4d1461008c57806370a08231146100c3578063a694fc3a14610124578063edc9af951461015b575b60008061006b610b54565b50505b6100766101a5565b6040518082815260200191505060405180910390f35b6100c1600480360360208110156100ab576000806100a8610b54565b50505b81019080803590602001909291905050506101b6565b005b61010e600480360360208110156100e2576000806100df610b54565b50505b81019080803573ffffffffffffffffffffffffffffffffffffffff1690602001909291905050506102f4565b6040518082815260200191505060405180910390f35b6101596004803603602081101561014357600080610140610b54565b50505b8101908080359060200190929190505050610344565b005b6101636104df565b604051808273ffffffffffffffffffffffffffffffffffffffff1673ffffffffffffffffffffffffffffffffffffffff16815260200191505060405180910390f35b600060016101b1610bc2565b905090565b6101d28160016101c4610bc2565b61050b90919063ffffffff16565b600181906101de610c25565b50505061024281600260005a6101f2610c8a565b73ffffffffffffffffffffffffffffffffffffffff1673ffffffffffffffffffffffffffffffffffffffff168152602001908152602001600020610234610bc2565b61050b90919063ffffffff16565b600260005a61024f610c8a565b73ffffffffffffffffffffffffffffffffffffffff1673ffffffffffffffffffffffffffffffffffffffff1681526020019081526020016000208190610293610c25565b5050506102f15a6102a2610c8a565b82600080906102af610bc2565b906101000a900473ffffffffffffffffffffffffffffffffffffffff1673ffffffffffffffffffffffffffffffffffffffff166105559092919063ffffffff16565b50565b6000600260008373ffffffffffffffffffffffffffffffffffffffff1673ffffffffffffffffffffffffffffffffffffffff16815260200190815260200160002061033d610bc2565b9050919050565b610360816001610352610bc2565b61062690919063ffffffff16565b6001819061036c610c25565b5050506103d081600260005a610380610c8a565b73ffffffffffffffffffffffffffffffffffffffff1673ffffffffffffffffffffffffffffffffffffffff1681526020019081526020016000206103c2610bc2565b61062690919063ffffffff16565b600260005a6103dd610c8a565b73ffffffffffffffffffffffffffffffffffffffff1673ffffffffffffffffffffffffffffffffffffffff1681526020019081526020016000208190610421610c25565b5050506104dc5a610430610c8a565b5a63996d79a5598160e01b8152602081600483336000905af158600e01573d6000803e3d6000fd5b3d6001141558600a015760016000f35b8051925060005b60408110156104895760008183015260208101905061046f565b5050508360008090610499610bc2565b906101000a900473ffffffffffffffffffffffffffffffffffffffff1673ffffffffffffffffffffffffffffffffffffffff166106b7909392919063ffffffff16565b50565b600080906104eb610bc2565b906101000a900473ffffffffffffffffffffffffffffffffffffffff1681565b600061054d83836040518060400160405280601e81526020017f536166654d6174683a207375627472616374696f6e206f766572666c6f7700008152506107bd565b905092915050565b610621838473ffffffffffffffffffffffffffffffffffffffff1663a9059cbb905060e01b8484604051602401808373ffffffffffffffffffffffffffffffffffffffff1673ffffffffffffffffffffffffffffffffffffffff16815260200182815260200192505050604051602081830303815290604052907bffffffffffffffffffffffffffffffffffffffffffffffffffffffff19166020820180517bffffffffffffffffffffffffffffffffffffffffffffffffffffffff8381831617835250505050610886565b505050565b6000808284019050838110156106ad576040517f08c379a000000000000000000000000000000000000000000000000000000000815260040180806020018281038252601b8152602001807f536166654d6174683a206164646974696f6e206f766572666c6f770000000000815250602001915050604051809103906106aa610b54565b50505b8091505092915050565b6107b7848573ffffffffffffffffffffffffffffffffffffffff166323b872dd905060e01b858585604051602401808473ffffffffffffffffffffffffffffffffffffffff1673ffffffffffffffffffffffffffffffffffffffff1681526020018373ffffffffffffffffffffffffffffffffffffffff1673ffffffffffffffffffffffffffffffffffffffff1681526020018281526020019350505050604051602081830303815290604052907bffffffffffffffffffffffffffffffffffffffffffffffffffffffff19166020820180517bffffffffffffffffffffffffffffffffffffffffffffffffffffffff8381831617835250505050610886565b50505050565b6000838311158290610873576040517f08c379a00000000000000000000000000000000000000000000000000000000081526004018080602001828103825283818151815260200191508051906020019080838360005b8381101561082f578082015181840152602081019050610814565b50505050905090810190601f16801561085c5780820380516001836020036101000a031916815260200191505b509250505060405180910390610870610b54565b50505b5060008385039050809150509392505050565b6108a58273ffffffffffffffffffffffffffffffffffffffff16610b02565b610920576040517f08c379a000000000000000000000000000000000000000000000000000000000815260040180806020018281038252601f8152602001807f5361666545524332303a2063616c6c20746f206e6f6e2d636f6e7472616374008152506020019150506040518091039061091d610b54565b50505b600060608373ffffffffffffffffffffffffffffffffffffffff16836040518082805190602001908083835b6020831061096f578051825260208201915060208101905060208303925061094c565b6001836020036101000a0380198251168184511680821785525050505050509050019150506000604051808303816000865a6109a9610ce7565b5050505050509150503d80600081146109de576040519150601f19603f3d011682016040523d82523d6000602084013e6109e3565b606091505b509150915081610a64576040517f08c379a00000000000000000000000000000000000000000000000000000000081526004018080602001828103825260208152602001807f5361666545524332303a206c6f772d6c6576656c2063616c6c206661696c656481525060200191505060405180910390610a61610b54565b50505b600081511115610afc57808060200190516020811015610a8c57600080610a89610b54565b50505b8101908080519060200190929190505050610afb576040517f08c379a000000000000000000000000000000000000000000000000000000000815260040180806020018281038252602a815260200180610e4b602a913960400191505060405180910390610af8610b54565b50505b5b50505050565b60008060007fc5d2460186f7233c927e7db2dcc703c0e500b653ca82273b7bfad8045d85a47060001b905083610b36610de7565b91506000801b8214158015610b4b5750808214155b92505050919050565b632a2a7adb598160e01b8152600481016020815285602082015260005b86811015610b8f578086015181604084010152602081019050610b71565b506020828760640184336000905af158600e01573d6000803e3d6000fd5b3d6001141558600a015760016000f35b505050565b6303daa959598160e01b8152836004820152602081602483336000905af158600e01573d6000803e3d6000fd5b3d6001141558600a015760016000f35b8051935060005b6040811015610c2057600081830152602081019050610c06565b505050565b6322bd64c0598160e01b8152836004820152846024820152600081604483336000905af158600e01573d6000803e3d6000fd5b3d6001141558600a015760016000f35b60005b6040811015610c8557600081830152602081019050610c6b565b505050565b6373509064598160e01b8152602081600483336000905af158600e01573d6000803e3d6000fd5b3d6001141558600a015760016000f35b8051935060005b6040811015610ce257600081830152602081019050610cc8565b505050565b6385979f76598160e01b8152610d26565b600081905081831115610d09578290505b92915050565b600081905081831015610d20578290505b92915050565b836004820152846024820152606060448201528760648201526084810160005b89811015610d61578089015181830152602081019050610d46565b506060828a60a40184336000905af158600e01573d6000803e3d6000fd5b3d6001141558600a015760016000f35b815160408301513d6000853e8c8c82606087013350600060045af15059610db68e3d610d0f565b8d01610dc28187610cf8565b5b82811015610dda5760008152602081019050610dc3565b50839e5050505050505050565b6324749d5c598160e01b8152836004820152602081602483336000905af158600e01573d6000803e3d6000fd5b3d6001141558600a015760016000f35b8051935060005b6040811015610e4557600081830152602081019050610e2b565b50505056fe5361666545524332303a204552433230206f7065726174696f6e20646964206e6f742073756363656564",
  "deployedBytecode": "0x608060405234801561001957600080610016610b54565b50505b50600436106100605760003560e01c806318160ddd1461006e5780632e1a7d4d1461008c57806370a08231146100c3578063a694fc3a14610124578063edc9af951461015b575b60008061006b610b54565b50505b6100766101a5565b6040518082815260200191505060405180910390f35b6100c1600480360360208110156100ab576000806100a8610b54565b50505b81019080803590602001909291905050506101b6565b005b61010e600480360360208110156100e2576000806100df610b54565b50505b81019080803573ffffffffffffffffffffffffffffffffffffffff1690602001909291905050506102f4565b6040518082815260200191505060405180910390f35b6101596004803603602081101561014357600080610140610b54565b50505b8101908080359060200190929190505050610344565b005b6101636104df565b604051808273ffffffffffffffffffffffffffffffffffffffff1673ffffffffffffffffffffffffffffffffffffffff16815260200191505060405180910390f35b600060016101b1610bc2565b905090565b6101d28160016101c4610bc2565b61050b90919063ffffffff16565b600181906101de610c25565b50505061024281600260005a6101f2610c8a565b73ffffffffffffffffffffffffffffffffffffffff1673ffffffffffffffffffffffffffffffffffffffff168152602001908152602001600020610234610bc2565b61050b90919063ffffffff16565b600260005a61024f610c8a565b73ffffffffffffffffffffffffffffffffffffffff1673ffffffffffffffffffffffffffffffffffffffff1681526020019081526020016000208190610293610c25565b5050506102f15a6102a2610c8a565b82600080906102af610bc2565b906101000a900473ffffffffffffffffffffffffffffffffffffffff1673ffffffffffffffffffffffffffffffffffffffff166105559092919063ffffffff16565b50565b6000600260008373ffffffffffffffffffffffffffffffffffffffff1673ffffffffffffffffffffffffffffffffffffffff16815260200190815260200160002061033d610bc2565b9050919050565b610360816001610352610bc2565b61062690919063ffffffff16565b6001819061036c610c25565b5050506103d081600260005a610380610c8a565b73ffffffffffffffffffffffffffffffffffffffff1673ffffffffffffffffffffffffffffffffffffffff1681526020019081526020016000206103c2610bc2565b61062690919063ffffffff16565b600260005a6103dd610c8a565b73ffffffffffffffffffffffffffffffffffffffff1673ffffffffffffffffffffffffffffffffffffffff1681526020019081526020016000208190610421610c25565b5050506104dc5a610430610c8a565b5a63996d79a5598160e01b8152602081600483336000905af158601d01573d60011458600c01573d6000803e3d621234565260ea61109c528051925060005b60408110156104895760008183015260208101905061046f565b5050508360008090610499610bc2565b906101000a900473ffffffffffffffffffffffffffffffffffffffff1673ffffffffffffffffffffffffffffffffffffffff166106b7909392919063ffffffff16565b50565b600080906104eb610bc2565b906101000a900473ffffffffffffffffffffffffffffffffffffffff1681565b600061054d83836040518060400160405280601e81526020017f536166654d6174683a207375627472616374696f6e206f766572666c6f7700008152506107bd565b905092915050565b610621838473ffffffffffffffffffffffffffffffffffffffff1663a9059cbb905060e01b8484604051602401808373ffffffffffffffffffffffffffffffffffffffff1673ffffffffffffffffffffffffffffffffffffffff16815260200182815260200192505050604051602081830303815290604052907bffffffffffffffffffffffffffffffffffffffffffffffffffffffff19166020820180517bffffffffffffffffffffffffffffffffffffffffffffffffffffffff8381831617835250505050610886565b505050565b6000808284019050838110156106ad576040517f08c379a000000000000000000000000000000000000000000000000000000000815260040180806020018281038252601b8152602001807f536166654d6174683a206164646974696f6e206f766572666c6f770000000000815250602001915050604051809103906106aa610b54565b50505b8091505092915050565b6107b7848573ffffffffffffffffffffffffffffffffffffffff166323b872dd905060e01b858585604051602401808473ffffffffffffffffffffffffffffffffffffffff1673ffffffffffffffffffffffffffffffffffffffff1681526020018373ffffffffffffffffffffffffffffffffffffffff1673ffffffffffffffffffffffffffffffffffffffff1681526020018281526020019350505050604051602081830303815290604052907bffffffffffffffffffffffffffffffffffffffffffffffffffffffff19166020820180517bffffffffffffffffffffffffffffffffffffffffffffffffffffffff8381831617835250505050610886565b50505050565b6000838311158290610873576040517f08c379a00000000000000000000000000000000000000000000000000000000081526004018080602001828103825283818151815260200191508051906020019080838360005b8381101561082f578082015181840152602081019050610814565b50505050905090810190601f16801561085c5780820380516001836020036101000a031916815260200191505b509250505060405180910390610870610b54565b50505b5060008385039050809150509392505050565b6108a58273ffffffffffffffffffffffffffffffffffffffff16610b02565b610920576040517f08c379a000000000000000000000000000000000000000000000000000000000815260040180806020018281038252601f8152602001807f5361666545524332303a2063616c6c20746f206e6f6e2d636f6e7472616374008152506020019150506040518091039061091d610b54565b50505b600060608373ffffffffffffffffffffffffffffffffffffffff16836040518082805190602001908083835b6020831061096f578051825260208201915060208101905060208303925061094c565b6001836020036101000a0380198251168184511680821785525050505050509050019150506000604051808303816000865a6109a9610ce7565b5050505050509150503d80600081146109de576040519150601f19603f3d011682016040523d82523d6000602084013e6109e3565b606091505b509150915081610a64576040517f08c379a00000000000000000000000000000000000000000000000000000000081526004018080602001828103825260208152602001807f5361666545524332303a206c6f772d6c6576656c2063616c6c206661696c656481525060200191505060405180910390610a61610b54565b50505b600081511115610afc57808060200190516020811015610a8c57600080610a89610b54565b50505b8101908080519060200190929190505050610afb576040517f08c379a000000000000000000000000000000000000000000000000000000000815260040180806020018281038252602a815260200180610e4b602a913960400191505060405180910390610af8610b54565b50505b5b50505050565b60008060007fc5d2460186f7233c927e7db2dcc703c0e500b653ca82273b7bfad8045d85a47060001b905083610b36610de7565b91506000801b8214158015610b4b5750808214155b92505050919050565b632a2a7adb598160e01b8152600481016020815285602082015260005b86811015610b8f578086015181604084010152602081019050610b71565b506020828760640184336000905af158601d01573d60011458600c01573d6000803e3d621234565260ea61109c52505050565b6303daa959598160e01b8152836004820152602081602483336000905af158601d01573d60011458600c01573d6000803e3d621234565260ea61109c528051935060005b6040811015610c2057600081830152602081019050610c06565b505050565b6322bd64c0598160e01b8152836004820152846024820152600081604483336000905af158601d01573d60011458600c01573d6000803e3d621234565260ea61109c5260005b6040811015610c8557600081830152602081019050610c6b565b505050565b6373509064598160e01b8152602081600483336000905af158601d01573d60011458600c01573d6000803e3d621234565260ea61109c528051935060005b6040811015610ce257600081830152602081019050610cc8565b505050565b6385979f76598160e01b8152610d26565b600081905081831115610d09578290505b92915050565b600081905081831015610d20578290505b92915050565b836004820152846024820152606060448201528760648201526084810160005b89811015610d61578089015181830152602081019050610d46565b506060828a60a40184336000905af158601d01573d60011458600c01573d6000803e3d621234565260ea61109c52815160408301513d6000853e8c8c82606087013350600060045af15059610db68e3d610d0f565b8d01610dc28187610cf8565b5b82811015610dda5760008152602081019050610dc3565b50839e5050505050505050565b6324749d5c598160e01b8152836004820152602081602483336000905af158601d01573d60011458600c01573d6000803e3d621234565260ea61109c528051935060005b6040811015610e4557600081830152602081019050610e2b565b50505056fe5361666545524332303a204552433230206f7065726174696f6e20646964206e6f742073756363656564",
  "linkReferences": {},
  "deployedLinkReferences": {}
}