{
  "_format": "hh-sol-artifact-1",
  "contractName": "Unipool",
  "sourceName": "contracts/Unipool.sol",
  "abi": [
    {
      "anonymous": false,
      "inputs": [
        {
          "indexed": true,
          "internalType": "address",
          "name": "previousOwner",
          "type": "address"
        },
        {
          "indexed": true,
          "internalType": "address",
          "name": "newOwner",
          "type": "address"
        }
      ],
      "name": "OwnershipTransferred",
      "type": "event"
    },
    {
      "anonymous": false,
      "inputs": [
        {
          "indexed": false,
          "internalType": "uint256",
          "name": "reward",
          "type": "uint256"
        }
      ],
      "name": "RewardAdded",
      "type": "event"
    },
    {
      "anonymous": false,
      "inputs": [
        {
          "indexed": true,
          "internalType": "address",
          "name": "user",
          "type": "address"
        },
        {
          "indexed": false,
          "internalType": "uint256",
          "name": "reward",
          "type": "uint256"
        }
      ],
      "name": "RewardPaid",
      "type": "event"
    },
    {
      "anonymous": false,
      "inputs": [
        {
          "indexed": true,
          "internalType": "address",
          "name": "user",
          "type": "address"
        },
        {
          "indexed": false,
          "internalType": "uint256",
          "name": "amount",
          "type": "uint256"
        }
      ],
      "name": "Staked",
      "type": "event"
    },
    {
      "anonymous": false,
      "inputs": [
        {
          "indexed": true,
          "internalType": "address",
          "name": "user",
          "type": "address"
        },
        {
          "indexed": false,
          "internalType": "uint256",
          "name": "amount",
          "type": "uint256"
        }
      ],
      "name": "Withdrawn",
      "type": "event"
    },
    {
      "constant": true,
      "inputs": [],
      "name": "DURATION",
      "outputs": [
        {
          "internalType": "uint256",
          "name": "",
          "type": "uint256"
        }
      ],
      "payable": false,
      "stateMutability": "view",
      "type": "function"
    },
    {
      "constant": true,
      "inputs": [
        {
          "internalType": "address",
          "name": "account",
          "type": "address"
        }
      ],
      "name": "balanceOf",
      "outputs": [
        {
          "internalType": "uint256",
          "name": "",
          "type": "uint256"
        }
      ],
      "payable": false,
      "stateMutability": "view",
      "type": "function"
    },
    {
      "constant": true,
      "inputs": [
        {
          "internalType": "address",
          "name": "account",
          "type": "address"
        }
      ],
      "name": "earned",
      "outputs": [
        {
          "internalType": "uint256",
          "name": "",
          "type": "uint256"
        }
      ],
      "payable": false,
      "stateMutability": "view",
      "type": "function"
    },
    {
      "constant": false,
      "inputs": [],
      "name": "exit",
      "outputs": [],
      "payable": false,
      "stateMutability": "nonpayable",
      "type": "function"
    },
    {
      "constant": false,
      "inputs": [],
      "name": "getReward",
      "outputs": [],
      "payable": false,
      "stateMutability": "nonpayable",
      "type": "function"
    },
    {
      "constant": true,
      "inputs": [],
      "name": "isOwner",
      "outputs": [
        {
          "internalType": "bool",
          "name": "",
          "type": "bool"
        }
      ],
      "payable": false,
      "stateMutability": "view",
      "type": "function"
    },
    {
      "constant": true,
      "inputs": [],
      "name": "lastTimeRewardApplicable",
      "outputs": [
        {
          "internalType": "uint256",
          "name": "",
          "type": "uint256"
        }
      ],
      "payable": false,
      "stateMutability": "view",
      "type": "function"
    },
    {
      "constant": true,
      "inputs": [],
      "name": "lastUpdateTime",
      "outputs": [
        {
          "internalType": "uint256",
          "name": "",
          "type": "uint256"
        }
      ],
      "payable": false,
      "stateMutability": "view",
      "type": "function"
    },
    {
      "constant": false,
      "inputs": [
        {
          "internalType": "uint256",
          "name": "reward",
          "type": "uint256"
        }
      ],
      "name": "notifyRewardAmount",
      "outputs": [],
      "payable": false,
      "stateMutability": "nonpayable",
      "type": "function"
    },
    {
      "constant": true,
      "inputs": [],
      "name": "owner",
      "outputs": [
        {
          "internalType": "address",
          "name": "",
          "type": "address"
        }
      ],
      "payable": false,
      "stateMutability": "view",
      "type": "function"
    },
    {
      "constant": true,
      "inputs": [],
      "name": "periodFinish",
      "outputs": [
        {
          "internalType": "uint256",
          "name": "",
          "type": "uint256"
        }
      ],
      "payable": false,
      "stateMutability": "view",
      "type": "function"
    },
    {
      "constant": false,
      "inputs": [],
      "name": "renounceOwnership",
      "outputs": [],
      "payable": false,
      "stateMutability": "nonpayable",
      "type": "function"
    },
    {
      "constant": true,
      "inputs": [],
      "name": "rewardDistribution",
      "outputs": [
        {
          "internalType": "address",
          "name": "",
          "type": "address"
        }
      ],
      "payable": false,
      "stateMutability": "view",
      "type": "function"
    },
    {
      "constant": true,
      "inputs": [],
      "name": "rewardPerToken",
      "outputs": [
        {
          "internalType": "uint256",
          "name": "",
          "type": "uint256"
        }
      ],
      "payable": false,
      "stateMutability": "view",
      "type": "function"
    },
    {
      "constant": true,
      "inputs": [],
      "name": "rewardPerTokenStored",
      "outputs": [
        {
          "internalType": "uint256",
          "name": "",
          "type": "uint256"
        }
      ],
      "payable": false,
      "stateMutability": "view",
      "type": "function"
    },
    {
      "constant": true,
      "inputs": [],
      "name": "rewardRate",
      "outputs": [
        {
          "internalType": "uint256",
          "name": "",
          "type": "uint256"
        }
      ],
      "payable": false,
      "stateMutability": "view",
      "type": "function"
    },
    {
      "constant": true,
      "inputs": [
        {
          "internalType": "address",
          "name": "",
          "type": "address"
        }
      ],
      "name": "rewards",
      "outputs": [
        {
          "internalType": "uint256",
          "name": "",
          "type": "uint256"
        }
      ],
      "payable": false,
      "stateMutability": "view",
      "type": "function"
    },
    {
      "constant": false,
      "inputs": [
        {
          "internalType": "address",
          "name": "_rewardDistribution",
          "type": "address"
        }
      ],
      "name": "setRewardDistribution",
      "outputs": [],
      "payable": false,
      "stateMutability": "nonpayable",
      "type": "function"
    },
    {
      "constant": true,
      "inputs": [],
      "name": "snx",
      "outputs": [
        {
          "internalType": "contract IERC20",
          "name": "",
          "type": "address"
        }
      ],
      "payable": false,
      "stateMutability": "view",
      "type": "function"
    },
    {
      "constant": false,
      "inputs": [
        {
          "internalType": "uint256",
          "name": "amount",
          "type": "uint256"
        }
      ],
      "name": "stake",
      "outputs": [],
      "payable": false,
      "stateMutability": "nonpayable",
      "type": "function"
    },
    {
      "constant": true,
      "inputs": [],
      "name": "totalSupply",
      "outputs": [
        {
          "internalType": "uint256",
          "name": "",
          "type": "uint256"
        }
      ],
      "payable": false,
      "stateMutability": "view",
      "type": "function"
    },
    {
      "constant": false,
      "inputs": [
        {
          "internalType": "address",
          "name": "newOwner",
          "type": "address"
        }
      ],
      "name": "transferOwnership",
      "outputs": [],
      "payable": false,
      "stateMutability": "nonpayable",
      "type": "function"
    },
    {
      "constant": true,
      "inputs": [],
      "name": "uni",
      "outputs": [
        {
          "internalType": "contract IERC20",
          "name": "",
          "type": "address"
        }
      ],
      "payable": false,
      "stateMutability": "view",
      "type": "function"
    },
    {
      "constant": true,
      "inputs": [
        {
          "internalType": "address",
          "name": "",
          "type": "address"
        }
      ],
      "name": "userRewardPerTokenPaid",
      "outputs": [
        {
          "internalType": "uint256",
          "name": "",
          "type": "uint256"
        }
      ],
      "payable": false,
      "stateMutability": "view",
      "type": "function"
    },
    {
      "constant": false,
      "inputs": [
        {
          "internalType": "uint256",
          "name": "amount",
          "type": "uint256"
        }
      ],
      "name": "withdraw",
      "outputs": [],
      "payable": false,
      "stateMutability": "nonpayable",
      "type": "function"
    }
  ],
  "bytecode": "0x608060405273302eb28eb068733ecc9c1e8f182f74500b887ba96000806101000a816200002b620001f7565b8173ffffffffffffffffffffffffffffffffffffffff021916908373ffffffffffffffffffffffffffffffffffffffff16021790620000696200025c565b50505073b5f9343e36af8cef8d152007acb6c3304c5bc300600660006101000a8162000094620001f7565b8173ffffffffffffffffffffffffffffffffffffffff021916908373ffffffffffffffffffffffffffffffffffffffff16021790620000d26200025c565b50505060006007620000e36200025c565b505060006008620000f36200025c565b505062000105620001e560201b60201c565b600360006101000a8162000118620001f7565b8173ffffffffffffffffffffffffffffffffffffffff021916908373ffffffffffffffffffffffffffffffffffffffff16021790620001566200025c565b505050600360009062000168620001f7565b906101000a900473ffffffffffffffffffffffffffffffffffffffff1673ffffffffffffffffffffffffffffffffffffffff16600073ffffffffffffffffffffffffffffffffffffffff167f8be0079c531659141344cd1fd0a4f28419497f9722a3daafe3b4186f6b6457e060405160405180910390a362000322565b60005a620001f2620002c3565b905090565b6303daa959598160e01b8152836004820152602081602483336000905af158600e01573d6000803e3d6000fd5b3d6001141558600a015760016000f35b8051935060005b604081101562000257576000818301526020810190506200023b565b505050565b6322bd64c0598160e01b8152836004820152846024820152600081604483336000905af158600e01573d6000803e3d6000fd5b3d6001141558600a015760016000f35b60005b6040811015620002be57600081830152602081019050620002a2565b505050565b6373509064598160e01b8152602081600483336000905af158600e01573d6000803e3d6000fd5b3d6001141558600a015760016000f35b8051935060005b60408110156200031d5760008183015260208101905062000301565b505050565b61284480620003326000396000f3fe60806040523480156100195760008061001661245e565b50505b506004361061017b5760003560e01c806380faa57d116100e7578063cd3daf9d116100a0578063e9fad8ee1161007a578063e9fad8ee146105e5578063ebe2b12b146105ef578063edc9af951461060d578063f2fde38b146106575761017b565b8063cd3daf9d1461055f578063df136d651461057d578063e7d279981461059b5761017b565b806380faa57d1461041f5780638b8763471461043d5780638da5cb5b1461049e5780638f32d59b146104e8578063a694fc3a1461050a578063c8f33c91146105415761017b565b80632e1a7d4d116101395780632e1a7d4d1461031e5780633c6b16ab146103555780633d18b9121461038c57806370a0823114610396578063715018a6146103f75780637b0a47ee146104015761017b565b80628cc262146101895780630700037d146101ea5780630d68b7611461024b578063101114cf1461029857806318160ddd146102e25780631be0528914610300575b60008061018661245e565b50505b6101d4600480360360208110156101a8576000806101a561245e565b50505b81019080803573ffffffffffffffffffffffffffffffffffffffff1690602001909291905050506106a4565b6040518082815260200191505060405180910390f35b610235600480360360208110156102095760008061020661245e565b50505b81019080803573ffffffffffffffffffffffffffffffffffffffff169060200190929190505050610799565b6040518082815260200191505060405180910390f35b6102966004803603602081101561026a5760008061026761245e565b50505b81019080803573ffffffffffffffffffffffffffffffffffffffff1690602001909291905050506107b8565b005b6102a0610a02565b604051808273ffffffffffffffffffffffffffffffffffffffff1673ffffffffffffffffffffffffffffffffffffffff16815260200191505060405180910390f35b6102ea610a2f565b6040518082815260200191505060405180910390f35b610308610a40565b6040518082815260200191505060405180910390f35b6103536004803603602081101561033d5760008061033a61245e565b50505b8101908080359060200190929190505050610a47565b005b61038a600480360360208110156103745760008061037161245e565b50505b8101908080359060200190929190505050610c40565b005b610394610f54565b005b6103e1600480360360208110156103b5576000806103b261245e565b50505b81019080803573ffffffffffffffffffffffffffffffffffffffff169060200190929190505050611196565b6040518082815260200191505060405180910390f35b6103ff6111e6565b005b610409611341565b6040518082815260200191505060405180910390f35b61042761134e565b6040518082815260200191505060405180910390f35b6104886004803603602081101561045c5760008061045961245e565b50505b81019080803573ffffffffffffffffffffffffffffffffffffffff169060200190929190505050611370565b6040518082815260200191505060405180910390f35b6104a661138f565b604051808273ffffffffffffffffffffffffffffffffffffffff1673ffffffffffffffffffffffffffffffffffffffff16815260200191505060405180910390f35b6104f06113c0565b604051808215151515815260200191505060405180910390f35b61053f600480360360208110156105295760008061052661245e565b50505b8101908080359060200190929190505050611426565b005b61054961161f565b6040518082815260200191505060405180910390f35b61056761162c565b6040518082815260200191505060405180910390f35b6105856116e0565b6040518082815260200191505060405180910390f35b6105a36116ed565b604051808273ffffffffffffffffffffffffffffffffffffffff1673ffffffffffffffffffffffffffffffffffffffff16815260200191505060405180910390f35b6105ed61171a565b005b6105f761173d565b6040518082815260200191505060405180910390f35b61061561174a565b604051808273ffffffffffffffffffffffffffffffffffffffff1673ffffffffffffffffffffffffffffffffffffffff16815260200191505060405180910390f35b6106a2600480360360208110156106765760008061067361245e565b50505b81019080803573ffffffffffffffffffffffffffffffffffffffff169060200190929190505050611776565b005b6000610792600c60008473ffffffffffffffffffffffffffffffffffffffff1673ffffffffffffffffffffffffffffffffffffffff1681526020019081526020016000206106f06124cc565b610784670de0b6b3a764000061077661075f600b60008973ffffffffffffffffffffffffffffffffffffffff1673ffffffffffffffffffffffffffffffffffffffff1681526020019081526020016000206107496124cc565b61075161162c565b61180590919063ffffffff16565b61076888611196565b61184f90919063ffffffff16565b6118de90919063ffffffff16565b61192890919063ffffffff16565b9050919050565b600c6020528060005260406000206000915090506107b56124cc565b81565b6107c06113c0565b61083b576040517f08c379a00000000000000000000000000000000000000000000000000000000081526004018080602001828103825260208152602001807f4f776e61626c653a2063616c6c6572206973206e6f7420746865206f776e65728152506020019150506040518091039061083861245e565b50505b6000600560008373ffffffffffffffffffffffffffffffffffffffff1673ffffffffffffffffffffffffffffffffffffffff16815260200190815260200160002060006101000a8161088b6124cc565b8160ff021916908315150217906108a061252f565b505061091d576040517f08c379a00000000000000000000000000000000000000000000000000000000081526004018080602001828103825260198152602001807f4164647265737320697320686173206265656e206164646564000000000000008152506020019150506040518091039061091a61245e565b50505b80600460006101000a8161092f6124cc565b8173ffffffffffffffffffffffffffffffffffffffff021916908373ffffffffffffffffffffffffffffffffffffffff1602179061096b61252f565b50505060016005600060046000906109816124cc565b906101000a900473ffffffffffffffffffffffffffffffffffffffff1673ffffffffffffffffffffffffffffffffffffffff1673ffffffffffffffffffffffffffffffffffffffff16815260200190815260200160002060006101000a816109e76124cc565b8160ff021916908315150217906109fc61252f565b50505050565b6004600090610a0f6124cc565b906101000a900473ffffffffffffffffffffffffffffffffffffffff1681565b60006001610a3b6124cc565b905090565b62093a8081565b5a610a50612594565b610a5861162c565b600a8190610a6461252f565b505050610a6f61134e565b60098190610a7b61252f565b505050600073ffffffffffffffffffffffffffffffffffffffff168173ffffffffffffffffffffffffffffffffffffffff1614610b5e57610abb816106a4565b600c60008373ffffffffffffffffffffffffffffffffffffffff1673ffffffffffffffffffffffffffffffffffffffff1681526020019081526020016000208190610b0461252f565b505050600a610b116124cc565b600b60008373ffffffffffffffffffffffffffffffffffffffff1673ffffffffffffffffffffffffffffffffffffffff1681526020019081526020016000208190610b5a61252f565b5050505b60008211610bdd576040517f08c379a00000000000000000000000000000000000000000000000000000000081526004018080602001828103825260118152602001807f43616e6e6f74207769746864726177203000000000000000000000000000000081525060200191505060405180910390610bda61245e565b50505b610be6826119b9565b5a610bef612594565b73ffffffffffffffffffffffffffffffffffffffff167f7084f5476618d8e60b11ef0d7d3f06914655adb8793e28ff7f018d4c76d505d5836040518082815260200191505060405180910390a25050565b6001151560056000610c50611af7565b73ffffffffffffffffffffffffffffffffffffffff1673ffffffffffffffffffffffffffffffffffffffff168152602001908152602001600020600090610c956124cc565b906101000a900460ff16151514610d00576040517f08c379a00000000000000000000000000000000000000000000000000000000081526004018080602001828103825260218152602001806127f96021913960400191505060405180910390610cfd61245e565b50505b6000610d0a61162c565b600a8190610d1661252f565b505050610d2161134e565b60098190610d2d61252f565b505050600073ffffffffffffffffffffffffffffffffffffffff168173ffffffffffffffffffffffffffffffffffffffff1614610e1057610d6d816106a4565b600c60008373ffffffffffffffffffffffffffffffffffffffff1673ffffffffffffffffffffffffffffffffffffffff1681526020019081526020016000208190610db661252f565b505050600a610dc36124cc565b600b60008373ffffffffffffffffffffffffffffffffffffffff1673ffffffffffffffffffffffffffffffffffffffff1681526020019081526020016000208190610e0c61252f565b5050505b6007610e1a6124cc565b5a610e236125f1565b10610e5257610e3e62093a80836118de90919063ffffffff16565b60088190610e4a61252f565b505050610ed4565b6000610e785a610e606125f1565b6007610e6a6124cc565b61180590919063ffffffff16565b90506000610e986008610e896124cc565b8361184f90919063ffffffff16565b9050610ec262093a80610eb4838761192890919063ffffffff16565b6118de90919063ffffffff16565b60088190610ece61252f565b50505050505b5a610edd6125f1565b60098190610ee961252f565b505050610f0a62093a805a610efc6125f1565b61192890919063ffffffff16565b60078190610f1661252f565b5050507fde88a922e0d3b88b24e9623efeb464919c6bf9f66857a65e2bfcf2ce87a9433d826040518082815260200191505060405180910390a15050565b5a610f5d612594565b610f6561162c565b600a8190610f7161252f565b505050610f7c61134e565b60098190610f8861252f565b505050600073ffffffffffffffffffffffffffffffffffffffff168173ffffffffffffffffffffffffffffffffffffffff161461106b57610fc8816106a4565b600c60008373ffffffffffffffffffffffffffffffffffffffff1673ffffffffffffffffffffffffffffffffffffffff168152602001908152602001600020819061101161252f565b505050600a61101e6124cc565b600b60008373ffffffffffffffffffffffffffffffffffffffff1673ffffffffffffffffffffffffffffffffffffffff168152602001908152602001600020819061106761252f565b5050505b600061107e5a611079612594565b6106a4565b90506000811115611192576000600c60005a611098612594565b73ffffffffffffffffffffffffffffffffffffffff1673ffffffffffffffffffffffffffffffffffffffff16815260200190815260200160002081906110dc61252f565b50505061113b5a6110eb612594565b8260066000906110f96124cc565b906101000a900473ffffffffffffffffffffffffffffffffffffffff1673ffffffffffffffffffffffffffffffffffffffff16611b079092919063ffffffff16565b5a611144612594565b73ffffffffffffffffffffffffffffffffffffffff167fe2403640ba68fed3a2f88b7557551d1993f84b99bb10ff833f0cf8db0c5e0486826040518082815260200191505060405180910390a25b5050565b6000600260008373ffffffffffffffffffffffffffffffffffffffff1673ffffffffffffffffffffffffffffffffffffffff1681526020019081526020016000206111df6124cc565b9050919050565b6111ee6113c0565b611269576040517f08c379a00000000000000000000000000000000000000000000000000000000081526004018080602001828103825260208152602001807f4f776e61626c653a2063616c6c6572206973206e6f7420746865206f776e65728152506020019150506040518091039061126661245e565b50505b600073ffffffffffffffffffffffffffffffffffffffff16600360009061128e6124cc565b906101000a900473ffffffffffffffffffffffffffffffffffffffff1673ffffffffffffffffffffffffffffffffffffffff167f8be0079c531659141344cd1fd0a4f28419497f9722a3daafe3b4186f6b6457e060405160405180910390a36000600360006101000a816113006124cc565b8173ffffffffffffffffffffffffffffffffffffffff021916908373ffffffffffffffffffffffffffffffffffffffff1602179061133c61252f565b505050565b600861134b6124cc565b81565b600061136b5a61135c6125f1565b60076113666124cc565b611bd8565b905090565b600b60205280600052604060002060009150905061138c6124cc565b81565b6000600360009061139e6124cc565b906101000a900473ffffffffffffffffffffffffffffffffffffffff16905090565b600060036000906113cf6124cc565b906101000a900473ffffffffffffffffffffffffffffffffffffffff1673ffffffffffffffffffffffffffffffffffffffff1661140a611af7565b73ffffffffffffffffffffffffffffffffffffffff1614905090565b5a61142f612594565b61143761162c565b600a819061144361252f565b50505061144e61134e565b6009819061145a61252f565b505050600073ffffffffffffffffffffffffffffffffffffffff168173ffffffffffffffffffffffffffffffffffffffff161461153d5761149a816106a4565b600c60008373ffffffffffffffffffffffffffffffffffffffff1673ffffffffffffffffffffffffffffffffffffffff16815260200190815260200160002081906114e361252f565b505050600a6114f06124cc565b600b60008373ffffffffffffffffffffffffffffffffffffffff1673ffffffffffffffffffffffffffffffffffffffff168152602001908152602001600020819061153961252f565b5050505b600082116115bc576040517f08c379a000000000000000000000000000000000000000000000000000000000815260040180806020018281038252600e8152602001807f43616e6e6f74207374616b652030000000000000000000000000000000000000815250602001915050604051809103906115b961245e565b50505b6115c582611bf1565b5a6115ce612594565b73ffffffffffffffffffffffffffffffffffffffff167f9e71bc8eea02a63969f509818f2dafb9254532904319f9dbda79b67bd34a5f3d836040518082815260200191505060405180910390a25050565b60096116296124cc565b81565b600080611637610a2f565b141561164e57600a6116476124cc565b90506116dd565b6116da6116c261165c610a2f565b6116b4670de0b6b3a76400006116a660086116756124cc565b61169860096116826124cc565b61168a61134e565b61180590919063ffffffff16565b61184f90919063ffffffff16565b61184f90919063ffffffff16565b6118de90919063ffffffff16565b600a6116cc6124cc565b61192890919063ffffffff16565b90505b90565b600a6116ea6124cc565b81565b60066000906116fa6124cc565b906101000a900473ffffffffffffffffffffffffffffffffffffffff1681565b61173361172e5a611729612594565b611196565b610a47565b61173b610f54565b565b60076117476124cc565b81565b600080906117566124cc565b906101000a900473ffffffffffffffffffffffffffffffffffffffff1681565b61177e6113c0565b6117f9576040517f08c379a00000000000000000000000000000000000000000000000000000000081526004018080602001828103825260208152602001807f4f776e61626c653a2063616c6c6572206973206e6f7420746865206f776e6572815250602001915050604051809103906117f661245e565b50505b61180281611d8c565b50565b600061184783836040518060400160405280601e81526020017f536166654d6174683a207375627472616374696f6e206f766572666c6f770000815250611ef2565b905092915050565b60008083141561186257600090506118d8565b600082840290508284828161187357fe5b04146118d3576040517f08c379a00000000000000000000000000000000000000000000000000000000081526004018080602001828103825260218152602001806127d860219139604001915050604051809103906118d061245e565b50505b809150505b92915050565b600061192083836040518060400160405280601a81526020017f536166654d6174683a206469766973696f6e206279207a65726f000000000000815250611fbb565b905092915050565b6000808284019050838110156119af576040517f08c379a000000000000000000000000000000000000000000000000000000000815260040180806020018281038252601b8152602001807f536166654d6174683a206164646974696f6e206f766572666c6f770000000000815250602001915050604051809103906119ac61245e565b50505b8091505092915050565b6119d58160016119c76124cc565b61180590919063ffffffff16565b600181906119e161252f565b505050611a4581600260005a6119f5612594565b73ffffffffffffffffffffffffffffffffffffffff1673ffffffffffffffffffffffffffffffffffffffff168152602001908152602001600020611a376124cc565b61180590919063ffffffff16565b600260005a611a52612594565b73ffffffffffffffffffffffffffffffffffffffff1673ffffffffffffffffffffffffffffffffffffffff1681526020019081526020016000208190611a9661252f565b505050611af45a611aa5612594565b8260008090611ab26124cc565b906101000a900473ffffffffffffffffffffffffffffffffffffffff1673ffffffffffffffffffffffffffffffffffffffff16611b079092919063ffffffff16565b50565b60005a611b02612594565b905090565b611bd3838473ffffffffffffffffffffffffffffffffffffffff1663a9059cbb905060e01b8484604051602401808373ffffffffffffffffffffffffffffffffffffffff1673ffffffffffffffffffffffffffffffffffffffff16815260200182815260200192505050604051602081830303815290604052907bffffffffffffffffffffffffffffffffffffffffffffffffffffffff19166020820180517bffffffffffffffffffffffffffffffffffffffffffffffffffffffff838183161783525050505061208a565b505050565b6000818310611be75781611be9565b825b905092915050565b611c0d816001611bff6124cc565b61192890919063ffffffff16565b60018190611c1961252f565b505050611c7d81600260005a611c2d612594565b73ffffffffffffffffffffffffffffffffffffffff1673ffffffffffffffffffffffffffffffffffffffff168152602001908152602001600020611c6f6124cc565b61192890919063ffffffff16565b600260005a611c8a612594565b73ffffffffffffffffffffffffffffffffffffffff1673ffffffffffffffffffffffffffffffffffffffff1681526020019081526020016000208190611cce61252f565b505050611d895a611cdd612594565b5a63996d79a5598160e01b8152602081600483336000905af158600e01573d6000803e3d6000fd5b3d6001141558600a015760016000f35b8051925060005b6040811015611d3657600081830152602081019050611d1c565b5050508360008090611d466124cc565b906101000a900473ffffffffffffffffffffffffffffffffffffffff1673ffffffffffffffffffffffffffffffffffffffff16612306909392919063ffffffff16565b50565b600073ffffffffffffffffffffffffffffffffffffffff168173ffffffffffffffffffffffffffffffffffffffff161415611e1b576040517f08c379a00000000000000000000000000000000000000000000000000000000081526004018080602001828103825260268152602001806127b26026913960400191505060405180910390611e1861245e565b50505b8073ffffffffffffffffffffffffffffffffffffffff166003600090611e3f6124cc565b906101000a900473ffffffffffffffffffffffffffffffffffffffff1673ffffffffffffffffffffffffffffffffffffffff167f8be0079c531659141344cd1fd0a4f28419497f9722a3daafe3b4186f6b6457e060405160405180910390a380600360006101000a81611eb06124cc565b8173ffffffffffffffffffffffffffffffffffffffff021916908373ffffffffffffffffffffffffffffffffffffffff16021790611eec61252f565b50505050565b6000838311158290611fa8576040517f08c379a00000000000000000000000000000000000000000000000000000000081526004018080602001828103825283818151815260200191508051906020019080838360005b83811015611f64578082015181840152602081019050611f49565b50505050905090810190601f168015611f915780820380516001836020036101000a031916815260200191505b509250505060405180910390611fa561245e565b50505b5060008385039050809150509392505050565b60008083118290612070576040517f08c379a00000000000000000000000000000000000000000000000000000000081526004018080602001828103825283818151815260200191508051906020019080838360005b8381101561202c578082015181840152602081019050612011565b50505050905090810190601f1680156120595780820380516001836020036101000a031916815260200191505b50925050506040518091039061206d61245e565b50505b50600083858161207c57fe5b049050809150509392505050565b6120a98273ffffffffffffffffffffffffffffffffffffffff1661240c565b612124576040517f08c379a000000000000000000000000000000000000000000000000000000000815260040180806020018281038252601f8152602001807f5361666545524332303a2063616c6c20746f206e6f6e2d636f6e7472616374008152506020019150506040518091039061212161245e565b50505b600060608373ffffffffffffffffffffffffffffffffffffffff16836040518082805190602001908083835b602083106121735780518252602082019150602081019050602083039250612150565b6001836020036101000a0380198251168184511680821785525050505050509050019150506000604051808303816000865a6121ad61264e565b5050505050509150503d80600081146121e2576040519150601f19603f3d011682016040523d82523d6000602084013e6121e7565b606091505b509150915081612268576040517f08c379a00000000000000000000000000000000000000000000000000000000081526004018080602001828103825260208152602001807f5361666545524332303a206c6f772d6c6576656c2063616c6c206661696c65648152506020019150506040518091039061226561245e565b50505b600081511115612300578080602001905160208110156122905760008061228d61245e565b50505b81019080805190602001909291905050506122ff576040517f08c379a000000000000000000000000000000000000000000000000000000000815260040180806020018281038252602a81526020018061281a602a9139604001915050604051809103906122fc61245e565b50505b5b50505050565b612406848573ffffffffffffffffffffffffffffffffffffffff166323b872dd905060e01b858585604051602401808473ffffffffffffffffffffffffffffffffffffffff1673ffffffffffffffffffffffffffffffffffffffff1681526020018373ffffffffffffffffffffffffffffffffffffffff1673ffffffffffffffffffffffffffffffffffffffff1681526020018281526020019350505050604051602081830303815290604052907bffffffffffffffffffffffffffffffffffffffffffffffffffffffff19166020820180517bffffffffffffffffffffffffffffffffffffffffffffffffffffffff838183161783525050505061208a565b50505050565b60008060007fc5d2460186f7233c927e7db2dcc703c0e500b653ca82273b7bfad8045d85a47060001b90508361244061274e565b91506000801b82141580156124555750808214155b92505050919050565b632a2a7adb598160e01b8152600481016020815285602082015260005b8681101561249957808601518160408401015260208101905061247b565b506020828760640184336000905af158600e01573d6000803e3d6000fd5b3d6001141558600a015760016000f35b505050565b6303daa959598160e01b8152836004820152602081602483336000905af158600e01573d6000803e3d6000fd5b3d6001141558600a015760016000f35b8051935060005b604081101561252a57600081830152602081019050612510565b505050565b6322bd64c0598160e01b8152836004820152846024820152600081604483336000905af158600e01573d6000803e3d6000fd5b3d6001141558600a015760016000f35b60005b604081101561258f57600081830152602081019050612575565b505050565b6373509064598160e01b8152602081600483336000905af158600e01573d6000803e3d6000fd5b3d6001141558600a015760016000f35b8051935060005b60408110156125ec576000818301526020810190506125d2565b505050565b63bdbf8c36598160e01b8152602081600483336000905af158600e01573d6000803e3d6000fd5b3d6001141558600a015760016000f35b8051935060005b60408110156126495760008183015260208101905061262f565b505050565b6385979f76598160e01b815261268d565b600081905081831115612670578290505b92915050565b600081905081831015612687578290505b92915050565b836004820152846024820152606060448201528760648201526084810160005b898110156126c85780890151818301526020810190506126ad565b506060828a60a40184336000905af158600e01573d6000803e3d6000fd5b3d6001141558600a015760016000f35b815160408301513d6000853e8c8c82606087013350600060045af1505961271d8e3d612676565b8d01612729818761265f565b5b82811015612741576000815260208101905061272a565b50839e5050505050505050565b6324749d5c598160e01b8152836004820152602081602483336000905af158600e01573d6000803e3d6000fd5b3d6001141558600a015760016000f35b8051935060005b60408110156127ac57600081830152602081019050612792565b50505056fe4f776e61626c653a206e6577206f776e657220697320746865207a65726f2061646472657373536166654d6174683a206d756c7469706c69636174696f6e206f766572666c6f7743616c6c6572206973206e6f742072657761726420646973747269627574696f6e5361666545524332303a204552433230206f7065726174696f6e20646964206e6f742073756363656564",
  "deployedBytecode": "0x60806040523480156100195760008061001661245e565b50505b506004361061017b5760003560e01c806380faa57d116100e7578063cd3daf9d116100a0578063e9fad8ee1161007a578063e9fad8ee146105e5578063ebe2b12b146105ef578063edc9af951461060d578063f2fde38b146106575761017b565b8063cd3daf9d1461055f578063df136d651461057d578063e7d279981461059b5761017b565b806380faa57d1461041f5780638b8763471461043d5780638da5cb5b1461049e5780638f32d59b146104e8578063a694fc3a1461050a578063c8f33c91146105415761017b565b80632e1a7d4d116101395780632e1a7d4d1461031e5780633c6b16ab146103555780633d18b9121461038c57806370a0823114610396578063715018a6146103f75780637b0a47ee146104015761017b565b80628cc262146101895780630700037d146101ea5780630d68b7611461024b578063101114cf1461029857806318160ddd146102e25780631be0528914610300575b60008061018661245e565b50505b6101d4600480360360208110156101a8576000806101a561245e565b50505b81019080803573ffffffffffffffffffffffffffffffffffffffff1690602001909291905050506106a4565b6040518082815260200191505060405180910390f35b610235600480360360208110156102095760008061020661245e565b50505b81019080803573ffffffffffffffffffffffffffffffffffffffff169060200190929190505050610799565b6040518082815260200191505060405180910390f35b6102966004803603602081101561026a5760008061026761245e565b50505b81019080803573ffffffffffffffffffffffffffffffffffffffff1690602001909291905050506107b8565b005b6102a0610a02565b604051808273ffffffffffffffffffffffffffffffffffffffff1673ffffffffffffffffffffffffffffffffffffffff16815260200191505060405180910390f35b6102ea610a2f565b6040518082815260200191505060405180910390f35b610308610a40565b6040518082815260200191505060405180910390f35b6103536004803603602081101561033d5760008061033a61245e565b50505b8101908080359060200190929190505050610a47565b005b61038a600480360360208110156103745760008061037161245e565b50505b8101908080359060200190929190505050610c40565b005b610394610f54565b005b6103e1600480360360208110156103b5576000806103b261245e565b50505b81019080803573ffffffffffffffffffffffffffffffffffffffff169060200190929190505050611196565b6040518082815260200191505060405180910390f35b6103ff6111e6565b005b610409611341565b6040518082815260200191505060405180910390f35b61042761134e565b6040518082815260200191505060405180910390f35b6104886004803603602081101561045c5760008061045961245e565b50505b81019080803573ffffffffffffffffffffffffffffffffffffffff169060200190929190505050611370565b6040518082815260200191505060405180910390f35b6104a661138f565b604051808273ffffffffffffffffffffffffffffffffffffffff1673ffffffffffffffffffffffffffffffffffffffff16815260200191505060405180910390f35b6104f06113c0565b604051808215151515815260200191505060405180910390f35b61053f600480360360208110156105295760008061052661245e565b50505b8101908080359060200190929190505050611426565b005b61054961161f565b6040518082815260200191505060405180910390f35b61056761162c565b6040518082815260200191505060405180910390f35b6105856116e0565b6040518082815260200191505060405180910390f35b6105a36116ed565b604051808273ffffffffffffffffffffffffffffffffffffffff1673ffffffffffffffffffffffffffffffffffffffff16815260200191505060405180910390f35b6105ed61171a565b005b6105f761173d565b6040518082815260200191505060405180910390f35b61061561174a565b604051808273ffffffffffffffffffffffffffffffffffffffff1673ffffffffffffffffffffffffffffffffffffffff16815260200191505060405180910390f35b6106a2600480360360208110156106765760008061067361245e565b50505b81019080803573ffffffffffffffffffffffffffffffffffffffff169060200190929190505050611776565b005b6000610792600c60008473ffffffffffffffffffffffffffffffffffffffff1673ffffffffffffffffffffffffffffffffffffffff1681526020019081526020016000206106f06124cc565b610784670de0b6b3a764000061077661075f600b60008973ffffffffffffffffffffffffffffffffffffffff1673ffffffffffffffffffffffffffffffffffffffff1681526020019081526020016000206107496124cc565b61075161162c565b61180590919063ffffffff16565b61076888611196565b61184f90919063ffffffff16565b6118de90919063ffffffff16565b61192890919063ffffffff16565b9050919050565b600c6020528060005260406000206000915090506107b56124cc565b81565b6107c06113c0565b61083b576040517f08c379a00000000000000000000000000000000000000000000000000000000081526004018080602001828103825260208152602001807f4f776e61626c653a2063616c6c6572206973206e6f7420746865206f776e65728152506020019150506040518091039061083861245e565b50505b6000600560008373ffffffffffffffffffffffffffffffffffffffff1673ffffffffffffffffffffffffffffffffffffffff16815260200190815260200160002060006101000a8161088b6124cc565b8160ff021916908315150217906108a061252f565b505061091d576040517f08c379a00000000000000000000000000000000000000000000000000000000081526004018080602001828103825260198152602001807f4164647265737320697320686173206265656e206164646564000000000000008152506020019150506040518091039061091a61245e565b50505b80600460006101000a8161092f6124cc565b8173ffffffffffffffffffffffffffffffffffffffff021916908373ffffffffffffffffffffffffffffffffffffffff1602179061096b61252f565b50505060016005600060046000906109816124cc565b906101000a900473ffffffffffffffffffffffffffffffffffffffff1673ffffffffffffffffffffffffffffffffffffffff1673ffffffffffffffffffffffffffffffffffffffff16815260200190815260200160002060006101000a816109e76124cc565b8160ff021916908315150217906109fc61252f565b50505050565b6004600090610a0f6124cc565b906101000a900473ffffffffffffffffffffffffffffffffffffffff1681565b60006001610a3b6124cc565b905090565b62093a8081565b5a610a50612594565b610a5861162c565b600a8190610a6461252f565b505050610a6f61134e565b60098190610a7b61252f565b505050600073ffffffffffffffffffffffffffffffffffffffff168173ffffffffffffffffffffffffffffffffffffffff1614610b5e57610abb816106a4565b600c60008373ffffffffffffffffffffffffffffffffffffffff1673ffffffffffffffffffffffffffffffffffffffff1681526020019081526020016000208190610b0461252f565b505050600a610b116124cc565b600b60008373ffffffffffffffffffffffffffffffffffffffff1673ffffffffffffffffffffffffffffffffffffffff1681526020019081526020016000208190610b5a61252f565b5050505b60008211610bdd576040517f08c379a00000000000000000000000000000000000000000000000000000000081526004018080602001828103825260118152602001807f43616e6e6f74207769746864726177203000000000000000000000000000000081525060200191505060405180910390610bda61245e565b50505b610be6826119b9565b5a610bef612594565b73ffffffffffffffffffffffffffffffffffffffff167f7084f5476618d8e60b11ef0d7d3f06914655adb8793e28ff7f018d4c76d505d5836040518082815260200191505060405180910390a25050565b6001151560056000610c50611af7565b73ffffffffffffffffffffffffffffffffffffffff1673ffffffffffffffffffffffffffffffffffffffff168152602001908152602001600020600090610c956124cc565b906101000a900460ff16151514610d00576040517f08c379a00000000000000000000000000000000000000000000000000000000081526004018080602001828103825260218152602001806127f96021913960400191505060405180910390610cfd61245e565b50505b6000610d0a61162c565b600a8190610d1661252f565b505050610d2161134e565b60098190610d2d61252f565b505050600073ffffffffffffffffffffffffffffffffffffffff168173ffffffffffffffffffffffffffffffffffffffff1614610e1057610d6d816106a4565b600c60008373ffffffffffffffffffffffffffffffffffffffff1673ffffffffffffffffffffffffffffffffffffffff1681526020019081526020016000208190610db661252f565b505050600a610dc36124cc565b600b60008373ffffffffffffffffffffffffffffffffffffffff1673ffffffffffffffffffffffffffffffffffffffff1681526020019081526020016000208190610e0c61252f565b5050505b6007610e1a6124cc565b5a610e236125f1565b10610e5257610e3e62093a80836118de90919063ffffffff16565b60088190610e4a61252f565b505050610ed4565b6000610e785a610e606125f1565b6007610e6a6124cc565b61180590919063ffffffff16565b90506000610e986008610e896124cc565b8361184f90919063ffffffff16565b9050610ec262093a80610eb4838761192890919063ffffffff16565b6118de90919063ffffffff16565b60088190610ece61252f565b50505050505b5a610edd6125f1565b60098190610ee961252f565b505050610f0a62093a805a610efc6125f1565b61192890919063ffffffff16565b60078190610f1661252f565b5050507fde88a922e0d3b88b24e9623efeb464919c6bf9f66857a65e2bfcf2ce87a9433d826040518082815260200191505060405180910390a15050565b5a610f5d612594565b610f6561162c565b600a8190610f7161252f565b505050610f7c61134e565b60098190610f8861252f565b505050600073ffffffffffffffffffffffffffffffffffffffff168173ffffffffffffffffffffffffffffffffffffffff161461106b57610fc8816106a4565b600c60008373ffffffffffffffffffffffffffffffffffffffff1673ffffffffffffffffffffffffffffffffffffffff168152602001908152602001600020819061101161252f565b505050600a61101e6124cc565b600b60008373ffffffffffffffffffffffffffffffffffffffff1673ffffffffffffffffffffffffffffffffffffffff168152602001908152602001600020819061106761252f565b5050505b600061107e5a611079612594565b6106a4565b90506000811115611192576000600c60005a611098612594565b73ffffffffffffffffffffffffffffffffffffffff1673ffffffffffffffffffffffffffffffffffffffff16815260200190815260200160002081906110dc61252f565b50505061113b5a6110eb612594565b8260066000906110f96124cc565b906101000a900473ffffffffffffffffffffffffffffffffffffffff1673ffffffffffffffffffffffffffffffffffffffff16611b079092919063ffffffff16565b5a611144612594565b73ffffffffffffffffffffffffffffffffffffffff167fe2403640ba68fed3a2f88b7557551d1993f84b99bb10ff833f0cf8db0c5e0486826040518082815260200191505060405180910390a25b5050565b6000600260008373ffffffffffffffffffffffffffffffffffffffff1673ffffffffffffffffffffffffffffffffffffffff1681526020019081526020016000206111df6124cc565b9050919050565b6111ee6113c0565b611269576040517f08c379a00000000000000000000000000000000000000000000000000000000081526004018080602001828103825260208152602001807f4f776e61626c653a2063616c6c6572206973206e6f7420746865206f776e65728152506020019150506040518091039061126661245e565b50505b600073ffffffffffffffffffffffffffffffffffffffff16600360009061128e6124cc565b906101000a900473ffffffffffffffffffffffffffffffffffffffff1673ffffffffffffffffffffffffffffffffffffffff167f8be0079c531659141344cd1fd0a4f28419497f9722a3daafe3b4186f6b6457e060405160405180910390a36000600360006101000a816113006124cc565b8173ffffffffffffffffffffffffffffffffffffffff021916908373ffffffffffffffffffffffffffffffffffffffff1602179061133c61252f565b505050565b600861134b6124cc565b81565b600061136b5a61135c6125f1565b60076113666124cc565b611bd8565b905090565b600b60205280600052604060002060009150905061138c6124cc565b81565b6000600360009061139e6124cc565b906101000a900473ffffffffffffffffffffffffffffffffffffffff16905090565b600060036000906113cf6124cc565b906101000a900473ffffffffffffffffffffffffffffffffffffffff1673ffffffffffffffffffffffffffffffffffffffff1661140a611af7565b73ffffffffffffffffffffffffffffffffffffffff1614905090565b5a61142f612594565b61143761162c565b600a819061144361252f565b50505061144e61134e565b6009819061145a61252f565b505050600073ffffffffffffffffffffffffffffffffffffffff168173ffffffffffffffffffffffffffffffffffffffff161461153d5761149a816106a4565b600c60008373ffffffffffffffffffffffffffffffffffffffff1673ffffffffffffffffffffffffffffffffffffffff16815260200190815260200160002081906114e361252f565b505050600a6114f06124cc565b600b60008373ffffffffffffffffffffffffffffffffffffffff1673ffffffffffffffffffffffffffffffffffffffff168152602001908152602001600020819061153961252f565b5050505b600082116115bc576040517f08c379a000000000000000000000000000000000000000000000000000000000815260040180806020018281038252600e8152602001807f43616e6e6f74207374616b652030000000000000000000000000000000000000815250602001915050604051809103906115b961245e565b50505b6115c582611bf1565b5a6115ce612594565b73ffffffffffffffffffffffffffffffffffffffff167f9e71bc8eea02a63969f509818f2dafb9254532904319f9dbda79b67bd34a5f3d836040518082815260200191505060405180910390a25050565b60096116296124cc565b81565b600080611637610a2f565b141561164e57600a6116476124cc565b90506116dd565b6116da6116c261165c610a2f565b6116b4670de0b6b3a76400006116a660086116756124cc565b61169860096116826124cc565b61168a61134e565b61180590919063ffffffff16565b61184f90919063ffffffff16565b61184f90919063ffffffff16565b6118de90919063ffffffff16565b600a6116cc6124cc565b61192890919063ffffffff16565b90505b90565b600a6116ea6124cc565b81565b60066000906116fa6124cc565b906101000a900473ffffffffffffffffffffffffffffffffffffffff1681565b61173361172e5a611729612594565b611196565b610a47565b61173b610f54565b565b60076117476124cc565b81565b600080906117566124cc565b906101000a900473ffffffffffffffffffffffffffffffffffffffff1681565b61177e6113c0565b6117f9576040517f08c379a00000000000000000000000000000000000000000000000000000000081526004018080602001828103825260208152602001807f4f776e61626c653a2063616c6c6572206973206e6f7420746865206f776e6572815250602001915050604051809103906117f661245e565b50505b61180281611d8c565b50565b600061184783836040518060400160405280601e81526020017f536166654d6174683a207375627472616374696f6e206f766572666c6f770000815250611ef2565b905092915050565b60008083141561186257600090506118d8565b600082840290508284828161187357fe5b04146118d3576040517f08c379a00000000000000000000000000000000000000000000000000000000081526004018080602001828103825260218152602001806127d860219139604001915050604051809103906118d061245e565b50505b809150505b92915050565b600061192083836040518060400160405280601a81526020017f536166654d6174683a206469766973696f6e206279207a65726f000000000000815250611fbb565b905092915050565b6000808284019050838110156119af576040517f08c379a000000000000000000000000000000000000000000000000000000000815260040180806020018281038252601b8152602001807f536166654d6174683a206164646974696f6e206f766572666c6f770000000000815250602001915050604051809103906119ac61245e565b50505b8091505092915050565b6119d58160016119c76124cc565b61180590919063ffffffff16565b600181906119e161252f565b505050611a4581600260005a6119f5612594565b73ffffffffffffffffffffffffffffffffffffffff1673ffffffffffffffffffffffffffffffffffffffff168152602001908152602001600020611a376124cc565b61180590919063ffffffff16565b600260005a611a52612594565b73ffffffffffffffffffffffffffffffffffffffff1673ffffffffffffffffffffffffffffffffffffffff1681526020019081526020016000208190611a9661252f565b505050611af45a611aa5612594565b8260008090611ab26124cc565b906101000a900473ffffffffffffffffffffffffffffffffffffffff1673ffffffffffffffffffffffffffffffffffffffff16611b079092919063ffffffff16565b50565b60005a611b02612594565b905090565b611bd3838473ffffffffffffffffffffffffffffffffffffffff1663a9059cbb905060e01b8484604051602401808373ffffffffffffffffffffffffffffffffffffffff1673ffffffffffffffffffffffffffffffffffffffff16815260200182815260200192505050604051602081830303815290604052907bffffffffffffffffffffffffffffffffffffffffffffffffffffffff19166020820180517bffffffffffffffffffffffffffffffffffffffffffffffffffffffff838183161783525050505061208a565b505050565b6000818310611be75781611be9565b825b905092915050565b611c0d816001611bff6124cc565b61192890919063ffffffff16565b60018190611c1961252f565b505050611c7d81600260005a611c2d612594565b73ffffffffffffffffffffffffffffffffffffffff1673ffffffffffffffffffffffffffffffffffffffff168152602001908152602001600020611c6f6124cc565b61192890919063ffffffff16565b600260005a611c8a612594565b73ffffffffffffffffffffffffffffffffffffffff1673ffffffffffffffffffffffffffffffffffffffff1681526020019081526020016000208190611cce61252f565b505050611d895a611cdd612594565b5a63996d79a5598160e01b8152602081600483336000905af158601d01573d60011458600c01573d6000803e3d621234565260ea61109c528051925060005b6040811015611d3657600081830152602081019050611d1c565b5050508360008090611d466124cc565b906101000a900473ffffffffffffffffffffffffffffffffffffffff1673ffffffffffffffffffffffffffffffffffffffff16612306909392919063ffffffff16565b50565b600073ffffffffffffffffffffffffffffffffffffffff168173ffffffffffffffffffffffffffffffffffffffff161415611e1b576040517f08c379a00000000000000000000000000000000000000000000000000000000081526004018080602001828103825260268152602001806127b26026913960400191505060405180910390611e1861245e565b50505b8073ffffffffffffffffffffffffffffffffffffffff166003600090611e3f6124cc565b906101000a900473ffffffffffffffffffffffffffffffffffffffff1673ffffffffffffffffffffffffffffffffffffffff167f8be0079c531659141344cd1fd0a4f28419497f9722a3daafe3b4186f6b6457e060405160405180910390a380600360006101000a81611eb06124cc565b8173ffffffffffffffffffffffffffffffffffffffff021916908373ffffffffffffffffffffffffffffffffffffffff16021790611eec61252f565b50505050565b6000838311158290611fa8576040517f08c379a00000000000000000000000000000000000000000000000000000000081526004018080602001828103825283818151815260200191508051906020019080838360005b83811015611f64578082015181840152602081019050611f49565b50505050905090810190601f168015611f915780820380516001836020036101000a031916815260200191505b509250505060405180910390611fa561245e565b50505b5060008385039050809150509392505050565b60008083118290612070576040517f08c379a00000000000000000000000000000000000000000000000000000000081526004018080602001828103825283818151815260200191508051906020019080838360005b8381101561202c578082015181840152602081019050612011565b50505050905090810190601f1680156120595780820380516001836020036101000a031916815260200191505b50925050506040518091039061206d61245e565b50505b50600083858161207c57fe5b049050809150509392505050565b6120a98273ffffffffffffffffffffffffffffffffffffffff1661240c565b612124576040517f08c379a000000000000000000000000000000000000000000000000000000000815260040180806020018281038252601f8152602001807f5361666545524332303a2063616c6c20746f206e6f6e2d636f6e7472616374008152506020019150506040518091039061212161245e565b50505b600060608373ffffffffffffffffffffffffffffffffffffffff16836040518082805190602001908083835b602083106121735780518252602082019150602081019050602083039250612150565b6001836020036101000a0380198251168184511680821785525050505050509050019150506000604051808303816000865a6121ad61264e565b5050505050509150503d80600081146121e2576040519150601f19603f3d011682016040523d82523d6000602084013e6121e7565b606091505b509150915081612268576040517f08c379a00000000000000000000000000000000000000000000000000000000081526004018080602001828103825260208152602001807f5361666545524332303a206c6f772d6c6576656c2063616c6c206661696c65648152506020019150506040518091039061226561245e565b50505b600081511115612300578080602001905160208110156122905760008061228d61245e565b50505b81019080805190602001909291905050506122ff576040517f08c379a000000000000000000000000000000000000000000000000000000000815260040180806020018281038252602a81526020018061281a602a9139604001915050604051809103906122fc61245e565b50505b5b50505050565b612406848573ffffffffffffffffffffffffffffffffffffffff166323b872dd905060e01b858585604051602401808473ffffffffffffffffffffffffffffffffffffffff1673ffffffffffffffffffffffffffffffffffffffff1681526020018373ffffffffffffffffffffffffffffffffffffffff1673ffffffffffffffffffffffffffffffffffffffff1681526020018281526020019350505050604051602081830303815290604052907bffffffffffffffffffffffffffffffffffffffffffffffffffffffff19166020820180517bffffffffffffffffffffffffffffffffffffffffffffffffffffffff838183161783525050505061208a565b50505050565b60008060007fc5d2460186f7233c927e7db2dcc703c0e500b653ca82273b7bfad8045d85a47060001b90508361244061274e565b91506000801b82141580156124555750808214155b92505050919050565b632a2a7adb598160e01b8152600481016020815285602082015260005b8681101561249957808601518160408401015260208101905061247b565b506020828760640184336000905af158601d01573d60011458600c01573d6000803e3d621234565260ea61109c52505050565b6303daa959598160e01b8152836004820152602081602483336000905af158601d01573d60011458600c01573d6000803e3d621234565260ea61109c528051935060005b604081101561252a57600081830152602081019050612510565b505050565b6322bd64c0598160e01b8152836004820152846024820152600081604483336000905af158601d01573d60011458600c01573d6000803e3d621234565260ea61109c5260005b604081101561258f57600081830152602081019050612575565b505050565b6373509064598160e01b8152602081600483336000905af158601d01573d60011458600c01573d6000803e3d621234565260ea61109c528051935060005b60408110156125ec576000818301526020810190506125d2565b505050565b63bdbf8c36598160e01b8152602081600483336000905af158601d01573d60011458600c01573d6000803e3d621234565260ea61109c528051935060005b60408110156126495760008183015260208101905061262f565b505050565b6385979f76598160e01b815261268d565b600081905081831115612670578290505b92915050565b600081905081831015612687578290505b92915050565b836004820152846024820152606060448201528760648201526084810160005b898110156126c85780890151818301526020810190506126ad565b506060828a60a40184336000905af158601d01573d60011458600c01573d6000803e3d621234565260ea61109c52815160408301513d6000853e8c8c82606087013350600060045af1505961271d8e3d612676565b8d01612729818761265f565b5b82811015612741576000815260208101905061272a565b50839e5050505050505050565b6324749d5c598160e01b8152836004820152602081602483336000905af158601d01573d60011458600c01573d6000803e3d621234565260ea61109c528051935060005b60408110156127ac57600081830152602081019050612792565b50505056fe4f776e61626c653a206e6577206f776e657220697320746865207a65726f2061646472657373536166654d6174683a206d756c7469706c69636174696f6e206f766572666c6f7743616c6c6572206973206e6f742072657761726420646973747269627574696f6e5361666545524332303a204552433230206f7065726174696f6e20646964206e6f742073756363656564",
  "linkReferences": {},
  "deployedLinkReferences": {}
}