{
  "contracts/Unipool.sol": {
    "Unipool": {
      "abi": [
        {
          "anonymous": false,
          "inputs": [
            {
              "indexed": true,
              "internalType": "address",
              "name": "previousOwner",
              "type": "address"
            },
            {
              "indexed": true,
              "internalType": "address",
              "name": "newOwner",
              "type": "address"
            }
          ],
          "name": "OwnershipTransferred",
          "type": "event"
        },
        {
          "anonymous": false,
          "inputs": [
            {
              "indexed": false,
              "internalType": "uint256",
              "name": "reward",
              "type": "uint256"
            }
          ],
          "name": "RewardAdded",
          "type": "event"
        },
        {
          "anonymous": false,
          "inputs": [
            {
              "indexed": true,
              "internalType": "address",
              "name": "user",
              "type": "address"
            },
            {
              "indexed": false,
              "internalType": "uint256",
              "name": "reward",
              "type": "uint256"
            }
          ],
          "name": "RewardPaid",
          "type": "event"
        },
        {
          "anonymous": false,
          "inputs": [
            {
              "indexed": true,
              "internalType": "address",
              "name": "user",
              "type": "address"
            },
            {
              "indexed": false,
              "internalType": "uint256",
              "name": "amount",
              "type": "uint256"
            }
          ],
          "name": "Staked",
          "type": "event"
        },
        {
          "anonymous": false,
          "inputs": [
            {
              "indexed": true,
              "internalType": "address",
              "name": "user",
              "type": "address"
            },
            {
              "indexed": false,
              "internalType": "uint256",
              "name": "amount",
              "type": "uint256"
            }
          ],
          "name": "Withdrawn",
          "type": "event"
        },
        {
          "constant": true,
          "inputs": [],
          "name": "DURATION",
          "outputs": [
            {
              "internalType": "uint256",
              "name": "",
              "type": "uint256"
            }
          ],
          "payable": false,
          "stateMutability": "view",
          "type": "function"
        },
        {
          "constant": true,
          "inputs": [
            {
              "internalType": "address",
              "name": "account",
              "type": "address"
            }
          ],
          "name": "balanceOf",
          "outputs": [
            {
              "internalType": "uint256",
              "name": "",
              "type": "uint256"
            }
          ],
          "payable": false,
          "stateMutability": "view",
          "type": "function"
        },
        {
          "constant": true,
          "inputs": [
            {
              "internalType": "address",
              "name": "account",
              "type": "address"
            }
          ],
          "name": "earned",
          "outputs": [
            {
              "internalType": "uint256",
              "name": "",
              "type": "uint256"
            }
          ],
          "payable": false,
          "stateMutability": "view",
          "type": "function"
        },
        {
          "constant": false,
          "inputs": [],
          "name": "exit",
          "outputs": [],
          "payable": false,
          "stateMutability": "nonpayable",
          "type": "function"
        },
        {
          "constant": false,
          "inputs": [],
          "name": "getReward",
          "outputs": [],
          "payable": false,
          "stateMutability": "nonpayable",
          "type": "function"
        },
        {
          "constant": true,
          "inputs": [],
          "name": "isOwner",
          "outputs": [
            {
              "internalType": "bool",
              "name": "",
              "type": "bool"
            }
          ],
          "payable": false,
          "stateMutability": "view",
          "type": "function"
        },
        {
          "constant": true,
          "inputs": [],
          "name": "lastTimeRewardApplicable",
          "outputs": [
            {
              "internalType": "uint256",
              "name": "",
              "type": "uint256"
            }
          ],
          "payable": false,
          "stateMutability": "view",
          "type": "function"
        },
        {
          "constant": true,
          "inputs": [],
          "name": "lastUpdateTime",
          "outputs": [
            {
              "internalType": "uint256",
              "name": "",
              "type": "uint256"
            }
          ],
          "payable": false,
          "stateMutability": "view",
          "type": "function"
        },
        {
          "constant": false,
          "inputs": [
            {
              "internalType": "uint256",
              "name": "reward",
              "type": "uint256"
            }
          ],
          "name": "notifyRewardAmount",
          "outputs": [],
          "payable": false,
          "stateMutability": "nonpayable",
          "type": "function"
        },
        {
          "constant": true,
          "inputs": [],
          "name": "owner",
          "outputs": [
            {
              "internalType": "address",
              "name": "",
              "type": "address"
            }
          ],
          "payable": false,
          "stateMutability": "view",
          "type": "function"
        },
        {
          "constant": true,
          "inputs": [],
          "name": "periodFinish",
          "outputs": [
            {
              "internalType": "uint256",
              "name": "",
              "type": "uint256"
            }
          ],
          "payable": false,
          "stateMutability": "view",
          "type": "function"
        },
        {
          "constant": false,
          "inputs": [],
          "name": "renounceOwnership",
          "outputs": [],
          "payable": false,
          "stateMutability": "nonpayable",
          "type": "function"
        },
        {
          "constant": true,
          "inputs": [],
          "name": "rewardDistribution",
          "outputs": [
            {
              "internalType": "address",
              "name": "",
              "type": "address"
            }
          ],
          "payable": false,
          "stateMutability": "view",
          "type": "function"
        },
        {
          "constant": true,
          "inputs": [],
          "name": "rewardPerToken",
          "outputs": [
            {
              "internalType": "uint256",
              "name": "",
              "type": "uint256"
            }
          ],
          "payable": false,
          "stateMutability": "view",
          "type": "function"
        },
        {
          "constant": true,
          "inputs": [],
          "name": "rewardPerTokenStored",
          "outputs": [
            {
              "internalType": "uint256",
              "name": "",
              "type": "uint256"
            }
          ],
          "payable": false,
          "stateMutability": "view",
          "type": "function"
        },
        {
          "constant": true,
          "inputs": [],
          "name": "rewardRate",
          "outputs": [
            {
              "internalType": "uint256",
              "name": "",
              "type": "uint256"
            }
          ],
          "payable": false,
          "stateMutability": "view",
          "type": "function"
        },
        {
          "constant": true,
          "inputs": [
            {
              "internalType": "address",
              "name": "",
              "type": "address"
            }
          ],
          "name": "rewards",
          "outputs": [
            {
              "internalType": "uint256",
              "name": "",
              "type": "uint256"
            }
          ],
          "payable": false,
          "stateMutability": "view",
          "type": "function"
        },
        {
          "constant": false,
          "inputs": [
            {
              "internalType": "address",
              "name": "_rewardDistribution",
              "type": "address"
            }
          ],
          "name": "setRewardDistribution",
          "outputs": [],
          "payable": false,
          "stateMutability": "nonpayable",
          "type": "function"
        },
        {
          "constant": true,
          "inputs": [],
          "name": "snx",
          "outputs": [
            {
              "internalType": "contract IERC20",
              "name": "",
              "type": "address"
            }
          ],
          "payable": false,
          "stateMutability": "view",
          "type": "function"
        },
        {
          "constant": false,
          "inputs": [
            {
              "internalType": "uint256",
              "name": "amount",
              "type": "uint256"
            }
          ],
          "name": "stake",
          "outputs": [],
          "payable": false,
          "stateMutability": "nonpayable",
          "type": "function"
        },
        {
          "constant": true,
          "inputs": [],
          "name": "totalSupply",
          "outputs": [
            {
              "internalType": "uint256",
              "name": "",
              "type": "uint256"
            }
          ],
          "payable": false,
          "stateMutability": "view",
          "type": "function"
        },
        {
          "constant": false,
          "inputs": [
            {
              "internalType": "address",
              "name": "newOwner",
              "type": "address"
            }
          ],
          "name": "transferOwnership",
          "outputs": [],
          "payable": false,
          "stateMutability": "nonpayable",
          "type": "function"
        },
        {
          "constant": true,
          "inputs": [],
          "name": "uni",
          "outputs": [
            {
              "internalType": "contract IERC20",
              "name": "",
              "type": "address"
            }
          ],
          "payable": false,
          "stateMutability": "view",
          "type": "function"
        },
        {
          "constant": true,
          "inputs": [
            {
              "internalType": "address",
              "name": "",
              "type": "address"
            }
          ],
          "name": "userRewardPerTokenPaid",
          "outputs": [
            {
              "internalType": "uint256",
              "name": "",
              "type": "uint256"
            }
          ],
          "payable": false,
          "stateMutability": "view",
          "type": "function"
        },
        {
          "constant": false,
          "inputs": [
            {
              "internalType": "uint256",
              "name": "amount",
              "type": "uint256"
            }
          ],
          "name": "withdraw",
          "outputs": [],
          "payable": false,
          "stateMutability": "nonpayable",
          "type": "function"
        }
      ],
      "evm": {
        "bytecode": {
          "linkReferences": {},
          "object": "6080604052730b2ac351b2d05bd55808165514ccc07a0add6f9b6000806101000a816200002b620001f7565b8173ffffffffffffffffffffffffffffffffffffffff021916908373ffffffffffffffffffffffffffffffffffffffff16021790620000696200025c565b50505073a0c8fa362bb2a8cc8fb18762a82987f4f2e3d4b0600660006101000a8162000094620001f7565b8173ffffffffffffffffffffffffffffffffffffffff021916908373ffffffffffffffffffffffffffffffffffffffff16021790620000d26200025c565b50505060006007620000e36200025c565b505060006008620000f36200025c565b505062000105620001e560201b60201c565b600360006101000a8162000118620001f7565b8173ffffffffffffffffffffffffffffffffffffffff021916908373ffffffffffffffffffffffffffffffffffffffff16021790620001566200025c565b505050600360009062000168620001f7565b906101000a900473ffffffffffffffffffffffffffffffffffffffff1673ffffffffffffffffffffffffffffffffffffffff16600073ffffffffffffffffffffffffffffffffffffffff167f8be0079c531659141344cd1fd0a4f28419497f9722a3daafe3b4186f6b6457e060405160405180910390a362000322565b60005a620001f2620002c3565b905090565b6303daa959598160e01b8152836004820152602081602483336000905af158600e01573d6000803e3d6000fd5b3d6001141558600a015760016000f35b8051935060005b604081101562000257576000818301526020810190506200023b565b505050565b6322bd64c0598160e01b8152836004820152846024820152600081604483336000905af158600e01573d6000803e3d6000fd5b3d6001141558600a015760016000f35b60005b6040811015620002be57600081830152602081019050620002a2565b505050565b6373509064598160e01b8152602081600483336000905af158600e01573d6000803e3d6000fd5b3d6001141558600a015760016000f35b8051935060005b60408110156200031d5760008183015260208101905062000301565b505050565b61284480620003326000396000f3fe60806040523480156100195760008061001661245e565b50505b506004361061017b5760003560e01c806380faa57d116100e7578063cd3daf9d116100a0578063e9fad8ee1161007a578063e9fad8ee146105e5578063ebe2b12b146105ef578063edc9af951461060d578063f2fde38b146106575761017b565b8063cd3daf9d1461055f578063df136d651461057d578063e7d279981461059b5761017b565b806380faa57d1461041f5780638b8763471461043d5780638da5cb5b1461049e5780638f32d59b146104e8578063a694fc3a1461050a578063c8f33c91146105415761017b565b80632e1a7d4d116101395780632e1a7d4d1461031e5780633c6b16ab146103555780633d18b9121461038c57806370a0823114610396578063715018a6146103f75780637b0a47ee146104015761017b565b80628cc262146101895780630700037d146101ea5780630d68b7611461024b578063101114cf1461029857806318160ddd146102e25780631be0528914610300575b60008061018661245e565b50505b6101d4600480360360208110156101a8576000806101a561245e565b50505b81019080803573ffffffffffffffffffffffffffffffffffffffff1690602001909291905050506106a4565b6040518082815260200191505060405180910390f35b610235600480360360208110156102095760008061020661245e565b50505b81019080803573ffffffffffffffffffffffffffffffffffffffff169060200190929190505050610799565b6040518082815260200191505060405180910390f35b6102966004803603602081101561026a5760008061026761245e565b50505b81019080803573ffffffffffffffffffffffffffffffffffffffff1690602001909291905050506107b8565b005b6102a0610a02565b604051808273ffffffffffffffffffffffffffffffffffffffff1673ffffffffffffffffffffffffffffffffffffffff16815260200191505060405180910390f35b6102ea610a2f565b6040518082815260200191505060405180910390f35b610308610a40565b6040518082815260200191505060405180910390f35b6103536004803603602081101561033d5760008061033a61245e565b50505b8101908080359060200190929190505050610a47565b005b61038a600480360360208110156103745760008061037161245e565b50505b8101908080359060200190929190505050610c40565b005b610394610f54565b005b6103e1600480360360208110156103b5576000806103b261245e565b50505b81019080803573ffffffffffffffffffffffffffffffffffffffff169060200190929190505050611196565b6040518082815260200191505060405180910390f35b6103ff6111e6565b005b610409611341565b6040518082815260200191505060405180910390f35b61042761134e565b6040518082815260200191505060405180910390f35b6104886004803603602081101561045c5760008061045961245e565b50505b81019080803573ffffffffffffffffffffffffffffffffffffffff169060200190929190505050611370565b6040518082815260200191505060405180910390f35b6104a661138f565b604051808273ffffffffffffffffffffffffffffffffffffffff1673ffffffffffffffffffffffffffffffffffffffff16815260200191505060405180910390f35b6104f06113c0565b604051808215151515815260200191505060405180910390f35b61053f600480360360208110156105295760008061052661245e565b50505b8101908080359060200190929190505050611426565b005b61054961161f565b6040518082815260200191505060405180910390f35b61056761162c565b6040518082815260200191505060405180910390f35b6105856116e0565b6040518082815260200191505060405180910390f35b6105a36116ed565b604051808273ffffffffffffffffffffffffffffffffffffffff1673ffffffffffffffffffffffffffffffffffffffff16815260200191505060405180910390f35b6105ed61171a565b005b6105f761173d565b6040518082815260200191505060405180910390f35b61061561174a565b604051808273ffffffffffffffffffffffffffffffffffffffff1673ffffffffffffffffffffffffffffffffffffffff16815260200191505060405180910390f35b6106a2600480360360208110156106765760008061067361245e565b50505b81019080803573ffffffffffffffffffffffffffffffffffffffff169060200190929190505050611776565b005b6000610792600c60008473ffffffffffffffffffffffffffffffffffffffff1673ffffffffffffffffffffffffffffffffffffffff1681526020019081526020016000206106f06124cc565b610784670de0b6b3a764000061077661075f600b60008973ffffffffffffffffffffffffffffffffffffffff1673ffffffffffffffffffffffffffffffffffffffff1681526020019081526020016000206107496124cc565b61075161162c565b61180590919063ffffffff16565b61076888611196565b61184f90919063ffffffff16565b6118de90919063ffffffff16565b61192890919063ffffffff16565b9050919050565b600c6020528060005260406000206000915090506107b56124cc565b81565b6107c06113c0565b61083b576040517f08c379a00000000000000000000000000000000000000000000000000000000081526004018080602001828103825260208152602001807f4f776e61626c653a2063616c6c6572206973206e6f7420746865206f776e65728152506020019150506040518091039061083861245e565b50505b6000600560008373ffffffffffffffffffffffffffffffffffffffff1673ffffffffffffffffffffffffffffffffffffffff16815260200190815260200160002060006101000a8161088b6124cc565b8160ff021916908315150217906108a061252f565b505061091d576040517f08c379a00000000000000000000000000000000000000000000000000000000081526004018080602001828103825260198152602001807f4164647265737320697320686173206265656e206164646564000000000000008152506020019150506040518091039061091a61245e565b50505b80600460006101000a8161092f6124cc565b8173ffffffffffffffffffffffffffffffffffffffff021916908373ffffffffffffffffffffffffffffffffffffffff1602179061096b61252f565b50505060016005600060046000906109816124cc565b906101000a900473ffffffffffffffffffffffffffffffffffffffff1673ffffffffffffffffffffffffffffffffffffffff1673ffffffffffffffffffffffffffffffffffffffff16815260200190815260200160002060006101000a816109e76124cc565b8160ff021916908315150217906109fc61252f565b50505050565b6004600090610a0f6124cc565b906101000a900473ffffffffffffffffffffffffffffffffffffffff1681565b60006001610a3b6124cc565b905090565b62093a8081565b5a610a50612594565b610a5861162c565b600a8190610a6461252f565b505050610a6f61134e565b60098190610a7b61252f565b505050600073ffffffffffffffffffffffffffffffffffffffff168173ffffffffffffffffffffffffffffffffffffffff1614610b5e57610abb816106a4565b600c60008373ffffffffffffffffffffffffffffffffffffffff1673ffffffffffffffffffffffffffffffffffffffff1681526020019081526020016000208190610b0461252f565b505050600a610b116124cc565b600b60008373ffffffffffffffffffffffffffffffffffffffff1673ffffffffffffffffffffffffffffffffffffffff1681526020019081526020016000208190610b5a61252f565b5050505b60008211610bdd576040517f08c379a00000000000000000000000000000000000000000000000000000000081526004018080602001828103825260118152602001807f43616e6e6f74207769746864726177203000000000000000000000000000000081525060200191505060405180910390610bda61245e565b50505b610be6826119b9565b5a610bef612594565b73ffffffffffffffffffffffffffffffffffffffff167f7084f5476618d8e60b11ef0d7d3f06914655adb8793e28ff7f018d4c76d505d5836040518082815260200191505060405180910390a25050565b6001151560056000610c50611af7565b73ffffffffffffffffffffffffffffffffffffffff1673ffffffffffffffffffffffffffffffffffffffff168152602001908152602001600020600090610c956124cc565b906101000a900460ff16151514610d00576040517f08c379a00000000000000000000000000000000000000000000000000000000081526004018080602001828103825260218152602001806127f96021913960400191505060405180910390610cfd61245e565b50505b6000610d0a61162c565b600a8190610d1661252f565b505050610d2161134e565b60098190610d2d61252f565b505050600073ffffffffffffffffffffffffffffffffffffffff168173ffffffffffffffffffffffffffffffffffffffff1614610e1057610d6d816106a4565b600c60008373ffffffffffffffffffffffffffffffffffffffff1673ffffffffffffffffffffffffffffffffffffffff1681526020019081526020016000208190610db661252f565b505050600a610dc36124cc565b600b60008373ffffffffffffffffffffffffffffffffffffffff1673ffffffffffffffffffffffffffffffffffffffff1681526020019081526020016000208190610e0c61252f565b5050505b6007610e1a6124cc565b5a610e236125f1565b10610e5257610e3e62093a80836118de90919063ffffffff16565b60088190610e4a61252f565b505050610ed4565b6000610e785a610e606125f1565b6007610e6a6124cc565b61180590919063ffffffff16565b90506000610e986008610e896124cc565b8361184f90919063ffffffff16565b9050610ec262093a80610eb4838761192890919063ffffffff16565b6118de90919063ffffffff16565b60088190610ece61252f565b50505050505b5a610edd6125f1565b60098190610ee961252f565b505050610f0a62093a805a610efc6125f1565b61192890919063ffffffff16565b60078190610f1661252f565b5050507fde88a922e0d3b88b24e9623efeb464919c6bf9f66857a65e2bfcf2ce87a9433d826040518082815260200191505060405180910390a15050565b5a610f5d612594565b610f6561162c565b600a8190610f7161252f565b505050610f7c61134e565b60098190610f8861252f565b505050600073ffffffffffffffffffffffffffffffffffffffff168173ffffffffffffffffffffffffffffffffffffffff161461106b57610fc8816106a4565b600c60008373ffffffffffffffffffffffffffffffffffffffff1673ffffffffffffffffffffffffffffffffffffffff168152602001908152602001600020819061101161252f565b505050600a61101e6124cc565b600b60008373ffffffffffffffffffffffffffffffffffffffff1673ffffffffffffffffffffffffffffffffffffffff168152602001908152602001600020819061106761252f565b5050505b600061107e5a611079612594565b6106a4565b90506000811115611192576000600c60005a611098612594565b73ffffffffffffffffffffffffffffffffffffffff1673ffffffffffffffffffffffffffffffffffffffff16815260200190815260200160002081906110dc61252f565b50505061113b5a6110eb612594565b8260066000906110f96124cc565b906101000a900473ffffffffffffffffffffffffffffffffffffffff1673ffffffffffffffffffffffffffffffffffffffff16611b079092919063ffffffff16565b5a611144612594565b73ffffffffffffffffffffffffffffffffffffffff167fe2403640ba68fed3a2f88b7557551d1993f84b99bb10ff833f0cf8db0c5e0486826040518082815260200191505060405180910390a25b5050565b6000600260008373ffffffffffffffffffffffffffffffffffffffff1673ffffffffffffffffffffffffffffffffffffffff1681526020019081526020016000206111df6124cc565b9050919050565b6111ee6113c0565b611269576040517f08c379a00000000000000000000000000000000000000000000000000000000081526004018080602001828103825260208152602001807f4f776e61626c653a2063616c6c6572206973206e6f7420746865206f776e65728152506020019150506040518091039061126661245e565b50505b600073ffffffffffffffffffffffffffffffffffffffff16600360009061128e6124cc565b906101000a900473ffffffffffffffffffffffffffffffffffffffff1673ffffffffffffffffffffffffffffffffffffffff167f8be0079c531659141344cd1fd0a4f28419497f9722a3daafe3b4186f6b6457e060405160405180910390a36000600360006101000a816113006124cc565b8173ffffffffffffffffffffffffffffffffffffffff021916908373ffffffffffffffffffffffffffffffffffffffff1602179061133c61252f565b505050565b600861134b6124cc565b81565b600061136b5a61135c6125f1565b60076113666124cc565b611bd8565b905090565b600b60205280600052604060002060009150905061138c6124cc565b81565b6000600360009061139e6124cc565b906101000a900473ffffffffffffffffffffffffffffffffffffffff16905090565b600060036000906113cf6124cc565b906101000a900473ffffffffffffffffffffffffffffffffffffffff1673ffffffffffffffffffffffffffffffffffffffff1661140a611af7565b73ffffffffffffffffffffffffffffffffffffffff1614905090565b5a61142f612594565b61143761162c565b600a819061144361252f565b50505061144e61134e565b6009819061145a61252f565b505050600073ffffffffffffffffffffffffffffffffffffffff168173ffffffffffffffffffffffffffffffffffffffff161461153d5761149a816106a4565b600c60008373ffffffffffffffffffffffffffffffffffffffff1673ffffffffffffffffffffffffffffffffffffffff16815260200190815260200160002081906114e361252f565b505050600a6114f06124cc565b600b60008373ffffffffffffffffffffffffffffffffffffffff1673ffffffffffffffffffffffffffffffffffffffff168152602001908152602001600020819061153961252f565b5050505b600082116115bc576040517f08c379a000000000000000000000000000000000000000000000000000000000815260040180806020018281038252600e8152602001807f43616e6e6f74207374616b652030000000000000000000000000000000000000815250602001915050604051809103906115b961245e565b50505b6115c582611bf1565b5a6115ce612594565b73ffffffffffffffffffffffffffffffffffffffff167f9e71bc8eea02a63969f509818f2dafb9254532904319f9dbda79b67bd34a5f3d836040518082815260200191505060405180910390a25050565b60096116296124cc565b81565b600080611637610a2f565b141561164e57600a6116476124cc565b90506116dd565b6116da6116c261165c610a2f565b6116b4670de0b6b3a76400006116a660086116756124cc565b61169860096116826124cc565b61168a61134e565b61180590919063ffffffff16565b61184f90919063ffffffff16565b61184f90919063ffffffff16565b6118de90919063ffffffff16565b600a6116cc6124cc565b61192890919063ffffffff16565b90505b90565b600a6116ea6124cc565b81565b60066000906116fa6124cc565b906101000a900473ffffffffffffffffffffffffffffffffffffffff1681565b61173361172e5a611729612594565b611196565b610a47565b61173b610f54565b565b60076117476124cc565b81565b600080906117566124cc565b906101000a900473ffffffffffffffffffffffffffffffffffffffff1681565b61177e6113c0565b6117f9576040517f08c379a00000000000000000000000000000000000000000000000000000000081526004018080602001828103825260208152602001807f4f776e61626c653a2063616c6c6572206973206e6f7420746865206f776e6572815250602001915050604051809103906117f661245e565b50505b61180281611d8c565b50565b600061184783836040518060400160405280601e81526020017f536166654d6174683a207375627472616374696f6e206f766572666c6f770000815250611ef2565b905092915050565b60008083141561186257600090506118d8565b600082840290508284828161187357fe5b04146118d3576040517f08c379a00000000000000000000000000000000000000000000000000000000081526004018080602001828103825260218152602001806127d860219139604001915050604051809103906118d061245e565b50505b809150505b92915050565b600061192083836040518060400160405280601a81526020017f536166654d6174683a206469766973696f6e206279207a65726f000000000000815250611fbb565b905092915050565b6000808284019050838110156119af576040517f08c379a000000000000000000000000000000000000000000000000000000000815260040180806020018281038252601b8152602001807f536166654d6174683a206164646974696f6e206f766572666c6f770000000000815250602001915050604051809103906119ac61245e565b50505b8091505092915050565b6119d58160016119c76124cc565b61180590919063ffffffff16565b600181906119e161252f565b505050611a4581600260005a6119f5612594565b73ffffffffffffffffffffffffffffffffffffffff1673ffffffffffffffffffffffffffffffffffffffff168152602001908152602001600020611a376124cc565b61180590919063ffffffff16565b600260005a611a52612594565b73ffffffffffffffffffffffffffffffffffffffff1673ffffffffffffffffffffffffffffffffffffffff1681526020019081526020016000208190611a9661252f565b505050611af45a611aa5612594565b8260008090611ab26124cc565b906101000a900473ffffffffffffffffffffffffffffffffffffffff1673ffffffffffffffffffffffffffffffffffffffff16611b079092919063ffffffff16565b50565b60005a611b02612594565b905090565b611bd3838473ffffffffffffffffffffffffffffffffffffffff1663a9059cbb905060e01b8484604051602401808373ffffffffffffffffffffffffffffffffffffffff1673ffffffffffffffffffffffffffffffffffffffff16815260200182815260200192505050604051602081830303815290604052907bffffffffffffffffffffffffffffffffffffffffffffffffffffffff19166020820180517bffffffffffffffffffffffffffffffffffffffffffffffffffffffff838183161783525050505061208a565b505050565b6000818310611be75781611be9565b825b905092915050565b611c0d816001611bff6124cc565b61192890919063ffffffff16565b60018190611c1961252f565b505050611c7d81600260005a611c2d612594565b73ffffffffffffffffffffffffffffffffffffffff1673ffffffffffffffffffffffffffffffffffffffff168152602001908152602001600020611c6f6124cc565b61192890919063ffffffff16565b600260005a611c8a612594565b73ffffffffffffffffffffffffffffffffffffffff1673ffffffffffffffffffffffffffffffffffffffff1681526020019081526020016000208190611cce61252f565b505050611d895a611cdd612594565b5a63996d79a5598160e01b8152602081600483336000905af158600e01573d6000803e3d6000fd5b3d6001141558600a015760016000f35b8051925060005b6040811015611d3657600081830152602081019050611d1c565b5050508360008090611d466124cc565b906101000a900473ffffffffffffffffffffffffffffffffffffffff1673ffffffffffffffffffffffffffffffffffffffff16612306909392919063ffffffff16565b50565b600073ffffffffffffffffffffffffffffffffffffffff168173ffffffffffffffffffffffffffffffffffffffff161415611e1b576040517f08c379a00000000000000000000000000000000000000000000000000000000081526004018080602001828103825260268152602001806127b26026913960400191505060405180910390611e1861245e565b50505b8073ffffffffffffffffffffffffffffffffffffffff166003600090611e3f6124cc565b906101000a900473ffffffffffffffffffffffffffffffffffffffff1673ffffffffffffffffffffffffffffffffffffffff167f8be0079c531659141344cd1fd0a4f28419497f9722a3daafe3b4186f6b6457e060405160405180910390a380600360006101000a81611eb06124cc565b8173ffffffffffffffffffffffffffffffffffffffff021916908373ffffffffffffffffffffffffffffffffffffffff16021790611eec61252f565b50505050565b6000838311158290611fa8576040517f08c379a00000000000000000000000000000000000000000000000000000000081526004018080602001828103825283818151815260200191508051906020019080838360005b83811015611f64578082015181840152602081019050611f49565b50505050905090810190601f168015611f915780820380516001836020036101000a031916815260200191505b509250505060405180910390611fa561245e565b50505b5060008385039050809150509392505050565b60008083118290612070576040517f08c379a00000000000000000000000000000000000000000000000000000000081526004018080602001828103825283818151815260200191508051906020019080838360005b8381101561202c578082015181840152602081019050612011565b50505050905090810190601f1680156120595780820380516001836020036101000a031916815260200191505b50925050506040518091039061206d61245e565b50505b50600083858161207c57fe5b049050809150509392505050565b6120a98273ffffffffffffffffffffffffffffffffffffffff1661240c565b612124576040517f08c379a000000000000000000000000000000000000000000000000000000000815260040180806020018281038252601f8152602001807f5361666545524332303a2063616c6c20746f206e6f6e2d636f6e7472616374008152506020019150506040518091039061212161245e565b50505b600060608373ffffffffffffffffffffffffffffffffffffffff16836040518082805190602001908083835b602083106121735780518252602082019150602081019050602083039250612150565b6001836020036101000a0380198251168184511680821785525050505050509050019150506000604051808303816000865a6121ad61264e565b5050505050509150503d80600081146121e2576040519150601f19603f3d011682016040523d82523d6000602084013e6121e7565b606091505b509150915081612268576040517f08c379a00000000000000000000000000000000000000000000000000000000081526004018080602001828103825260208152602001807f5361666545524332303a206c6f772d6c6576656c2063616c6c206661696c65648152506020019150506040518091039061226561245e565b50505b600081511115612300578080602001905160208110156122905760008061228d61245e565b50505b81019080805190602001909291905050506122ff576040517f08c379a000000000000000000000000000000000000000000000000000000000815260040180806020018281038252602a81526020018061281a602a9139604001915050604051809103906122fc61245e565b50505b5b50505050565b612406848573ffffffffffffffffffffffffffffffffffffffff166323b872dd905060e01b858585604051602401808473ffffffffffffffffffffffffffffffffffffffff1673ffffffffffffffffffffffffffffffffffffffff1681526020018373ffffffffffffffffffffffffffffffffffffffff1673ffffffffffffffffffffffffffffffffffffffff1681526020018281526020019350505050604051602081830303815290604052907bffffffffffffffffffffffffffffffffffffffffffffffffffffffff19166020820180517bffffffffffffffffffffffffffffffffffffffffffffffffffffffff838183161783525050505061208a565b50505050565b60008060007fc5d2460186f7233c927e7db2dcc703c0e500b653ca82273b7bfad8045d85a47060001b90508361244061274e565b91506000801b82141580156124555750808214155b92505050919050565b632a2a7adb598160e01b8152600481016020815285602082015260005b8681101561249957808601518160408401015260208101905061247b565b506020828760640184336000905af158600e01573d6000803e3d6000fd5b3d6001141558600a015760016000f35b505050565b6303daa959598160e01b8152836004820152602081602483336000905af158600e01573d6000803e3d6000fd5b3d6001141558600a015760016000f35b8051935060005b604081101561252a57600081830152602081019050612510565b505050565b6322bd64c0598160e01b8152836004820152846024820152600081604483336000905af158600e01573d6000803e3d6000fd5b3d6001141558600a015760016000f35b60005b604081101561258f57600081830152602081019050612575565b505050565b6373509064598160e01b8152602081600483336000905af158600e01573d6000803e3d6000fd5b3d6001141558600a015760016000f35b8051935060005b60408110156125ec576000818301526020810190506125d2565b505050565b63bdbf8c36598160e01b8152602081600483336000905af158600e01573d6000803e3d6000fd5b3d6001141558600a015760016000f35b8051935060005b60408110156126495760008183015260208101905061262f565b505050565b6385979f76598160e01b815261268d565b600081905081831115612670578290505b92915050565b600081905081831015612687578290505b92915050565b836004820152846024820152606060448201528760648201526084810160005b898110156126c85780890151818301526020810190506126ad565b506060828a60a40184336000905af158600e01573d6000803e3d6000fd5b3d6001141558600a015760016000f35b815160408301513d6000853e8c8c82606087013350600060045af1505961271d8e3d612676565b8d01612729818761265f565b5b82811015612741576000815260208101905061272a565b50839e5050505050505050565b6324749d5c598160e01b8152836004820152602081602483336000905af158600e01573d6000803e3d6000fd5b3d6001141558600a015760016000f35b8051935060005b60408110156127ac57600081830152602081019050612792565b50505056fe4f776e61626c653a206e6577206f776e657220697320746865207a65726f2061646472657373536166654d6174683a206d756c7469706c69636174696f6e206f766572666c6f7743616c6c6572206973206e6f742072657761726420646973747269627574696f6e5361666545524332303a204552433230206f7065726174696f6e20646964206e6f742073756363656564",
          "opcodes": "PUSH1 0x80 PUSH1 0x40 MSTORE PUSH20 0xB2AC351B2D05BD55808165514CCC07A0ADD6F9B PUSH1 0x0 DUP1 PUSH2 0x100 EXP DUP2 PUSH3 0x2B PUSH3 0x1F7 JUMP JUMPDEST DUP2 PUSH20 0xFFFFFFFFFFFFFFFFFFFFFFFFFFFFFFFFFFFFFFFF MUL NOT AND SWAP1 DUP4 PUSH20 0xFFFFFFFFFFFFFFFFFFFFFFFFFFFFFFFFFFFFFFFF AND MUL OR SWAP1 PUSH3 0x69 PUSH3 0x25C JUMP JUMPDEST POP POP POP PUSH20 0xA0C8FA362BB2A8CC8FB18762A82987F4F2E3D4B0 PUSH1 0x6 PUSH1 0x0 PUSH2 0x100 EXP DUP2 PUSH3 0x94 PUSH3 0x1F7 JUMP JUMPDEST DUP2 PUSH20 0xFFFFFFFFFFFFFFFFFFFFFFFFFFFFFFFFFFFFFFFF MUL NOT AND SWAP1 DUP4 PUSH20 0xFFFFFFFFFFFFFFFFFFFFFFFFFFFFFFFFFFFFFFFF AND MUL OR SWAP1 PUSH3 0xD2 PUSH3 0x25C JUMP JUMPDEST POP POP POP PUSH1 0x0 PUSH1 0x7 PUSH3 0xE3 PUSH3 0x25C JUMP JUMPDEST POP POP PUSH1 0x0 PUSH1 0x8 PUSH3 0xF3 PUSH3 0x25C JUMP JUMPDEST POP POP PUSH3 0x105 PUSH3 0x1E5 PUSH1 0x20 SHL PUSH1 0x20 SHR JUMP JUMPDEST PUSH1 0x3 PUSH1 0x0 PUSH2 0x100 EXP DUP2 PUSH3 0x118 PUSH3 0x1F7 JUMP JUMPDEST DUP2 PUSH20 0xFFFFFFFFFFFFFFFFFFFFFFFFFFFFFFFFFFFFFFFF MUL NOT AND SWAP1 DUP4 PUSH20 0xFFFFFFFFFFFFFFFFFFFFFFFFFFFFFFFFFFFFFFFF AND MUL OR SWAP1 PUSH3 0x156 PUSH3 0x25C JUMP JUMPDEST POP POP POP PUSH1 0x3 PUSH1 0x0 SWAP1 PUSH3 0x168 PUSH3 0x1F7 JUMP JUMPDEST SWAP1 PUSH2 0x100 EXP SWAP1 DIV PUSH20 0xFFFFFFFFFFFFFFFFFFFFFFFFFFFFFFFFFFFFFFFF AND PUSH20 0xFFFFFFFFFFFFFFFFFFFFFFFFFFFFFFFFFFFFFFFF AND PUSH1 0x0 PUSH20 0xFFFFFFFFFFFFFFFFFFFFFFFFFFFFFFFFFFFFFFFF AND PUSH32 0x8BE0079C531659141344CD1FD0A4F28419497F9722A3DAAFE3B4186F6B6457E0 PUSH1 0x40 MLOAD PUSH1 0x40 MLOAD DUP1 SWAP2 SUB SWAP1 LOG3 PUSH3 0x322 JUMP JUMPDEST PUSH1 0x0 GAS PUSH3 0x1F2 PUSH3 0x2C3 JUMP JUMPDEST SWAP1 POP SWAP1 JUMP JUMPDEST PUSH4 0x3DAA959 MSIZE DUP2 PUSH1 0xE0 SHL DUP2 MSTORE DUP4 PUSH1 0x4 DUP3 ADD MSTORE PUSH1 0x20 DUP2 PUSH1 0x24 DUP4 CALLER PUSH1 0x0 SWAP1 GAS CALL PC PUSH1 0xE ADD JUMPI RETURNDATASIZE PUSH1 0x0 DUP1 RETURNDATACOPY RETURNDATASIZE PUSH1 0x0 REVERT JUMPDEST RETURNDATASIZE PUSH1 0x1 EQ ISZERO PC PUSH1 0xA ADD JUMPI PUSH1 0x1 PUSH1 0x0 RETURN JUMPDEST DUP1 MLOAD SWAP4 POP PUSH1 0x0 JUMPDEST PUSH1 0x40 DUP2 LT ISZERO PUSH3 0x257 JUMPI PUSH1 0x0 DUP2 DUP4 ADD MSTORE PUSH1 0x20 DUP2 ADD SWAP1 POP PUSH3 0x23B JUMP JUMPDEST POP POP POP JUMP JUMPDEST PUSH4 0x22BD64C0 MSIZE DUP2 PUSH1 0xE0 SHL DUP2 MSTORE DUP4 PUSH1 0x4 DUP3 ADD MSTORE DUP5 PUSH1 0x24 DUP3 ADD MSTORE PUSH1 0x0 DUP2 PUSH1 0x44 DUP4 CALLER PUSH1 0x0 SWAP1 GAS CALL PC PUSH1 0xE ADD JUMPI RETURNDATASIZE PUSH1 0x0 DUP1 RETURNDATACOPY RETURNDATASIZE PUSH1 0x0 REVERT JUMPDEST RETURNDATASIZE PUSH1 0x1 EQ ISZERO PC PUSH1 0xA ADD JUMPI PUSH1 0x1 PUSH1 0x0 RETURN JUMPDEST PUSH1 0x0 JUMPDEST PUSH1 0x40 DUP2 LT ISZERO PUSH3 0x2BE JUMPI PUSH1 0x0 DUP2 DUP4 ADD MSTORE PUSH1 0x20 DUP2 ADD SWAP1 POP PUSH3 0x2A2 JUMP JUMPDEST POP POP POP JUMP JUMPDEST PUSH4 0x73509064 MSIZE DUP2 PUSH1 0xE0 SHL DUP2 MSTORE PUSH1 0x20 DUP2 PUSH1 0x4 DUP4 CALLER PUSH1 0x0 SWAP1 GAS CALL PC PUSH1 0xE ADD JUMPI RETURNDATASIZE PUSH1 0x0 DUP1 RETURNDATACOPY RETURNDATASIZE PUSH1 0x0 REVERT JUMPDEST RETURNDATASIZE PUSH1 0x1 EQ ISZERO PC PUSH1 0xA ADD JUMPI PUSH1 0x1 PUSH1 0x0 RETURN JUMPDEST DUP1 MLOAD SWAP4 POP PUSH1 0x0 JUMPDEST PUSH1 0x40 DUP2 LT ISZERO PUSH3 0x31D JUMPI PUSH1 0x0 DUP2 DUP4 ADD MSTORE PUSH1 0x20 DUP2 ADD SWAP1 POP PUSH3 0x301 JUMP JUMPDEST POP POP POP JUMP JUMPDEST PUSH2 0x2844 DUP1 PUSH3 0x332 PUSH1 0x0 CODECOPY PUSH1 0x0 RETURN INVALID PUSH1 0x80 PUSH1 0x40 MSTORE CALLVALUE DUP1 ISZERO PUSH2 0x19 JUMPI PUSH1 0x0 DUP1 PUSH2 0x16 PUSH2 0x245E JUMP JUMPDEST POP POP JUMPDEST POP PUSH1 0x4 CALLDATASIZE LT PUSH2 0x17B JUMPI PUSH1 0x0 CALLDATALOAD PUSH1 0xE0 SHR DUP1 PUSH4 0x80FAA57D GT PUSH2 0xE7 JUMPI DUP1 PUSH4 0xCD3DAF9D GT PUSH2 0xA0 JUMPI DUP1 PUSH4 0xE9FAD8EE GT PUSH2 0x7A JUMPI DUP1 PUSH4 0xE9FAD8EE EQ PUSH2 0x5E5 JUMPI DUP1 PUSH4 0xEBE2B12B EQ PUSH2 0x5EF JUMPI DUP1 PUSH4 0xEDC9AF95 EQ PUSH2 0x60D JUMPI DUP1 PUSH4 0xF2FDE38B EQ PUSH2 0x657 JUMPI PUSH2 0x17B JUMP JUMPDEST DUP1 PUSH4 0xCD3DAF9D EQ PUSH2 0x55F JUMPI DUP1 PUSH4 0xDF136D65 EQ PUSH2 0x57D JUMPI DUP1 PUSH4 0xE7D27998 EQ PUSH2 0x59B JUMPI PUSH2 0x17B JUMP JUMPDEST DUP1 PUSH4 0x80FAA57D EQ PUSH2 0x41F JUMPI DUP1 PUSH4 0x8B876347 EQ PUSH2 0x43D JUMPI DUP1 PUSH4 0x8DA5CB5B EQ PUSH2 0x49E JUMPI DUP1 PUSH4 0x8F32D59B EQ PUSH2 0x4E8 JUMPI DUP1 PUSH4 0xA694FC3A EQ PUSH2 0x50A JUMPI DUP1 PUSH4 0xC8F33C91 EQ PUSH2 0x541 JUMPI PUSH2 0x17B JUMP JUMPDEST DUP1 PUSH4 0x2E1A7D4D GT PUSH2 0x139 JUMPI DUP1 PUSH4 0x2E1A7D4D EQ PUSH2 0x31E JUMPI DUP1 PUSH4 0x3C6B16AB EQ PUSH2 0x355 JUMPI DUP1 PUSH4 0x3D18B912 EQ PUSH2 0x38C JUMPI DUP1 PUSH4 0x70A08231 EQ PUSH2 0x396 JUMPI DUP1 PUSH4 0x715018A6 EQ PUSH2 0x3F7 JUMPI DUP1 PUSH4 0x7B0A47EE EQ PUSH2 0x401 JUMPI PUSH2 0x17B JUMP JUMPDEST DUP1 PUSH3 0x8CC262 EQ PUSH2 0x189 JUMPI DUP1 PUSH4 0x700037D EQ PUSH2 0x1EA JUMPI DUP1 PUSH4 0xD68B761 EQ PUSH2 0x24B JUMPI DUP1 PUSH4 0x101114CF EQ PUSH2 0x298 JUMPI DUP1 PUSH4 0x18160DDD EQ PUSH2 0x2E2 JUMPI DUP1 PUSH4 0x1BE05289 EQ PUSH2 0x300 JUMPI JUMPDEST PUSH1 0x0 DUP1 PUSH2 0x186 PUSH2 0x245E JUMP JUMPDEST POP POP JUMPDEST PUSH2 0x1D4 PUSH1 0x4 DUP1 CALLDATASIZE SUB PUSH1 0x20 DUP2 LT ISZERO PUSH2 0x1A8 JUMPI PUSH1 0x0 DUP1 PUSH2 0x1A5 PUSH2 0x245E JUMP JUMPDEST POP POP JUMPDEST DUP2 ADD SWAP1 DUP1 DUP1 CALLDATALOAD PUSH20 0xFFFFFFFFFFFFFFFFFFFFFFFFFFFFFFFFFFFFFFFF AND SWAP1 PUSH1 0x20 ADD SWAP1 SWAP3 SWAP2 SWAP1 POP POP POP PUSH2 0x6A4 JUMP JUMPDEST PUSH1 0x40 MLOAD DUP1 DUP3 DUP2 MSTORE PUSH1 0x20 ADD SWAP2 POP POP PUSH1 0x40 MLOAD DUP1 SWAP2 SUB SWAP1 RETURN JUMPDEST PUSH2 0x235 PUSH1 0x4 DUP1 CALLDATASIZE SUB PUSH1 0x20 DUP2 LT ISZERO PUSH2 0x209 JUMPI PUSH1 0x0 DUP1 PUSH2 0x206 PUSH2 0x245E JUMP JUMPDEST POP POP JUMPDEST DUP2 ADD SWAP1 DUP1 DUP1 CALLDATALOAD PUSH20 0xFFFFFFFFFFFFFFFFFFFFFFFFFFFFFFFFFFFFFFFF AND SWAP1 PUSH1 0x20 ADD SWAP1 SWAP3 SWAP2 SWAP1 POP POP POP PUSH2 0x799 JUMP JUMPDEST PUSH1 0x40 MLOAD DUP1 DUP3 DUP2 MSTORE PUSH1 0x20 ADD SWAP2 POP POP PUSH1 0x40 MLOAD DUP1 SWAP2 SUB SWAP1 RETURN JUMPDEST PUSH2 0x296 PUSH1 0x4 DUP1 CALLDATASIZE SUB PUSH1 0x20 DUP2 LT ISZERO PUSH2 0x26A JUMPI PUSH1 0x0 DUP1 PUSH2 0x267 PUSH2 0x245E JUMP JUMPDEST POP POP JUMPDEST DUP2 ADD SWAP1 DUP1 DUP1 CALLDATALOAD PUSH20 0xFFFFFFFFFFFFFFFFFFFFFFFFFFFFFFFFFFFFFFFF AND SWAP1 PUSH1 0x20 ADD SWAP1 SWAP3 SWAP2 SWAP1 POP POP POP PUSH2 0x7B8 JUMP JUMPDEST STOP JUMPDEST PUSH2 0x2A0 PUSH2 0xA02 JUMP JUMPDEST PUSH1 0x40 MLOAD DUP1 DUP3 PUSH20 0xFFFFFFFFFFFFFFFFFFFFFFFFFFFFFFFFFFFFFFFF AND PUSH20 0xFFFFFFFFFFFFFFFFFFFFFFFFFFFFFFFFFFFFFFFF AND DUP2 MSTORE PUSH1 0x20 ADD SWAP2 POP POP PUSH1 0x40 MLOAD DUP1 SWAP2 SUB SWAP1 RETURN JUMPDEST PUSH2 0x2EA PUSH2 0xA2F JUMP JUMPDEST PUSH1 0x40 MLOAD DUP1 DUP3 DUP2 MSTORE PUSH1 0x20 ADD SWAP2 POP POP PUSH1 0x40 MLOAD DUP1 SWAP2 SUB SWAP1 RETURN JUMPDEST PUSH2 0x308 PUSH2 0xA40 JUMP JUMPDEST PUSH1 0x40 MLOAD DUP1 DUP3 DUP2 MSTORE PUSH1 0x20 ADD SWAP2 POP POP PUSH1 0x40 MLOAD DUP1 SWAP2 SUB SWAP1 RETURN JUMPDEST PUSH2 0x353 PUSH1 0x4 DUP1 CALLDATASIZE SUB PUSH1 0x20 DUP2 LT ISZERO PUSH2 0x33D JUMPI PUSH1 0x0 DUP1 PUSH2 0x33A PUSH2 0x245E JUMP JUMPDEST POP POP JUMPDEST DUP2 ADD SWAP1 DUP1 DUP1 CALLDATALOAD SWAP1 PUSH1 0x20 ADD SWAP1 SWAP3 SWAP2 SWAP1 POP POP POP PUSH2 0xA47 JUMP JUMPDEST STOP JUMPDEST PUSH2 0x38A PUSH1 0x4 DUP1 CALLDATASIZE SUB PUSH1 0x20 DUP2 LT ISZERO PUSH2 0x374 JUMPI PUSH1 0x0 DUP1 PUSH2 0x371 PUSH2 0x245E JUMP JUMPDEST POP POP JUMPDEST DUP2 ADD SWAP1 DUP1 DUP1 CALLDATALOAD SWAP1 PUSH1 0x20 ADD SWAP1 SWAP3 SWAP2 SWAP1 POP POP POP PUSH2 0xC40 JUMP JUMPDEST STOP JUMPDEST PUSH2 0x394 PUSH2 0xF54 JUMP JUMPDEST STOP JUMPDEST PUSH2 0x3E1 PUSH1 0x4 DUP1 CALLDATASIZE SUB PUSH1 0x20 DUP2 LT ISZERO PUSH2 0x3B5 JUMPI PUSH1 0x0 DUP1 PUSH2 0x3B2 PUSH2 0x245E JUMP JUMPDEST POP POP JUMPDEST DUP2 ADD SWAP1 DUP1 DUP1 CALLDATALOAD PUSH20 0xFFFFFFFFFFFFFFFFFFFFFFFFFFFFFFFFFFFFFFFF AND SWAP1 PUSH1 0x20 ADD SWAP1 SWAP3 SWAP2 SWAP1 POP POP POP PUSH2 0x1196 JUMP JUMPDEST PUSH1 0x40 MLOAD DUP1 DUP3 DUP2 MSTORE PUSH1 0x20 ADD SWAP2 POP POP PUSH1 0x40 MLOAD DUP1 SWAP2 SUB SWAP1 RETURN JUMPDEST PUSH2 0x3FF PUSH2 0x11E6 JUMP JUMPDEST STOP JUMPDEST PUSH2 0x409 PUSH2 0x1341 JUMP JUMPDEST PUSH1 0x40 MLOAD DUP1 DUP3 DUP2 MSTORE PUSH1 0x20 ADD SWAP2 POP POP PUSH1 0x40 MLOAD DUP1 SWAP2 SUB SWAP1 RETURN JUMPDEST PUSH2 0x427 PUSH2 0x134E JUMP JUMPDEST PUSH1 0x40 MLOAD DUP1 DUP3 DUP2 MSTORE PUSH1 0x20 ADD SWAP2 POP POP PUSH1 0x40 MLOAD DUP1 SWAP2 SUB SWAP1 RETURN JUMPDEST PUSH2 0x488 PUSH1 0x4 DUP1 CALLDATASIZE SUB PUSH1 0x20 DUP2 LT ISZERO PUSH2 0x45C JUMPI PUSH1 0x0 DUP1 PUSH2 0x459 PUSH2 0x245E JUMP JUMPDEST POP POP JUMPDEST DUP2 ADD SWAP1 DUP1 DUP1 CALLDATALOAD PUSH20 0xFFFFFFFFFFFFFFFFFFFFFFFFFFFFFFFFFFFFFFFF AND SWAP1 PUSH1 0x20 ADD SWAP1 SWAP3 SWAP2 SWAP1 POP POP POP PUSH2 0x1370 JUMP JUMPDEST PUSH1 0x40 MLOAD DUP1 DUP3 DUP2 MSTORE PUSH1 0x20 ADD SWAP2 POP POP PUSH1 0x40 MLOAD DUP1 SWAP2 SUB SWAP1 RETURN JUMPDEST PUSH2 0x4A6 PUSH2 0x138F JUMP JUMPDEST PUSH1 0x40 MLOAD DUP1 DUP3 PUSH20 0xFFFFFFFFFFFFFFFFFFFFFFFFFFFFFFFFFFFFFFFF AND PUSH20 0xFFFFFFFFFFFFFFFFFFFFFFFFFFFFFFFFFFFFFFFF AND DUP2 MSTORE PUSH1 0x20 ADD SWAP2 POP POP PUSH1 0x40 MLOAD DUP1 SWAP2 SUB SWAP1 RETURN JUMPDEST PUSH2 0x4F0 PUSH2 0x13C0 JUMP JUMPDEST PUSH1 0x40 MLOAD DUP1 DUP3 ISZERO ISZERO ISZERO ISZERO DUP2 MSTORE PUSH1 0x20 ADD SWAP2 POP POP PUSH1 0x40 MLOAD DUP1 SWAP2 SUB SWAP1 RETURN JUMPDEST PUSH2 0x53F PUSH1 0x4 DUP1 CALLDATASIZE SUB PUSH1 0x20 DUP2 LT ISZERO PUSH2 0x529 JUMPI PUSH1 0x0 DUP1 PUSH2 0x526 PUSH2 0x245E JUMP JUMPDEST POP POP JUMPDEST DUP2 ADD SWAP1 DUP1 DUP1 CALLDATALOAD SWAP1 PUSH1 0x20 ADD SWAP1 SWAP3 SWAP2 SWAP1 POP POP POP PUSH2 0x1426 JUMP JUMPDEST STOP JUMPDEST PUSH2 0x549 PUSH2 0x161F JUMP JUMPDEST PUSH1 0x40 MLOAD DUP1 DUP3 DUP2 MSTORE PUSH1 0x20 ADD SWAP2 POP POP PUSH1 0x40 MLOAD DUP1 SWAP2 SUB SWAP1 RETURN JUMPDEST PUSH2 0x567 PUSH2 0x162C JUMP JUMPDEST PUSH1 0x40 MLOAD DUP1 DUP3 DUP2 MSTORE PUSH1 0x20 ADD SWAP2 POP POP PUSH1 0x40 MLOAD DUP1 SWAP2 SUB SWAP1 RETURN JUMPDEST PUSH2 0x585 PUSH2 0x16E0 JUMP JUMPDEST PUSH1 0x40 MLOAD DUP1 DUP3 DUP2 MSTORE PUSH1 0x20 ADD SWAP2 POP POP PUSH1 0x40 MLOAD DUP1 SWAP2 SUB SWAP1 RETURN JUMPDEST PUSH2 0x5A3 PUSH2 0x16ED JUMP JUMPDEST PUSH1 0x40 MLOAD DUP1 DUP3 PUSH20 0xFFFFFFFFFFFFFFFFFFFFFFFFFFFFFFFFFFFFFFFF AND PUSH20 0xFFFFFFFFFFFFFFFFFFFFFFFFFFFFFFFFFFFFFFFF AND DUP2 MSTORE PUSH1 0x20 ADD SWAP2 POP POP PUSH1 0x40 MLOAD DUP1 SWAP2 SUB SWAP1 RETURN JUMPDEST PUSH2 0x5ED PUSH2 0x171A JUMP JUMPDEST STOP JUMPDEST PUSH2 0x5F7 PUSH2 0x173D JUMP JUMPDEST PUSH1 0x40 MLOAD DUP1 DUP3 DUP2 MSTORE PUSH1 0x20 ADD SWAP2 POP POP PUSH1 0x40 MLOAD DUP1 SWAP2 SUB SWAP1 RETURN JUMPDEST PUSH2 0x615 PUSH2 0x174A JUMP JUMPDEST PUSH1 0x40 MLOAD DUP1 DUP3 PUSH20 0xFFFFFFFFFFFFFFFFFFFFFFFFFFFFFFFFFFFFFFFF AND PUSH20 0xFFFFFFFFFFFFFFFFFFFFFFFFFFFFFFFFFFFFFFFF AND DUP2 MSTORE PUSH1 0x20 ADD SWAP2 POP POP PUSH1 0x40 MLOAD DUP1 SWAP2 SUB SWAP1 RETURN JUMPDEST PUSH2 0x6A2 PUSH1 0x4 DUP1 CALLDATASIZE SUB PUSH1 0x20 DUP2 LT ISZERO PUSH2 0x676 JUMPI PUSH1 0x0 DUP1 PUSH2 0x673 PUSH2 0x245E JUMP JUMPDEST POP POP JUMPDEST DUP2 ADD SWAP1 DUP1 DUP1 CALLDATALOAD PUSH20 0xFFFFFFFFFFFFFFFFFFFFFFFFFFFFFFFFFFFFFFFF AND SWAP1 PUSH1 0x20 ADD SWAP1 SWAP3 SWAP2 SWAP1 POP POP POP PUSH2 0x1776 JUMP JUMPDEST STOP JUMPDEST PUSH1 0x0 PUSH2 0x792 PUSH1 0xC PUSH1 0x0 DUP5 PUSH20 0xFFFFFFFFFFFFFFFFFFFFFFFFFFFFFFFFFFFFFFFF AND PUSH20 0xFFFFFFFFFFFFFFFFFFFFFFFFFFFFFFFFFFFFFFFF AND DUP2 MSTORE PUSH1 0x20 ADD SWAP1 DUP2 MSTORE PUSH1 0x20 ADD PUSH1 0x0 KECCAK256 PUSH2 0x6F0 PUSH2 0x24CC JUMP JUMPDEST PUSH2 0x784 PUSH8 0xDE0B6B3A7640000 PUSH2 0x776 PUSH2 0x75F PUSH1 0xB PUSH1 0x0 DUP10 PUSH20 0xFFFFFFFFFFFFFFFFFFFFFFFFFFFFFFFFFFFFFFFF AND PUSH20 0xFFFFFFFFFFFFFFFFFFFFFFFFFFFFFFFFFFFFFFFF AND DUP2 MSTORE PUSH1 0x20 ADD SWAP1 DUP2 MSTORE PUSH1 0x20 ADD PUSH1 0x0 KECCAK256 PUSH2 0x749 PUSH2 0x24CC JUMP JUMPDEST PUSH2 0x751 PUSH2 0x162C JUMP JUMPDEST PUSH2 0x1805 SWAP1 SWAP2 SWAP1 PUSH4 0xFFFFFFFF AND JUMP JUMPDEST PUSH2 0x768 DUP9 PUSH2 0x1196 JUMP JUMPDEST PUSH2 0x184F SWAP1 SWAP2 SWAP1 PUSH4 0xFFFFFFFF AND JUMP JUMPDEST PUSH2 0x18DE SWAP1 SWAP2 SWAP1 PUSH4 0xFFFFFFFF AND JUMP JUMPDEST PUSH2 0x1928 SWAP1 SWAP2 SWAP1 PUSH4 0xFFFFFFFF AND JUMP JUMPDEST SWAP1 POP SWAP2 SWAP1 POP JUMP JUMPDEST PUSH1 0xC PUSH1 0x20 MSTORE DUP1 PUSH1 0x0 MSTORE PUSH1 0x40 PUSH1 0x0 KECCAK256 PUSH1 0x0 SWAP2 POP SWAP1 POP PUSH2 0x7B5 PUSH2 0x24CC JUMP JUMPDEST DUP2 JUMP JUMPDEST PUSH2 0x7C0 PUSH2 0x13C0 JUMP JUMPDEST PUSH2 0x83B JUMPI PUSH1 0x40 MLOAD PUSH32 0x8C379A000000000000000000000000000000000000000000000000000000000 DUP2 MSTORE PUSH1 0x4 ADD DUP1 DUP1 PUSH1 0x20 ADD DUP3 DUP2 SUB DUP3 MSTORE PUSH1 0x20 DUP2 MSTORE PUSH1 0x20 ADD DUP1 PUSH32 0x4F776E61626C653A2063616C6C6572206973206E6F7420746865206F776E6572 DUP2 MSTORE POP PUSH1 0x20 ADD SWAP2 POP POP PUSH1 0x40 MLOAD DUP1 SWAP2 SUB SWAP1 PUSH2 0x838 PUSH2 0x245E JUMP JUMPDEST POP POP JUMPDEST PUSH1 0x0 PUSH1 0x5 PUSH1 0x0 DUP4 PUSH20 0xFFFFFFFFFFFFFFFFFFFFFFFFFFFFFFFFFFFFFFFF AND PUSH20 0xFFFFFFFFFFFFFFFFFFFFFFFFFFFFFFFFFFFFFFFF AND DUP2 MSTORE PUSH1 0x20 ADD SWAP1 DUP2 MSTORE PUSH1 0x20 ADD PUSH1 0x0 KECCAK256 PUSH1 0x0 PUSH2 0x100 EXP DUP2 PUSH2 0x88B PUSH2 0x24CC JUMP JUMPDEST DUP2 PUSH1 0xFF MUL NOT AND SWAP1 DUP4 ISZERO ISZERO MUL OR SWAP1 PUSH2 0x8A0 PUSH2 0x252F JUMP JUMPDEST POP POP PUSH2 0x91D JUMPI PUSH1 0x40 MLOAD PUSH32 0x8C379A000000000000000000000000000000000000000000000000000000000 DUP2 MSTORE PUSH1 0x4 ADD DUP1 DUP1 PUSH1 0x20 ADD DUP3 DUP2 SUB DUP3 MSTORE PUSH1 0x19 DUP2 MSTORE PUSH1 0x20 ADD DUP1 PUSH32 0x4164647265737320697320686173206265656E20616464656400000000000000 DUP2 MSTORE POP PUSH1 0x20 ADD SWAP2 POP POP PUSH1 0x40 MLOAD DUP1 SWAP2 SUB SWAP1 PUSH2 0x91A PUSH2 0x245E JUMP JUMPDEST POP POP JUMPDEST DUP1 PUSH1 0x4 PUSH1 0x0 PUSH2 0x100 EXP DUP2 PUSH2 0x92F PUSH2 0x24CC JUMP JUMPDEST DUP2 PUSH20 0xFFFFFFFFFFFFFFFFFFFFFFFFFFFFFFFFFFFFFFFF MUL NOT AND SWAP1 DUP4 PUSH20 0xFFFFFFFFFFFFFFFFFFFFFFFFFFFFFFFFFFFFFFFF AND MUL OR SWAP1 PUSH2 0x96B PUSH2 0x252F JUMP JUMPDEST POP POP POP PUSH1 0x1 PUSH1 0x5 PUSH1 0x0 PUSH1 0x4 PUSH1 0x0 SWAP1 PUSH2 0x981 PUSH2 0x24CC JUMP JUMPDEST SWAP1 PUSH2 0x100 EXP SWAP1 DIV PUSH20 0xFFFFFFFFFFFFFFFFFFFFFFFFFFFFFFFFFFFFFFFF AND PUSH20 0xFFFFFFFFFFFFFFFFFFFFFFFFFFFFFFFFFFFFFFFF AND PUSH20 0xFFFFFFFFFFFFFFFFFFFFFFFFFFFFFFFFFFFFFFFF AND DUP2 MSTORE PUSH1 0x20 ADD SWAP1 DUP2 MSTORE PUSH1 0x20 ADD PUSH1 0x0 KECCAK256 PUSH1 0x0 PUSH2 0x100 EXP DUP2 PUSH2 0x9E7 PUSH2 0x24CC JUMP JUMPDEST DUP2 PUSH1 0xFF MUL NOT AND SWAP1 DUP4 ISZERO ISZERO MUL OR SWAP1 PUSH2 0x9FC PUSH2 0x252F JUMP JUMPDEST POP POP POP POP JUMP JUMPDEST PUSH1 0x4 PUSH1 0x0 SWAP1 PUSH2 0xA0F PUSH2 0x24CC JUMP JUMPDEST SWAP1 PUSH2 0x100 EXP SWAP1 DIV PUSH20 0xFFFFFFFFFFFFFFFFFFFFFFFFFFFFFFFFFFFFFFFF AND DUP2 JUMP JUMPDEST PUSH1 0x0 PUSH1 0x1 PUSH2 0xA3B PUSH2 0x24CC JUMP JUMPDEST SWAP1 POP SWAP1 JUMP JUMPDEST PUSH3 0x93A80 DUP2 JUMP JUMPDEST GAS PUSH2 0xA50 PUSH2 0x2594 JUMP JUMPDEST PUSH2 0xA58 PUSH2 0x162C JUMP JUMPDEST PUSH1 0xA DUP2 SWAP1 PUSH2 0xA64 PUSH2 0x252F JUMP JUMPDEST POP POP POP PUSH2 0xA6F PUSH2 0x134E JUMP JUMPDEST PUSH1 0x9 DUP2 SWAP1 PUSH2 0xA7B PUSH2 0x252F JUMP JUMPDEST POP POP POP PUSH1 0x0 PUSH20 0xFFFFFFFFFFFFFFFFFFFFFFFFFFFFFFFFFFFFFFFF AND DUP2 PUSH20 0xFFFFFFFFFFFFFFFFFFFFFFFFFFFFFFFFFFFFFFFF AND EQ PUSH2 0xB5E JUMPI PUSH2 0xABB DUP2 PUSH2 0x6A4 JUMP JUMPDEST PUSH1 0xC PUSH1 0x0 DUP4 PUSH20 0xFFFFFFFFFFFFFFFFFFFFFFFFFFFFFFFFFFFFFFFF AND PUSH20 0xFFFFFFFFFFFFFFFFFFFFFFFFFFFFFFFFFFFFFFFF AND DUP2 MSTORE PUSH1 0x20 ADD SWAP1 DUP2 MSTORE PUSH1 0x20 ADD PUSH1 0x0 KECCAK256 DUP2 SWAP1 PUSH2 0xB04 PUSH2 0x252F JUMP JUMPDEST POP POP POP PUSH1 0xA PUSH2 0xB11 PUSH2 0x24CC JUMP JUMPDEST PUSH1 0xB PUSH1 0x0 DUP4 PUSH20 0xFFFFFFFFFFFFFFFFFFFFFFFFFFFFFFFFFFFFFFFF AND PUSH20 0xFFFFFFFFFFFFFFFFFFFFFFFFFFFFFFFFFFFFFFFF AND DUP2 MSTORE PUSH1 0x20 ADD SWAP1 DUP2 MSTORE PUSH1 0x20 ADD PUSH1 0x0 KECCAK256 DUP2 SWAP1 PUSH2 0xB5A PUSH2 0x252F JUMP JUMPDEST POP POP POP JUMPDEST PUSH1 0x0 DUP3 GT PUSH2 0xBDD JUMPI PUSH1 0x40 MLOAD PUSH32 0x8C379A000000000000000000000000000000000000000000000000000000000 DUP2 MSTORE PUSH1 0x4 ADD DUP1 DUP1 PUSH1 0x20 ADD DUP3 DUP2 SUB DUP3 MSTORE PUSH1 0x11 DUP2 MSTORE PUSH1 0x20 ADD DUP1 PUSH32 0x43616E6E6F742077697468647261772030000000000000000000000000000000 DUP2 MSTORE POP PUSH1 0x20 ADD SWAP2 POP POP PUSH1 0x40 MLOAD DUP1 SWAP2 SUB SWAP1 PUSH2 0xBDA PUSH2 0x245E JUMP JUMPDEST POP POP JUMPDEST PUSH2 0xBE6 DUP3 PUSH2 0x19B9 JUMP JUMPDEST GAS PUSH2 0xBEF PUSH2 0x2594 JUMP JUMPDEST PUSH20 0xFFFFFFFFFFFFFFFFFFFFFFFFFFFFFFFFFFFFFFFF AND PUSH32 0x7084F5476618D8E60B11EF0D7D3F06914655ADB8793E28FF7F018D4C76D505D5 DUP4 PUSH1 0x40 MLOAD DUP1 DUP3 DUP2 MSTORE PUSH1 0x20 ADD SWAP2 POP POP PUSH1 0x40 MLOAD DUP1 SWAP2 SUB SWAP1 LOG2 POP POP JUMP JUMPDEST PUSH1 0x1 ISZERO ISZERO PUSH1 0x5 PUSH1 0x0 PUSH2 0xC50 PUSH2 0x1AF7 JUMP JUMPDEST PUSH20 0xFFFFFFFFFFFFFFFFFFFFFFFFFFFFFFFFFFFFFFFF AND PUSH20 0xFFFFFFFFFFFFFFFFFFFFFFFFFFFFFFFFFFFFFFFF AND DUP2 MSTORE PUSH1 0x20 ADD SWAP1 DUP2 MSTORE PUSH1 0x20 ADD PUSH1 0x0 KECCAK256 PUSH1 0x0 SWAP1 PUSH2 0xC95 PUSH2 0x24CC JUMP JUMPDEST SWAP1 PUSH2 0x100 EXP SWAP1 DIV PUSH1 0xFF AND ISZERO ISZERO EQ PUSH2 0xD00 JUMPI PUSH1 0x40 MLOAD PUSH32 0x8C379A000000000000000000000000000000000000000000000000000000000 DUP2 MSTORE PUSH1 0x4 ADD DUP1 DUP1 PUSH1 0x20 ADD DUP3 DUP2 SUB DUP3 MSTORE PUSH1 0x21 DUP2 MSTORE PUSH1 0x20 ADD DUP1 PUSH2 0x27F9 PUSH1 0x21 SWAP2 CODECOPY PUSH1 0x40 ADD SWAP2 POP POP PUSH1 0x40 MLOAD DUP1 SWAP2 SUB SWAP1 PUSH2 0xCFD PUSH2 0x245E JUMP JUMPDEST POP POP JUMPDEST PUSH1 0x0 PUSH2 0xD0A PUSH2 0x162C JUMP JUMPDEST PUSH1 0xA DUP2 SWAP1 PUSH2 0xD16 PUSH2 0x252F JUMP JUMPDEST POP POP POP PUSH2 0xD21 PUSH2 0x134E JUMP JUMPDEST PUSH1 0x9 DUP2 SWAP1 PUSH2 0xD2D PUSH2 0x252F JUMP JUMPDEST POP POP POP PUSH1 0x0 PUSH20 0xFFFFFFFFFFFFFFFFFFFFFFFFFFFFFFFFFFFFFFFF AND DUP2 PUSH20 0xFFFFFFFFFFFFFFFFFFFFFFFFFFFFFFFFFFFFFFFF AND EQ PUSH2 0xE10 JUMPI PUSH2 0xD6D DUP2 PUSH2 0x6A4 JUMP JUMPDEST PUSH1 0xC PUSH1 0x0 DUP4 PUSH20 0xFFFFFFFFFFFFFFFFFFFFFFFFFFFFFFFFFFFFFFFF AND PUSH20 0xFFFFFFFFFFFFFFFFFFFFFFFFFFFFFFFFFFFFFFFF AND DUP2 MSTORE PUSH1 0x20 ADD SWAP1 DUP2 MSTORE PUSH1 0x20 ADD PUSH1 0x0 KECCAK256 DUP2 SWAP1 PUSH2 0xDB6 PUSH2 0x252F JUMP JUMPDEST POP POP POP PUSH1 0xA PUSH2 0xDC3 PUSH2 0x24CC JUMP JUMPDEST PUSH1 0xB PUSH1 0x0 DUP4 PUSH20 0xFFFFFFFFFFFFFFFFFFFFFFFFFFFFFFFFFFFFFFFF AND PUSH20 0xFFFFFFFFFFFFFFFFFFFFFFFFFFFFFFFFFFFFFFFF AND DUP2 MSTORE PUSH1 0x20 ADD SWAP1 DUP2 MSTORE PUSH1 0x20 ADD PUSH1 0x0 KECCAK256 DUP2 SWAP1 PUSH2 0xE0C PUSH2 0x252F JUMP JUMPDEST POP POP POP JUMPDEST PUSH1 0x7 PUSH2 0xE1A PUSH2 0x24CC JUMP JUMPDEST GAS PUSH2 0xE23 PUSH2 0x25F1 JUMP JUMPDEST LT PUSH2 0xE52 JUMPI PUSH2 0xE3E PUSH3 0x93A80 DUP4 PUSH2 0x18DE SWAP1 SWAP2 SWAP1 PUSH4 0xFFFFFFFF AND JUMP JUMPDEST PUSH1 0x8 DUP2 SWAP1 PUSH2 0xE4A PUSH2 0x252F JUMP JUMPDEST POP POP POP PUSH2 0xED4 JUMP JUMPDEST PUSH1 0x0 PUSH2 0xE78 GAS PUSH2 0xE60 PUSH2 0x25F1 JUMP JUMPDEST PUSH1 0x7 PUSH2 0xE6A PUSH2 0x24CC JUMP JUMPDEST PUSH2 0x1805 SWAP1 SWAP2 SWAP1 PUSH4 0xFFFFFFFF AND JUMP JUMPDEST SWAP1 POP PUSH1 0x0 PUSH2 0xE98 PUSH1 0x8 PUSH2 0xE89 PUSH2 0x24CC JUMP JUMPDEST DUP4 PUSH2 0x184F SWAP1 SWAP2 SWAP1 PUSH4 0xFFFFFFFF AND JUMP JUMPDEST SWAP1 POP PUSH2 0xEC2 PUSH3 0x93A80 PUSH2 0xEB4 DUP4 DUP8 PUSH2 0x1928 SWAP1 SWAP2 SWAP1 PUSH4 0xFFFFFFFF AND JUMP JUMPDEST PUSH2 0x18DE SWAP1 SWAP2 SWAP1 PUSH4 0xFFFFFFFF AND JUMP JUMPDEST PUSH1 0x8 DUP2 SWAP1 PUSH2 0xECE PUSH2 0x252F JUMP JUMPDEST POP POP POP POP POP JUMPDEST GAS PUSH2 0xEDD PUSH2 0x25F1 JUMP JUMPDEST PUSH1 0x9 DUP2 SWAP1 PUSH2 0xEE9 PUSH2 0x252F JUMP JUMPDEST POP POP POP PUSH2 0xF0A PUSH3 0x93A80 GAS PUSH2 0xEFC PUSH2 0x25F1 JUMP JUMPDEST PUSH2 0x1928 SWAP1 SWAP2 SWAP1 PUSH4 0xFFFFFFFF AND JUMP JUMPDEST PUSH1 0x7 DUP2 SWAP1 PUSH2 0xF16 PUSH2 0x252F JUMP JUMPDEST POP POP POP PUSH32 0xDE88A922E0D3B88B24E9623EFEB464919C6BF9F66857A65E2BFCF2CE87A9433D DUP3 PUSH1 0x40 MLOAD DUP1 DUP3 DUP2 MSTORE PUSH1 0x20 ADD SWAP2 POP POP PUSH1 0x40 MLOAD DUP1 SWAP2 SUB SWAP1 LOG1 POP POP JUMP JUMPDEST GAS PUSH2 0xF5D PUSH2 0x2594 JUMP JUMPDEST PUSH2 0xF65 PUSH2 0x162C JUMP JUMPDEST PUSH1 0xA DUP2 SWAP1 PUSH2 0xF71 PUSH2 0x252F JUMP JUMPDEST POP POP POP PUSH2 0xF7C PUSH2 0x134E JUMP JUMPDEST PUSH1 0x9 DUP2 SWAP1 PUSH2 0xF88 PUSH2 0x252F JUMP JUMPDEST POP POP POP PUSH1 0x0 PUSH20 0xFFFFFFFFFFFFFFFFFFFFFFFFFFFFFFFFFFFFFFFF AND DUP2 PUSH20 0xFFFFFFFFFFFFFFFFFFFFFFFFFFFFFFFFFFFFFFFF AND EQ PUSH2 0x106B JUMPI PUSH2 0xFC8 DUP2 PUSH2 0x6A4 JUMP JUMPDEST PUSH1 0xC PUSH1 0x0 DUP4 PUSH20 0xFFFFFFFFFFFFFFFFFFFFFFFFFFFFFFFFFFFFFFFF AND PUSH20 0xFFFFFFFFFFFFFFFFFFFFFFFFFFFFFFFFFFFFFFFF AND DUP2 MSTORE PUSH1 0x20 ADD SWAP1 DUP2 MSTORE PUSH1 0x20 ADD PUSH1 0x0 KECCAK256 DUP2 SWAP1 PUSH2 0x1011 PUSH2 0x252F JUMP JUMPDEST POP POP POP PUSH1 0xA PUSH2 0x101E PUSH2 0x24CC JUMP JUMPDEST PUSH1 0xB PUSH1 0x0 DUP4 PUSH20 0xFFFFFFFFFFFFFFFFFFFFFFFFFFFFFFFFFFFFFFFF AND PUSH20 0xFFFFFFFFFFFFFFFFFFFFFFFFFFFFFFFFFFFFFFFF AND DUP2 MSTORE PUSH1 0x20 ADD SWAP1 DUP2 MSTORE PUSH1 0x20 ADD PUSH1 0x0 KECCAK256 DUP2 SWAP1 PUSH2 0x1067 PUSH2 0x252F JUMP JUMPDEST POP POP POP JUMPDEST PUSH1 0x0 PUSH2 0x107E GAS PUSH2 0x1079 PUSH2 0x2594 JUMP JUMPDEST PUSH2 0x6A4 JUMP JUMPDEST SWAP1 POP PUSH1 0x0 DUP2 GT ISZERO PUSH2 0x1192 JUMPI PUSH1 0x0 PUSH1 0xC PUSH1 0x0 GAS PUSH2 0x1098 PUSH2 0x2594 JUMP JUMPDEST PUSH20 0xFFFFFFFFFFFFFFFFFFFFFFFFFFFFFFFFFFFFFFFF AND PUSH20 0xFFFFFFFFFFFFFFFFFFFFFFFFFFFFFFFFFFFFFFFF AND DUP2 MSTORE PUSH1 0x20 ADD SWAP1 DUP2 MSTORE PUSH1 0x20 ADD PUSH1 0x0 KECCAK256 DUP2 SWAP1 PUSH2 0x10DC PUSH2 0x252F JUMP JUMPDEST POP POP POP PUSH2 0x113B GAS PUSH2 0x10EB PUSH2 0x2594 JUMP JUMPDEST DUP3 PUSH1 0x6 PUSH1 0x0 SWAP1 PUSH2 0x10F9 PUSH2 0x24CC JUMP JUMPDEST SWAP1 PUSH2 0x100 EXP SWAP1 DIV PUSH20 0xFFFFFFFFFFFFFFFFFFFFFFFFFFFFFFFFFFFFFFFF AND PUSH20 0xFFFFFFFFFFFFFFFFFFFFFFFFFFFFFFFFFFFFFFFF AND PUSH2 0x1B07 SWAP1 SWAP3 SWAP2 SWAP1 PUSH4 0xFFFFFFFF AND JUMP JUMPDEST GAS PUSH2 0x1144 PUSH2 0x2594 JUMP JUMPDEST PUSH20 0xFFFFFFFFFFFFFFFFFFFFFFFFFFFFFFFFFFFFFFFF AND PUSH32 0xE2403640BA68FED3A2F88B7557551D1993F84B99BB10FF833F0CF8DB0C5E0486 DUP3 PUSH1 0x40 MLOAD DUP1 DUP3 DUP2 MSTORE PUSH1 0x20 ADD SWAP2 POP POP PUSH1 0x40 MLOAD DUP1 SWAP2 SUB SWAP1 LOG2 JUMPDEST POP POP JUMP JUMPDEST PUSH1 0x0 PUSH1 0x2 PUSH1 0x0 DUP4 PUSH20 0xFFFFFFFFFFFFFFFFFFFFFFFFFFFFFFFFFFFFFFFF AND PUSH20 0xFFFFFFFFFFFFFFFFFFFFFFFFFFFFFFFFFFFFFFFF AND DUP2 MSTORE PUSH1 0x20 ADD SWAP1 DUP2 MSTORE PUSH1 0x20 ADD PUSH1 0x0 KECCAK256 PUSH2 0x11DF PUSH2 0x24CC JUMP JUMPDEST SWAP1 POP SWAP2 SWAP1 POP JUMP JUMPDEST PUSH2 0x11EE PUSH2 0x13C0 JUMP JUMPDEST PUSH2 0x1269 JUMPI PUSH1 0x40 MLOAD PUSH32 0x8C379A000000000000000000000000000000000000000000000000000000000 DUP2 MSTORE PUSH1 0x4 ADD DUP1 DUP1 PUSH1 0x20 ADD DUP3 DUP2 SUB DUP3 MSTORE PUSH1 0x20 DUP2 MSTORE PUSH1 0x20 ADD DUP1 PUSH32 0x4F776E61626C653A2063616C6C6572206973206E6F7420746865206F776E6572 DUP2 MSTORE POP PUSH1 0x20 ADD SWAP2 POP POP PUSH1 0x40 MLOAD DUP1 SWAP2 SUB SWAP1 PUSH2 0x1266 PUSH2 0x245E JUMP JUMPDEST POP POP JUMPDEST PUSH1 0x0 PUSH20 0xFFFFFFFFFFFFFFFFFFFFFFFFFFFFFFFFFFFFFFFF AND PUSH1 0x3 PUSH1 0x0 SWAP1 PUSH2 0x128E PUSH2 0x24CC JUMP JUMPDEST SWAP1 PUSH2 0x100 EXP SWAP1 DIV PUSH20 0xFFFFFFFFFFFFFFFFFFFFFFFFFFFFFFFFFFFFFFFF AND PUSH20 0xFFFFFFFFFFFFFFFFFFFFFFFFFFFFFFFFFFFFFFFF AND PUSH32 0x8BE0079C531659141344CD1FD0A4F28419497F9722A3DAAFE3B4186F6B6457E0 PUSH1 0x40 MLOAD PUSH1 0x40 MLOAD DUP1 SWAP2 SUB SWAP1 LOG3 PUSH1 0x0 PUSH1 0x3 PUSH1 0x0 PUSH2 0x100 EXP DUP2 PUSH2 0x1300 PUSH2 0x24CC JUMP JUMPDEST DUP2 PUSH20 0xFFFFFFFFFFFFFFFFFFFFFFFFFFFFFFFFFFFFFFFF MUL NOT AND SWAP1 DUP4 PUSH20 0xFFFFFFFFFFFFFFFFFFFFFFFFFFFFFFFFFFFFFFFF AND MUL OR SWAP1 PUSH2 0x133C PUSH2 0x252F JUMP JUMPDEST POP POP POP JUMP JUMPDEST PUSH1 0x8 PUSH2 0x134B PUSH2 0x24CC JUMP JUMPDEST DUP2 JUMP JUMPDEST PUSH1 0x0 PUSH2 0x136B GAS PUSH2 0x135C PUSH2 0x25F1 JUMP JUMPDEST PUSH1 0x7 PUSH2 0x1366 PUSH2 0x24CC JUMP JUMPDEST PUSH2 0x1BD8 JUMP JUMPDEST SWAP1 POP SWAP1 JUMP JUMPDEST PUSH1 0xB PUSH1 0x20 MSTORE DUP1 PUSH1 0x0 MSTORE PUSH1 0x40 PUSH1 0x0 KECCAK256 PUSH1 0x0 SWAP2 POP SWAP1 POP PUSH2 0x138C PUSH2 0x24CC JUMP JUMPDEST DUP2 JUMP JUMPDEST PUSH1 0x0 PUSH1 0x3 PUSH1 0x0 SWAP1 PUSH2 0x139E PUSH2 0x24CC JUMP JUMPDEST SWAP1 PUSH2 0x100 EXP SWAP1 DIV PUSH20 0xFFFFFFFFFFFFFFFFFFFFFFFFFFFFFFFFFFFFFFFF AND SWAP1 POP SWAP1 JUMP JUMPDEST PUSH1 0x0 PUSH1 0x3 PUSH1 0x0 SWAP1 PUSH2 0x13CF PUSH2 0x24CC JUMP JUMPDEST SWAP1 PUSH2 0x100 EXP SWAP1 DIV PUSH20 0xFFFFFFFFFFFFFFFFFFFFFFFFFFFFFFFFFFFFFFFF AND PUSH20 0xFFFFFFFFFFFFFFFFFFFFFFFFFFFFFFFFFFFFFFFF AND PUSH2 0x140A PUSH2 0x1AF7 JUMP JUMPDEST PUSH20 0xFFFFFFFFFFFFFFFFFFFFFFFFFFFFFFFFFFFFFFFF AND EQ SWAP1 POP SWAP1 JUMP JUMPDEST GAS PUSH2 0x142F PUSH2 0x2594 JUMP JUMPDEST PUSH2 0x1437 PUSH2 0x162C JUMP JUMPDEST PUSH1 0xA DUP2 SWAP1 PUSH2 0x1443 PUSH2 0x252F JUMP JUMPDEST POP POP POP PUSH2 0x144E PUSH2 0x134E JUMP JUMPDEST PUSH1 0x9 DUP2 SWAP1 PUSH2 0x145A PUSH2 0x252F JUMP JUMPDEST POP POP POP PUSH1 0x0 PUSH20 0xFFFFFFFFFFFFFFFFFFFFFFFFFFFFFFFFFFFFFFFF AND DUP2 PUSH20 0xFFFFFFFFFFFFFFFFFFFFFFFFFFFFFFFFFFFFFFFF AND EQ PUSH2 0x153D JUMPI PUSH2 0x149A DUP2 PUSH2 0x6A4 JUMP JUMPDEST PUSH1 0xC PUSH1 0x0 DUP4 PUSH20 0xFFFFFFFFFFFFFFFFFFFFFFFFFFFFFFFFFFFFFFFF AND PUSH20 0xFFFFFFFFFFFFFFFFFFFFFFFFFFFFFFFFFFFFFFFF AND DUP2 MSTORE PUSH1 0x20 ADD SWAP1 DUP2 MSTORE PUSH1 0x20 ADD PUSH1 0x0 KECCAK256 DUP2 SWAP1 PUSH2 0x14E3 PUSH2 0x252F JUMP JUMPDEST POP POP POP PUSH1 0xA PUSH2 0x14F0 PUSH2 0x24CC JUMP JUMPDEST PUSH1 0xB PUSH1 0x0 DUP4 PUSH20 0xFFFFFFFFFFFFFFFFFFFFFFFFFFFFFFFFFFFFFFFF AND PUSH20 0xFFFFFFFFFFFFFFFFFFFFFFFFFFFFFFFFFFFFFFFF AND DUP2 MSTORE PUSH1 0x20 ADD SWAP1 DUP2 MSTORE PUSH1 0x20 ADD PUSH1 0x0 KECCAK256 DUP2 SWAP1 PUSH2 0x1539 PUSH2 0x252F JUMP JUMPDEST POP POP POP JUMPDEST PUSH1 0x0 DUP3 GT PUSH2 0x15BC JUMPI PUSH1 0x40 MLOAD PUSH32 0x8C379A000000000000000000000000000000000000000000000000000000000 DUP2 MSTORE PUSH1 0x4 ADD DUP1 DUP1 PUSH1 0x20 ADD DUP3 DUP2 SUB DUP3 MSTORE PUSH1 0xE DUP2 MSTORE PUSH1 0x20 ADD DUP1 PUSH32 0x43616E6E6F74207374616B652030000000000000000000000000000000000000 DUP2 MSTORE POP PUSH1 0x20 ADD SWAP2 POP POP PUSH1 0x40 MLOAD DUP1 SWAP2 SUB SWAP1 PUSH2 0x15B9 PUSH2 0x245E JUMP JUMPDEST POP POP JUMPDEST PUSH2 0x15C5 DUP3 PUSH2 0x1BF1 JUMP JUMPDEST GAS PUSH2 0x15CE PUSH2 0x2594 JUMP JUMPDEST PUSH20 0xFFFFFFFFFFFFFFFFFFFFFFFFFFFFFFFFFFFFFFFF AND PUSH32 0x9E71BC8EEA02A63969F509818F2DAFB9254532904319F9DBDA79B67BD34A5F3D DUP4 PUSH1 0x40 MLOAD DUP1 DUP3 DUP2 MSTORE PUSH1 0x20 ADD SWAP2 POP POP PUSH1 0x40 MLOAD DUP1 SWAP2 SUB SWAP1 LOG2 POP POP JUMP JUMPDEST PUSH1 0x9 PUSH2 0x1629 PUSH2 0x24CC JUMP JUMPDEST DUP2 JUMP JUMPDEST PUSH1 0x0 DUP1 PUSH2 0x1637 PUSH2 0xA2F JUMP JUMPDEST EQ ISZERO PUSH2 0x164E JUMPI PUSH1 0xA PUSH2 0x1647 PUSH2 0x24CC JUMP JUMPDEST SWAP1 POP PUSH2 0x16DD JUMP JUMPDEST PUSH2 0x16DA PUSH2 0x16C2 PUSH2 0x165C PUSH2 0xA2F JUMP JUMPDEST PUSH2 0x16B4 PUSH8 0xDE0B6B3A7640000 PUSH2 0x16A6 PUSH1 0x8 PUSH2 0x1675 PUSH2 0x24CC JUMP JUMPDEST PUSH2 0x1698 PUSH1 0x9 PUSH2 0x1682 PUSH2 0x24CC JUMP JUMPDEST PUSH2 0x168A PUSH2 0x134E JUMP JUMPDEST PUSH2 0x1805 SWAP1 SWAP2 SWAP1 PUSH4 0xFFFFFFFF AND JUMP JUMPDEST PUSH2 0x184F SWAP1 SWAP2 SWAP1 PUSH4 0xFFFFFFFF AND JUMP JUMPDEST PUSH2 0x184F SWAP1 SWAP2 SWAP1 PUSH4 0xFFFFFFFF AND JUMP JUMPDEST PUSH2 0x18DE SWAP1 SWAP2 SWAP1 PUSH4 0xFFFFFFFF AND JUMP JUMPDEST PUSH1 0xA PUSH2 0x16CC PUSH2 0x24CC JUMP JUMPDEST PUSH2 0x1928 SWAP1 SWAP2 SWAP1 PUSH4 0xFFFFFFFF AND JUMP JUMPDEST SWAP1 POP JUMPDEST SWAP1 JUMP JUMPDEST PUSH1 0xA PUSH2 0x16EA PUSH2 0x24CC JUMP JUMPDEST DUP2 JUMP JUMPDEST PUSH1 0x6 PUSH1 0x0 SWAP1 PUSH2 0x16FA PUSH2 0x24CC JUMP JUMPDEST SWAP1 PUSH2 0x100 EXP SWAP1 DIV PUSH20 0xFFFFFFFFFFFFFFFFFFFFFFFFFFFFFFFFFFFFFFFF AND DUP2 JUMP JUMPDEST PUSH2 0x1733 PUSH2 0x172E GAS PUSH2 0x1729 PUSH2 0x2594 JUMP JUMPDEST PUSH2 0x1196 JUMP JUMPDEST PUSH2 0xA47 JUMP JUMPDEST PUSH2 0x173B PUSH2 0xF54 JUMP JUMPDEST JUMP JUMPDEST PUSH1 0x7 PUSH2 0x1747 PUSH2 0x24CC JUMP JUMPDEST DUP2 JUMP JUMPDEST PUSH1 0x0 DUP1 SWAP1 PUSH2 0x1756 PUSH2 0x24CC JUMP JUMPDEST SWAP1 PUSH2 0x100 EXP SWAP1 DIV PUSH20 0xFFFFFFFFFFFFFFFFFFFFFFFFFFFFFFFFFFFFFFFF AND DUP2 JUMP JUMPDEST PUSH2 0x177E PUSH2 0x13C0 JUMP JUMPDEST PUSH2 0x17F9 JUMPI PUSH1 0x40 MLOAD PUSH32 0x8C379A000000000000000000000000000000000000000000000000000000000 DUP2 MSTORE PUSH1 0x4 ADD DUP1 DUP1 PUSH1 0x20 ADD DUP3 DUP2 SUB DUP3 MSTORE PUSH1 0x20 DUP2 MSTORE PUSH1 0x20 ADD DUP1 PUSH32 0x4F776E61626C653A2063616C6C6572206973206E6F7420746865206F776E6572 DUP2 MSTORE POP PUSH1 0x20 ADD SWAP2 POP POP PUSH1 0x40 MLOAD DUP1 SWAP2 SUB SWAP1 PUSH2 0x17F6 PUSH2 0x245E JUMP JUMPDEST POP POP JUMPDEST PUSH2 0x1802 DUP2 PUSH2 0x1D8C JUMP JUMPDEST POP JUMP JUMPDEST PUSH1 0x0 PUSH2 0x1847 DUP4 DUP4 PUSH1 0x40 MLOAD DUP1 PUSH1 0x40 ADD PUSH1 0x40 MSTORE DUP1 PUSH1 0x1E DUP2 MSTORE PUSH1 0x20 ADD PUSH32 0x536166654D6174683A207375627472616374696F6E206F766572666C6F770000 DUP2 MSTORE POP PUSH2 0x1EF2 JUMP JUMPDEST SWAP1 POP SWAP3 SWAP2 POP POP JUMP JUMPDEST PUSH1 0x0 DUP1 DUP4 EQ ISZERO PUSH2 0x1862 JUMPI PUSH1 0x0 SWAP1 POP PUSH2 0x18D8 JUMP JUMPDEST PUSH1 0x0 DUP3 DUP5 MUL SWAP1 POP DUP3 DUP5 DUP3 DUP2 PUSH2 0x1873 JUMPI INVALID JUMPDEST DIV EQ PUSH2 0x18D3 JUMPI PUSH1 0x40 MLOAD PUSH32 0x8C379A000000000000000000000000000000000000000000000000000000000 DUP2 MSTORE PUSH1 0x4 ADD DUP1 DUP1 PUSH1 0x20 ADD DUP3 DUP2 SUB DUP3 MSTORE PUSH1 0x21 DUP2 MSTORE PUSH1 0x20 ADD DUP1 PUSH2 0x27D8 PUSH1 0x21 SWAP2 CODECOPY PUSH1 0x40 ADD SWAP2 POP POP PUSH1 0x40 MLOAD DUP1 SWAP2 SUB SWAP1 PUSH2 0x18D0 PUSH2 0x245E JUMP JUMPDEST POP POP JUMPDEST DUP1 SWAP2 POP POP JUMPDEST SWAP3 SWAP2 POP POP JUMP JUMPDEST PUSH1 0x0 PUSH2 0x1920 DUP4 DUP4 PUSH1 0x40 MLOAD DUP1 PUSH1 0x40 ADD PUSH1 0x40 MSTORE DUP1 PUSH1 0x1A DUP2 MSTORE PUSH1 0x20 ADD PUSH32 0x536166654D6174683A206469766973696F6E206279207A65726F000000000000 DUP2 MSTORE POP PUSH2 0x1FBB JUMP JUMPDEST SWAP1 POP SWAP3 SWAP2 POP POP JUMP JUMPDEST PUSH1 0x0 DUP1 DUP3 DUP5 ADD SWAP1 POP DUP4 DUP2 LT ISZERO PUSH2 0x19AF JUMPI PUSH1 0x40 MLOAD PUSH32 0x8C379A000000000000000000000000000000000000000000000000000000000 DUP2 MSTORE PUSH1 0x4 ADD DUP1 DUP1 PUSH1 0x20 ADD DUP3 DUP2 SUB DUP3 MSTORE PUSH1 0x1B DUP2 MSTORE PUSH1 0x20 ADD DUP1 PUSH32 0x536166654D6174683A206164646974696F6E206F766572666C6F770000000000 DUP2 MSTORE POP PUSH1 0x20 ADD SWAP2 POP POP PUSH1 0x40 MLOAD DUP1 SWAP2 SUB SWAP1 PUSH2 0x19AC PUSH2 0x245E JUMP JUMPDEST POP POP JUMPDEST DUP1 SWAP2 POP POP SWAP3 SWAP2 POP POP JUMP JUMPDEST PUSH2 0x19D5 DUP2 PUSH1 0x1 PUSH2 0x19C7 PUSH2 0x24CC JUMP JUMPDEST PUSH2 0x1805 SWAP1 SWAP2 SWAP1 PUSH4 0xFFFFFFFF AND JUMP JUMPDEST PUSH1 0x1 DUP2 SWAP1 PUSH2 0x19E1 PUSH2 0x252F JUMP JUMPDEST POP POP POP PUSH2 0x1A45 DUP2 PUSH1 0x2 PUSH1 0x0 GAS PUSH2 0x19F5 PUSH2 0x2594 JUMP JUMPDEST PUSH20 0xFFFFFFFFFFFFFFFFFFFFFFFFFFFFFFFFFFFFFFFF AND PUSH20 0xFFFFFFFFFFFFFFFFFFFFFFFFFFFFFFFFFFFFFFFF AND DUP2 MSTORE PUSH1 0x20 ADD SWAP1 DUP2 MSTORE PUSH1 0x20 ADD PUSH1 0x0 KECCAK256 PUSH2 0x1A37 PUSH2 0x24CC JUMP JUMPDEST PUSH2 0x1805 SWAP1 SWAP2 SWAP1 PUSH4 0xFFFFFFFF AND JUMP JUMPDEST PUSH1 0x2 PUSH1 0x0 GAS PUSH2 0x1A52 PUSH2 0x2594 JUMP JUMPDEST PUSH20 0xFFFFFFFFFFFFFFFFFFFFFFFFFFFFFFFFFFFFFFFF AND PUSH20 0xFFFFFFFFFFFFFFFFFFFFFFFFFFFFFFFFFFFFFFFF AND DUP2 MSTORE PUSH1 0x20 ADD SWAP1 DUP2 MSTORE PUSH1 0x20 ADD PUSH1 0x0 KECCAK256 DUP2 SWAP1 PUSH2 0x1A96 PUSH2 0x252F JUMP JUMPDEST POP POP POP PUSH2 0x1AF4 GAS PUSH2 0x1AA5 PUSH2 0x2594 JUMP JUMPDEST DUP3 PUSH1 0x0 DUP1 SWAP1 PUSH2 0x1AB2 PUSH2 0x24CC JUMP JUMPDEST SWAP1 PUSH2 0x100 EXP SWAP1 DIV PUSH20 0xFFFFFFFFFFFFFFFFFFFFFFFFFFFFFFFFFFFFFFFF AND PUSH20 0xFFFFFFFFFFFFFFFFFFFFFFFFFFFFFFFFFFFFFFFF AND PUSH2 0x1B07 SWAP1 SWAP3 SWAP2 SWAP1 PUSH4 0xFFFFFFFF AND JUMP JUMPDEST POP JUMP JUMPDEST PUSH1 0x0 GAS PUSH2 0x1B02 PUSH2 0x2594 JUMP JUMPDEST SWAP1 POP SWAP1 JUMP JUMPDEST PUSH2 0x1BD3 DUP4 DUP5 PUSH20 0xFFFFFFFFFFFFFFFFFFFFFFFFFFFFFFFFFFFFFFFF AND PUSH4 0xA9059CBB SWAP1 POP PUSH1 0xE0 SHL DUP5 DUP5 PUSH1 0x40 MLOAD PUSH1 0x24 ADD DUP1 DUP4 PUSH20 0xFFFFFFFFFFFFFFFFFFFFFFFFFFFFFFFFFFFFFFFF AND PUSH20 0xFFFFFFFFFFFFFFFFFFFFFFFFFFFFFFFFFFFFFFFF AND DUP2 MSTORE PUSH1 0x20 ADD DUP3 DUP2 MSTORE PUSH1 0x20 ADD SWAP3 POP POP POP PUSH1 0x40 MLOAD PUSH1 0x20 DUP2 DUP4 SUB SUB DUP2 MSTORE SWAP1 PUSH1 0x40 MSTORE SWAP1 PUSH28 0xFFFFFFFFFFFFFFFFFFFFFFFFFFFFFFFFFFFFFFFFFFFFFFFFFFFFFFFF NOT AND PUSH1 0x20 DUP3 ADD DUP1 MLOAD PUSH28 0xFFFFFFFFFFFFFFFFFFFFFFFFFFFFFFFFFFFFFFFFFFFFFFFFFFFFFFFF DUP4 DUP2 DUP4 AND OR DUP4 MSTORE POP POP POP POP PUSH2 0x208A JUMP JUMPDEST POP POP POP JUMP JUMPDEST PUSH1 0x0 DUP2 DUP4 LT PUSH2 0x1BE7 JUMPI DUP2 PUSH2 0x1BE9 JUMP JUMPDEST DUP3 JUMPDEST SWAP1 POP SWAP3 SWAP2 POP POP JUMP JUMPDEST PUSH2 0x1C0D DUP2 PUSH1 0x1 PUSH2 0x1BFF PUSH2 0x24CC JUMP JUMPDEST PUSH2 0x1928 SWAP1 SWAP2 SWAP1 PUSH4 0xFFFFFFFF AND JUMP JUMPDEST PUSH1 0x1 DUP2 SWAP1 PUSH2 0x1C19 PUSH2 0x252F JUMP JUMPDEST POP POP POP PUSH2 0x1C7D DUP2 PUSH1 0x2 PUSH1 0x0 GAS PUSH2 0x1C2D PUSH2 0x2594 JUMP JUMPDEST PUSH20 0xFFFFFFFFFFFFFFFFFFFFFFFFFFFFFFFFFFFFFFFF AND PUSH20 0xFFFFFFFFFFFFFFFFFFFFFFFFFFFFFFFFFFFFFFFF AND DUP2 MSTORE PUSH1 0x20 ADD SWAP1 DUP2 MSTORE PUSH1 0x20 ADD PUSH1 0x0 KECCAK256 PUSH2 0x1C6F PUSH2 0x24CC JUMP JUMPDEST PUSH2 0x1928 SWAP1 SWAP2 SWAP1 PUSH4 0xFFFFFFFF AND JUMP JUMPDEST PUSH1 0x2 PUSH1 0x0 GAS PUSH2 0x1C8A PUSH2 0x2594 JUMP JUMPDEST PUSH20 0xFFFFFFFFFFFFFFFFFFFFFFFFFFFFFFFFFFFFFFFF AND PUSH20 0xFFFFFFFFFFFFFFFFFFFFFFFFFFFFFFFFFFFFFFFF AND DUP2 MSTORE PUSH1 0x20 ADD SWAP1 DUP2 MSTORE PUSH1 0x20 ADD PUSH1 0x0 KECCAK256 DUP2 SWAP1 PUSH2 0x1CCE PUSH2 0x252F JUMP JUMPDEST POP POP POP PUSH2 0x1D89 GAS PUSH2 0x1CDD PUSH2 0x2594 JUMP JUMPDEST GAS PUSH4 0x996D79A5 MSIZE DUP2 PUSH1 0xE0 SHL DUP2 MSTORE PUSH1 0x20 DUP2 PUSH1 0x4 DUP4 CALLER PUSH1 0x0 SWAP1 GAS CALL PC PUSH1 0xE ADD JUMPI RETURNDATASIZE PUSH1 0x0 DUP1 RETURNDATACOPY RETURNDATASIZE PUSH1 0x0 REVERT JUMPDEST RETURNDATASIZE PUSH1 0x1 EQ ISZERO PC PUSH1 0xA ADD JUMPI PUSH1 0x1 PUSH1 0x0 RETURN JUMPDEST DUP1 MLOAD SWAP3 POP PUSH1 0x0 JUMPDEST PUSH1 0x40 DUP2 LT ISZERO PUSH2 0x1D36 JUMPI PUSH1 0x0 DUP2 DUP4 ADD MSTORE PUSH1 0x20 DUP2 ADD SWAP1 POP PUSH2 0x1D1C JUMP JUMPDEST POP POP POP DUP4 PUSH1 0x0 DUP1 SWAP1 PUSH2 0x1D46 PUSH2 0x24CC JUMP JUMPDEST SWAP1 PUSH2 0x100 EXP SWAP1 DIV PUSH20 0xFFFFFFFFFFFFFFFFFFFFFFFFFFFFFFFFFFFFFFFF AND PUSH20 0xFFFFFFFFFFFFFFFFFFFFFFFFFFFFFFFFFFFFFFFF AND PUSH2 0x2306 SWAP1 SWAP4 SWAP3 SWAP2 SWAP1 PUSH4 0xFFFFFFFF AND JUMP JUMPDEST POP JUMP JUMPDEST PUSH1 0x0 PUSH20 0xFFFFFFFFFFFFFFFFFFFFFFFFFFFFFFFFFFFFFFFF AND DUP2 PUSH20 0xFFFFFFFFFFFFFFFFFFFFFFFFFFFFFFFFFFFFFFFF AND EQ ISZERO PUSH2 0x1E1B JUMPI PUSH1 0x40 MLOAD PUSH32 0x8C379A000000000000000000000000000000000000000000000000000000000 DUP2 MSTORE PUSH1 0x4 ADD DUP1 DUP1 PUSH1 0x20 ADD DUP3 DUP2 SUB DUP3 MSTORE PUSH1 0x26 DUP2 MSTORE PUSH1 0x20 ADD DUP1 PUSH2 0x27B2 PUSH1 0x26 SWAP2 CODECOPY PUSH1 0x40 ADD SWAP2 POP POP PUSH1 0x40 MLOAD DUP1 SWAP2 SUB SWAP1 PUSH2 0x1E18 PUSH2 0x245E JUMP JUMPDEST POP POP JUMPDEST DUP1 PUSH20 0xFFFFFFFFFFFFFFFFFFFFFFFFFFFFFFFFFFFFFFFF AND PUSH1 0x3 PUSH1 0x0 SWAP1 PUSH2 0x1E3F PUSH2 0x24CC JUMP JUMPDEST SWAP1 PUSH2 0x100 EXP SWAP1 DIV PUSH20 0xFFFFFFFFFFFFFFFFFFFFFFFFFFFFFFFFFFFFFFFF AND PUSH20 0xFFFFFFFFFFFFFFFFFFFFFFFFFFFFFFFFFFFFFFFF AND PUSH32 0x8BE0079C531659141344CD1FD0A4F28419497F9722A3DAAFE3B4186F6B6457E0 PUSH1 0x40 MLOAD PUSH1 0x40 MLOAD DUP1 SWAP2 SUB SWAP1 LOG3 DUP1 PUSH1 0x3 PUSH1 0x0 PUSH2 0x100 EXP DUP2 PUSH2 0x1EB0 PUSH2 0x24CC JUMP JUMPDEST DUP2 PUSH20 0xFFFFFFFFFFFFFFFFFFFFFFFFFFFFFFFFFFFFFFFF MUL NOT AND SWAP1 DUP4 PUSH20 0xFFFFFFFFFFFFFFFFFFFFFFFFFFFFFFFFFFFFFFFF AND MUL OR SWAP1 PUSH2 0x1EEC PUSH2 0x252F JUMP JUMPDEST POP POP POP POP JUMP JUMPDEST PUSH1 0x0 DUP4 DUP4 GT ISZERO DUP3 SWAP1 PUSH2 0x1FA8 JUMPI PUSH1 0x40 MLOAD PUSH32 0x8C379A000000000000000000000000000000000000000000000000000000000 DUP2 MSTORE PUSH1 0x4 ADD DUP1 DUP1 PUSH1 0x20 ADD DUP3 DUP2 SUB DUP3 MSTORE DUP4 DUP2 DUP2 MLOAD DUP2 MSTORE PUSH1 0x20 ADD SWAP2 POP DUP1 MLOAD SWAP1 PUSH1 0x20 ADD SWAP1 DUP1 DUP4 DUP4 PUSH1 0x0 JUMPDEST DUP4 DUP2 LT ISZERO PUSH2 0x1F64 JUMPI DUP1 DUP3 ADD MLOAD DUP2 DUP5 ADD MSTORE PUSH1 0x20 DUP2 ADD SWAP1 POP PUSH2 0x1F49 JUMP JUMPDEST POP POP POP POP SWAP1 POP SWAP1 DUP2 ADD SWAP1 PUSH1 0x1F AND DUP1 ISZERO PUSH2 0x1F91 JUMPI DUP1 DUP3 SUB DUP1 MLOAD PUSH1 0x1 DUP4 PUSH1 0x20 SUB PUSH2 0x100 EXP SUB NOT AND DUP2 MSTORE PUSH1 0x20 ADD SWAP2 POP JUMPDEST POP SWAP3 POP POP POP PUSH1 0x40 MLOAD DUP1 SWAP2 SUB SWAP1 PUSH2 0x1FA5 PUSH2 0x245E JUMP JUMPDEST POP POP JUMPDEST POP PUSH1 0x0 DUP4 DUP6 SUB SWAP1 POP DUP1 SWAP2 POP POP SWAP4 SWAP3 POP POP POP JUMP JUMPDEST PUSH1 0x0 DUP1 DUP4 GT DUP3 SWAP1 PUSH2 0x2070 JUMPI PUSH1 0x40 MLOAD PUSH32 0x8C379A000000000000000000000000000000000000000000000000000000000 DUP2 MSTORE PUSH1 0x4 ADD DUP1 DUP1 PUSH1 0x20 ADD DUP3 DUP2 SUB DUP3 MSTORE DUP4 DUP2 DUP2 MLOAD DUP2 MSTORE PUSH1 0x20 ADD SWAP2 POP DUP1 MLOAD SWAP1 PUSH1 0x20 ADD SWAP1 DUP1 DUP4 DUP4 PUSH1 0x0 JUMPDEST DUP4 DUP2 LT ISZERO PUSH2 0x202C JUMPI DUP1 DUP3 ADD MLOAD DUP2 DUP5 ADD MSTORE PUSH1 0x20 DUP2 ADD SWAP1 POP PUSH2 0x2011 JUMP JUMPDEST POP POP POP POP SWAP1 POP SWAP1 DUP2 ADD SWAP1 PUSH1 0x1F AND DUP1 ISZERO PUSH2 0x2059 JUMPI DUP1 DUP3 SUB DUP1 MLOAD PUSH1 0x1 DUP4 PUSH1 0x20 SUB PUSH2 0x100 EXP SUB NOT AND DUP2 MSTORE PUSH1 0x20 ADD SWAP2 POP JUMPDEST POP SWAP3 POP POP POP PUSH1 0x40 MLOAD DUP1 SWAP2 SUB SWAP1 PUSH2 0x206D PUSH2 0x245E JUMP JUMPDEST POP POP JUMPDEST POP PUSH1 0x0 DUP4 DUP6 DUP2 PUSH2 0x207C JUMPI INVALID JUMPDEST DIV SWAP1 POP DUP1 SWAP2 POP POP SWAP4 SWAP3 POP POP POP JUMP JUMPDEST PUSH2 0x20A9 DUP3 PUSH20 0xFFFFFFFFFFFFFFFFFFFFFFFFFFFFFFFFFFFFFFFF AND PUSH2 0x240C JUMP JUMPDEST PUSH2 0x2124 JUMPI PUSH1 0x40 MLOAD PUSH32 0x8C379A000000000000000000000000000000000000000000000000000000000 DUP2 MSTORE PUSH1 0x4 ADD DUP1 DUP1 PUSH1 0x20 ADD DUP3 DUP2 SUB DUP3 MSTORE PUSH1 0x1F DUP2 MSTORE PUSH1 0x20 ADD DUP1 PUSH32 0x5361666545524332303A2063616C6C20746F206E6F6E2D636F6E747261637400 DUP2 MSTORE POP PUSH1 0x20 ADD SWAP2 POP POP PUSH1 0x40 MLOAD DUP1 SWAP2 SUB SWAP1 PUSH2 0x2121 PUSH2 0x245E JUMP JUMPDEST POP POP JUMPDEST PUSH1 0x0 PUSH1 0x60 DUP4 PUSH20 0xFFFFFFFFFFFFFFFFFFFFFFFFFFFFFFFFFFFFFFFF AND DUP4 PUSH1 0x40 MLOAD DUP1 DUP3 DUP1 MLOAD SWAP1 PUSH1 0x20 ADD SWAP1 DUP1 DUP4 DUP4 JUMPDEST PUSH1 0x20 DUP4 LT PUSH2 0x2173 JUMPI DUP1 MLOAD DUP3 MSTORE PUSH1 0x20 DUP3 ADD SWAP2 POP PUSH1 0x20 DUP2 ADD SWAP1 POP PUSH1 0x20 DUP4 SUB SWAP3 POP PUSH2 0x2150 JUMP JUMPDEST PUSH1 0x1 DUP4 PUSH1 0x20 SUB PUSH2 0x100 EXP SUB DUP1 NOT DUP3 MLOAD AND DUP2 DUP5 MLOAD AND DUP1 DUP3 OR DUP6 MSTORE POP POP POP POP POP POP SWAP1 POP ADD SWAP2 POP POP PUSH1 0x0 PUSH1 0x40 MLOAD DUP1 DUP4 SUB DUP2 PUSH1 0x0 DUP7 GAS PUSH2 0x21AD PUSH2 0x264E JUMP JUMPDEST POP POP POP POP POP POP SWAP2 POP POP RETURNDATASIZE DUP1 PUSH1 0x0 DUP2 EQ PUSH2 0x21E2 JUMPI PUSH1 0x40 MLOAD SWAP2 POP PUSH1 0x1F NOT PUSH1 0x3F RETURNDATASIZE ADD AND DUP3 ADD PUSH1 0x40 MSTORE RETURNDATASIZE DUP3 MSTORE RETURNDATASIZE PUSH1 0x0 PUSH1 0x20 DUP5 ADD RETURNDATACOPY PUSH2 0x21E7 JUMP JUMPDEST PUSH1 0x60 SWAP2 POP JUMPDEST POP SWAP2 POP SWAP2 POP DUP2 PUSH2 0x2268 JUMPI PUSH1 0x40 MLOAD PUSH32 0x8C379A000000000000000000000000000000000000000000000000000000000 DUP2 MSTORE PUSH1 0x4 ADD DUP1 DUP1 PUSH1 0x20 ADD DUP3 DUP2 SUB DUP3 MSTORE PUSH1 0x20 DUP2 MSTORE PUSH1 0x20 ADD DUP1 PUSH32 0x5361666545524332303A206C6F772D6C6576656C2063616C6C206661696C6564 DUP2 MSTORE POP PUSH1 0x20 ADD SWAP2 POP POP PUSH1 0x40 MLOAD DUP1 SWAP2 SUB SWAP1 PUSH2 0x2265 PUSH2 0x245E JUMP JUMPDEST POP POP JUMPDEST PUSH1 0x0 DUP2 MLOAD GT ISZERO PUSH2 0x2300 JUMPI DUP1 DUP1 PUSH1 0x20 ADD SWAP1 MLOAD PUSH1 0x20 DUP2 LT ISZERO PUSH2 0x2290 JUMPI PUSH1 0x0 DUP1 PUSH2 0x228D PUSH2 0x245E JUMP JUMPDEST POP POP JUMPDEST DUP2 ADD SWAP1 DUP1 DUP1 MLOAD SWAP1 PUSH1 0x20 ADD SWAP1 SWAP3 SWAP2 SWAP1 POP POP POP PUSH2 0x22FF JUMPI PUSH1 0x40 MLOAD PUSH32 0x8C379A000000000000000000000000000000000000000000000000000000000 DUP2 MSTORE PUSH1 0x4 ADD DUP1 DUP1 PUSH1 0x20 ADD DUP3 DUP2 SUB DUP3 MSTORE PUSH1 0x2A DUP2 MSTORE PUSH1 0x20 ADD DUP1 PUSH2 0x281A PUSH1 0x2A SWAP2 CODECOPY PUSH1 0x40 ADD SWAP2 POP POP PUSH1 0x40 MLOAD DUP1 SWAP2 SUB SWAP1 PUSH2 0x22FC PUSH2 0x245E JUMP JUMPDEST POP POP JUMPDEST JUMPDEST POP POP POP POP JUMP JUMPDEST PUSH2 0x2406 DUP5 DUP6 PUSH20 0xFFFFFFFFFFFFFFFFFFFFFFFFFFFFFFFFFFFFFFFF AND PUSH4 0x23B872DD SWAP1 POP PUSH1 0xE0 SHL DUP6 DUP6 DUP6 PUSH1 0x40 MLOAD PUSH1 0x24 ADD DUP1 DUP5 PUSH20 0xFFFFFFFFFFFFFFFFFFFFFFFFFFFFFFFFFFFFFFFF AND PUSH20 0xFFFFFFFFFFFFFFFFFFFFFFFFFFFFFFFFFFFFFFFF AND DUP2 MSTORE PUSH1 0x20 ADD DUP4 PUSH20 0xFFFFFFFFFFFFFFFFFFFFFFFFFFFFFFFFFFFFFFFF AND PUSH20 0xFFFFFFFFFFFFFFFFFFFFFFFFFFFFFFFFFFFFFFFF AND DUP2 MSTORE PUSH1 0x20 ADD DUP3 DUP2 MSTORE PUSH1 0x20 ADD SWAP4 POP POP POP POP PUSH1 0x40 MLOAD PUSH1 0x20 DUP2 DUP4 SUB SUB DUP2 MSTORE SWAP1 PUSH1 0x40 MSTORE SWAP1 PUSH28 0xFFFFFFFFFFFFFFFFFFFFFFFFFFFFFFFFFFFFFFFFFFFFFFFFFFFFFFFF NOT AND PUSH1 0x20 DUP3 ADD DUP1 MLOAD PUSH28 0xFFFFFFFFFFFFFFFFFFFFFFFFFFFFFFFFFFFFFFFFFFFFFFFFFFFFFFFF DUP4 DUP2 DUP4 AND OR DUP4 MSTORE POP POP POP POP PUSH2 0x208A JUMP JUMPDEST POP POP POP POP JUMP JUMPDEST PUSH1 0x0 DUP1 PUSH1 0x0 PUSH32 0xC5D2460186F7233C927E7DB2DCC703C0E500B653CA82273B7BFAD8045D85A470 PUSH1 0x0 SHL SWAP1 POP DUP4 PUSH2 0x2440 PUSH2 0x274E JUMP JUMPDEST SWAP2 POP PUSH1 0x0 DUP1 SHL DUP3 EQ ISZERO DUP1 ISZERO PUSH2 0x2455 JUMPI POP DUP1 DUP3 EQ ISZERO JUMPDEST SWAP3 POP POP POP SWAP2 SWAP1 POP JUMP JUMPDEST PUSH4 0x2A2A7ADB MSIZE DUP2 PUSH1 0xE0 SHL DUP2 MSTORE PUSH1 0x4 DUP2 ADD PUSH1 0x20 DUP2 MSTORE DUP6 PUSH1 0x20 DUP3 ADD MSTORE PUSH1 0x0 JUMPDEST DUP7 DUP2 LT ISZERO PUSH2 0x2499 JUMPI DUP1 DUP7 ADD MLOAD DUP2 PUSH1 0x40 DUP5 ADD ADD MSTORE PUSH1 0x20 DUP2 ADD SWAP1 POP PUSH2 0x247B JUMP JUMPDEST POP PUSH1 0x20 DUP3 DUP8 PUSH1 0x64 ADD DUP5 CALLER PUSH1 0x0 SWAP1 GAS CALL PC PUSH1 0xE ADD JUMPI RETURNDATASIZE PUSH1 0x0 DUP1 RETURNDATACOPY RETURNDATASIZE PUSH1 0x0 REVERT JUMPDEST RETURNDATASIZE PUSH1 0x1 EQ ISZERO PC PUSH1 0xA ADD JUMPI PUSH1 0x1 PUSH1 0x0 RETURN JUMPDEST POP POP POP JUMP JUMPDEST PUSH4 0x3DAA959 MSIZE DUP2 PUSH1 0xE0 SHL DUP2 MSTORE DUP4 PUSH1 0x4 DUP3 ADD MSTORE PUSH1 0x20 DUP2 PUSH1 0x24 DUP4 CALLER PUSH1 0x0 SWAP1 GAS CALL PC PUSH1 0xE ADD JUMPI RETURNDATASIZE PUSH1 0x0 DUP1 RETURNDATACOPY RETURNDATASIZE PUSH1 0x0 REVERT JUMPDEST RETURNDATASIZE PUSH1 0x1 EQ ISZERO PC PUSH1 0xA ADD JUMPI PUSH1 0x1 PUSH1 0x0 RETURN JUMPDEST DUP1 MLOAD SWAP4 POP PUSH1 0x0 JUMPDEST PUSH1 0x40 DUP2 LT ISZERO PUSH2 0x252A JUMPI PUSH1 0x0 DUP2 DUP4 ADD MSTORE PUSH1 0x20 DUP2 ADD SWAP1 POP PUSH2 0x2510 JUMP JUMPDEST POP POP POP JUMP JUMPDEST PUSH4 0x22BD64C0 MSIZE DUP2 PUSH1 0xE0 SHL DUP2 MSTORE DUP4 PUSH1 0x4 DUP3 ADD MSTORE DUP5 PUSH1 0x24 DUP3 ADD MSTORE PUSH1 0x0 DUP2 PUSH1 0x44 DUP4 CALLER PUSH1 0x0 SWAP1 GAS CALL PC PUSH1 0xE ADD JUMPI RETURNDATASIZE PUSH1 0x0 DUP1 RETURNDATACOPY RETURNDATASIZE PUSH1 0x0 REVERT JUMPDEST RETURNDATASIZE PUSH1 0x1 EQ ISZERO PC PUSH1 0xA ADD JUMPI PUSH1 0x1 PUSH1 0x0 RETURN JUMPDEST PUSH1 0x0 JUMPDEST PUSH1 0x40 DUP2 LT ISZERO PUSH2 0x258F JUMPI PUSH1 0x0 DUP2 DUP4 ADD MSTORE PUSH1 0x20 DUP2 ADD SWAP1 POP PUSH2 0x2575 JUMP JUMPDEST POP POP POP JUMP JUMPDEST PUSH4 0x73509064 MSIZE DUP2 PUSH1 0xE0 SHL DUP2 MSTORE PUSH1 0x20 DUP2 PUSH1 0x4 DUP4 CALLER PUSH1 0x0 SWAP1 GAS CALL PC PUSH1 0xE ADD JUMPI RETURNDATASIZE PUSH1 0x0 DUP1 RETURNDATACOPY RETURNDATASIZE PUSH1 0x0 REVERT JUMPDEST RETURNDATASIZE PUSH1 0x1 EQ ISZERO PC PUSH1 0xA ADD JUMPI PUSH1 0x1 PUSH1 0x0 RETURN JUMPDEST DUP1 MLOAD SWAP4 POP PUSH1 0x0 JUMPDEST PUSH1 0x40 DUP2 LT ISZERO PUSH2 0x25EC JUMPI PUSH1 0x0 DUP2 DUP4 ADD MSTORE PUSH1 0x20 DUP2 ADD SWAP1 POP PUSH2 0x25D2 JUMP JUMPDEST POP POP POP JUMP JUMPDEST PUSH4 0xBDBF8C36 MSIZE DUP2 PUSH1 0xE0 SHL DUP2 MSTORE PUSH1 0x20 DUP2 PUSH1 0x4 DUP4 CALLER PUSH1 0x0 SWAP1 GAS CALL PC PUSH1 0xE ADD JUMPI RETURNDATASIZE PUSH1 0x0 DUP1 RETURNDATACOPY RETURNDATASIZE PUSH1 0x0 REVERT JUMPDEST RETURNDATASIZE PUSH1 0x1 EQ ISZERO PC PUSH1 0xA ADD JUMPI PUSH1 0x1 PUSH1 0x0 RETURN JUMPDEST DUP1 MLOAD SWAP4 POP PUSH1 0x0 JUMPDEST PUSH1 0x40 DUP2 LT ISZERO PUSH2 0x2649 JUMPI PUSH1 0x0 DUP2 DUP4 ADD MSTORE PUSH1 0x20 DUP2 ADD SWAP1 POP PUSH2 0x262F JUMP JUMPDEST POP POP POP JUMP JUMPDEST PUSH4 0x85979F76 MSIZE DUP2 PUSH1 0xE0 SHL DUP2 MSTORE PUSH2 0x268D JUMP JUMPDEST PUSH1 0x0 DUP2 SWAP1 POP DUP2 DUP4 GT ISZERO PUSH2 0x2670 JUMPI DUP3 SWAP1 POP JUMPDEST SWAP3 SWAP2 POP POP JUMP JUMPDEST PUSH1 0x0 DUP2 SWAP1 POP DUP2 DUP4 LT ISZERO PUSH2 0x2687 JUMPI DUP3 SWAP1 POP JUMPDEST SWAP3 SWAP2 POP POP JUMP JUMPDEST DUP4 PUSH1 0x4 DUP3 ADD MSTORE DUP5 PUSH1 0x24 DUP3 ADD MSTORE PUSH1 0x60 PUSH1 0x44 DUP3 ADD MSTORE DUP8 PUSH1 0x64 DUP3 ADD MSTORE PUSH1 0x84 DUP2 ADD PUSH1 0x0 JUMPDEST DUP10 DUP2 LT ISZERO PUSH2 0x26C8 JUMPI DUP1 DUP10 ADD MLOAD DUP2 DUP4 ADD MSTORE PUSH1 0x20 DUP2 ADD SWAP1 POP PUSH2 0x26AD JUMP JUMPDEST POP PUSH1 0x60 DUP3 DUP11 PUSH1 0xA4 ADD DUP5 CALLER PUSH1 0x0 SWAP1 GAS CALL PC PUSH1 0xE ADD JUMPI RETURNDATASIZE PUSH1 0x0 DUP1 RETURNDATACOPY RETURNDATASIZE PUSH1 0x0 REVERT JUMPDEST RETURNDATASIZE PUSH1 0x1 EQ ISZERO PC PUSH1 0xA ADD JUMPI PUSH1 0x1 PUSH1 0x0 RETURN JUMPDEST DUP2 MLOAD PUSH1 0x40 DUP4 ADD MLOAD RETURNDATASIZE PUSH1 0x0 DUP6 RETURNDATACOPY DUP13 DUP13 DUP3 PUSH1 0x60 DUP8 ADD CALLER POP PUSH1 0x0 PUSH1 0x4 GAS CALL POP MSIZE PUSH2 0x271D DUP15 RETURNDATASIZE PUSH2 0x2676 JUMP JUMPDEST DUP14 ADD PUSH2 0x2729 DUP2 DUP8 PUSH2 0x265F JUMP JUMPDEST JUMPDEST DUP3 DUP2 LT ISZERO PUSH2 0x2741 JUMPI PUSH1 0x0 DUP2 MSTORE PUSH1 0x20 DUP2 ADD SWAP1 POP PUSH2 0x272A JUMP JUMPDEST POP DUP4 SWAP15 POP POP POP POP POP POP POP POP JUMP JUMPDEST PUSH4 0x24749D5C MSIZE DUP2 PUSH1 0xE0 SHL DUP2 MSTORE DUP4 PUSH1 0x4 DUP3 ADD MSTORE PUSH1 0x20 DUP2 PUSH1 0x24 DUP4 CALLER PUSH1 0x0 SWAP1 GAS CALL PC PUSH1 0xE ADD JUMPI RETURNDATASIZE PUSH1 0x0 DUP1 RETURNDATACOPY RETURNDATASIZE PUSH1 0x0 REVERT JUMPDEST RETURNDATASIZE PUSH1 0x1 EQ ISZERO PC PUSH1 0xA ADD JUMPI PUSH1 0x1 PUSH1 0x0 RETURN JUMPDEST DUP1 MLOAD SWAP4 POP PUSH1 0x0 JUMPDEST PUSH1 0x40 DUP2 LT ISZERO PUSH2 0x27AC JUMPI PUSH1 0x0 DUP2 DUP4 ADD MSTORE PUSH1 0x20 DUP2 ADD SWAP1 POP PUSH2 0x2792 JUMP JUMPDEST POP POP POP JUMP INVALID 0x4F PUSH24 0x6E61626C653A206E6577206F776E65722069732074686520 PUSH27 0x65726F2061646472657373536166654D6174683A206D756C746970 PUSH13 0x69636174696F6E206F76657266 PUSH13 0x6F7743616C6C6572206973206E PUSH16 0x74207265776172642064697374726962 PUSH22 0x74696F6E5361666545524332303A204552433230206F PUSH17 0x65726174696F6E20646964206E6F742073 PUSH22 0x63636565640000000000000000000000000000000000 "
        },
        "deployedBytecode": {
          "linkReferences": {},
          "object": "60806040523480156100195760008061001661245e565b50505b506004361061017b5760003560e01c806380faa57d116100e7578063cd3daf9d116100a0578063e9fad8ee1161007a578063e9fad8ee146105e5578063ebe2b12b146105ef578063edc9af951461060d578063f2fde38b146106575761017b565b8063cd3daf9d1461055f578063df136d651461057d578063e7d279981461059b5761017b565b806380faa57d1461041f5780638b8763471461043d5780638da5cb5b1461049e5780638f32d59b146104e8578063a694fc3a1461050a578063c8f33c91146105415761017b565b80632e1a7d4d116101395780632e1a7d4d1461031e5780633c6b16ab146103555780633d18b9121461038c57806370a0823114610396578063715018a6146103f75780637b0a47ee146104015761017b565b80628cc262146101895780630700037d146101ea5780630d68b7611461024b578063101114cf1461029857806318160ddd146102e25780631be0528914610300575b60008061018661245e565b50505b6101d4600480360360208110156101a8576000806101a561245e565b50505b81019080803573ffffffffffffffffffffffffffffffffffffffff1690602001909291905050506106a4565b6040518082815260200191505060405180910390f35b610235600480360360208110156102095760008061020661245e565b50505b81019080803573ffffffffffffffffffffffffffffffffffffffff169060200190929190505050610799565b6040518082815260200191505060405180910390f35b6102966004803603602081101561026a5760008061026761245e565b50505b81019080803573ffffffffffffffffffffffffffffffffffffffff1690602001909291905050506107b8565b005b6102a0610a02565b604051808273ffffffffffffffffffffffffffffffffffffffff1673ffffffffffffffffffffffffffffffffffffffff16815260200191505060405180910390f35b6102ea610a2f565b6040518082815260200191505060405180910390f35b610308610a40565b6040518082815260200191505060405180910390f35b6103536004803603602081101561033d5760008061033a61245e565b50505b8101908080359060200190929190505050610a47565b005b61038a600480360360208110156103745760008061037161245e565b50505b8101908080359060200190929190505050610c40565b005b610394610f54565b005b6103e1600480360360208110156103b5576000806103b261245e565b50505b81019080803573ffffffffffffffffffffffffffffffffffffffff169060200190929190505050611196565b6040518082815260200191505060405180910390f35b6103ff6111e6565b005b610409611341565b6040518082815260200191505060405180910390f35b61042761134e565b6040518082815260200191505060405180910390f35b6104886004803603602081101561045c5760008061045961245e565b50505b81019080803573ffffffffffffffffffffffffffffffffffffffff169060200190929190505050611370565b6040518082815260200191505060405180910390f35b6104a661138f565b604051808273ffffffffffffffffffffffffffffffffffffffff1673ffffffffffffffffffffffffffffffffffffffff16815260200191505060405180910390f35b6104f06113c0565b604051808215151515815260200191505060405180910390f35b61053f600480360360208110156105295760008061052661245e565b50505b8101908080359060200190929190505050611426565b005b61054961161f565b6040518082815260200191505060405180910390f35b61056761162c565b6040518082815260200191505060405180910390f35b6105856116e0565b6040518082815260200191505060405180910390f35b6105a36116ed565b604051808273ffffffffffffffffffffffffffffffffffffffff1673ffffffffffffffffffffffffffffffffffffffff16815260200191505060405180910390f35b6105ed61171a565b005b6105f761173d565b6040518082815260200191505060405180910390f35b61061561174a565b604051808273ffffffffffffffffffffffffffffffffffffffff1673ffffffffffffffffffffffffffffffffffffffff16815260200191505060405180910390f35b6106a2600480360360208110156106765760008061067361245e565b50505b81019080803573ffffffffffffffffffffffffffffffffffffffff169060200190929190505050611776565b005b6000610792600c60008473ffffffffffffffffffffffffffffffffffffffff1673ffffffffffffffffffffffffffffffffffffffff1681526020019081526020016000206106f06124cc565b610784670de0b6b3a764000061077661075f600b60008973ffffffffffffffffffffffffffffffffffffffff1673ffffffffffffffffffffffffffffffffffffffff1681526020019081526020016000206107496124cc565b61075161162c565b61180590919063ffffffff16565b61076888611196565b61184f90919063ffffffff16565b6118de90919063ffffffff16565b61192890919063ffffffff16565b9050919050565b600c6020528060005260406000206000915090506107b56124cc565b81565b6107c06113c0565b61083b576040517f08c379a00000000000000000000000000000000000000000000000000000000081526004018080602001828103825260208152602001807f4f776e61626c653a2063616c6c6572206973206e6f7420746865206f776e65728152506020019150506040518091039061083861245e565b50505b6000600560008373ffffffffffffffffffffffffffffffffffffffff1673ffffffffffffffffffffffffffffffffffffffff16815260200190815260200160002060006101000a8161088b6124cc565b8160ff021916908315150217906108a061252f565b505061091d576040517f08c379a00000000000000000000000000000000000000000000000000000000081526004018080602001828103825260198152602001807f4164647265737320697320686173206265656e206164646564000000000000008152506020019150506040518091039061091a61245e565b50505b80600460006101000a8161092f6124cc565b8173ffffffffffffffffffffffffffffffffffffffff021916908373ffffffffffffffffffffffffffffffffffffffff1602179061096b61252f565b50505060016005600060046000906109816124cc565b906101000a900473ffffffffffffffffffffffffffffffffffffffff1673ffffffffffffffffffffffffffffffffffffffff1673ffffffffffffffffffffffffffffffffffffffff16815260200190815260200160002060006101000a816109e76124cc565b8160ff021916908315150217906109fc61252f565b50505050565b6004600090610a0f6124cc565b906101000a900473ffffffffffffffffffffffffffffffffffffffff1681565b60006001610a3b6124cc565b905090565b62093a8081565b5a610a50612594565b610a5861162c565b600a8190610a6461252f565b505050610a6f61134e565b60098190610a7b61252f565b505050600073ffffffffffffffffffffffffffffffffffffffff168173ffffffffffffffffffffffffffffffffffffffff1614610b5e57610abb816106a4565b600c60008373ffffffffffffffffffffffffffffffffffffffff1673ffffffffffffffffffffffffffffffffffffffff1681526020019081526020016000208190610b0461252f565b505050600a610b116124cc565b600b60008373ffffffffffffffffffffffffffffffffffffffff1673ffffffffffffffffffffffffffffffffffffffff1681526020019081526020016000208190610b5a61252f565b5050505b60008211610bdd576040517f08c379a00000000000000000000000000000000000000000000000000000000081526004018080602001828103825260118152602001807f43616e6e6f74207769746864726177203000000000000000000000000000000081525060200191505060405180910390610bda61245e565b50505b610be6826119b9565b5a610bef612594565b73ffffffffffffffffffffffffffffffffffffffff167f7084f5476618d8e60b11ef0d7d3f06914655adb8793e28ff7f018d4c76d505d5836040518082815260200191505060405180910390a25050565b6001151560056000610c50611af7565b73ffffffffffffffffffffffffffffffffffffffff1673ffffffffffffffffffffffffffffffffffffffff168152602001908152602001600020600090610c956124cc565b906101000a900460ff16151514610d00576040517f08c379a00000000000000000000000000000000000000000000000000000000081526004018080602001828103825260218152602001806127f96021913960400191505060405180910390610cfd61245e565b50505b6000610d0a61162c565b600a8190610d1661252f565b505050610d2161134e565b60098190610d2d61252f565b505050600073ffffffffffffffffffffffffffffffffffffffff168173ffffffffffffffffffffffffffffffffffffffff1614610e1057610d6d816106a4565b600c60008373ffffffffffffffffffffffffffffffffffffffff1673ffffffffffffffffffffffffffffffffffffffff1681526020019081526020016000208190610db661252f565b505050600a610dc36124cc565b600b60008373ffffffffffffffffffffffffffffffffffffffff1673ffffffffffffffffffffffffffffffffffffffff1681526020019081526020016000208190610e0c61252f565b5050505b6007610e1a6124cc565b5a610e236125f1565b10610e5257610e3e62093a80836118de90919063ffffffff16565b60088190610e4a61252f565b505050610ed4565b6000610e785a610e606125f1565b6007610e6a6124cc565b61180590919063ffffffff16565b90506000610e986008610e896124cc565b8361184f90919063ffffffff16565b9050610ec262093a80610eb4838761192890919063ffffffff16565b6118de90919063ffffffff16565b60088190610ece61252f565b50505050505b5a610edd6125f1565b60098190610ee961252f565b505050610f0a62093a805a610efc6125f1565b61192890919063ffffffff16565b60078190610f1661252f565b5050507fde88a922e0d3b88b24e9623efeb464919c6bf9f66857a65e2bfcf2ce87a9433d826040518082815260200191505060405180910390a15050565b5a610f5d612594565b610f6561162c565b600a8190610f7161252f565b505050610f7c61134e565b60098190610f8861252f565b505050600073ffffffffffffffffffffffffffffffffffffffff168173ffffffffffffffffffffffffffffffffffffffff161461106b57610fc8816106a4565b600c60008373ffffffffffffffffffffffffffffffffffffffff1673ffffffffffffffffffffffffffffffffffffffff168152602001908152602001600020819061101161252f565b505050600a61101e6124cc565b600b60008373ffffffffffffffffffffffffffffffffffffffff1673ffffffffffffffffffffffffffffffffffffffff168152602001908152602001600020819061106761252f565b5050505b600061107e5a611079612594565b6106a4565b90506000811115611192576000600c60005a611098612594565b73ffffffffffffffffffffffffffffffffffffffff1673ffffffffffffffffffffffffffffffffffffffff16815260200190815260200160002081906110dc61252f565b50505061113b5a6110eb612594565b8260066000906110f96124cc565b906101000a900473ffffffffffffffffffffffffffffffffffffffff1673ffffffffffffffffffffffffffffffffffffffff16611b079092919063ffffffff16565b5a611144612594565b73ffffffffffffffffffffffffffffffffffffffff167fe2403640ba68fed3a2f88b7557551d1993f84b99bb10ff833f0cf8db0c5e0486826040518082815260200191505060405180910390a25b5050565b6000600260008373ffffffffffffffffffffffffffffffffffffffff1673ffffffffffffffffffffffffffffffffffffffff1681526020019081526020016000206111df6124cc565b9050919050565b6111ee6113c0565b611269576040517f08c379a00000000000000000000000000000000000000000000000000000000081526004018080602001828103825260208152602001807f4f776e61626c653a2063616c6c6572206973206e6f7420746865206f776e65728152506020019150506040518091039061126661245e565b50505b600073ffffffffffffffffffffffffffffffffffffffff16600360009061128e6124cc565b906101000a900473ffffffffffffffffffffffffffffffffffffffff1673ffffffffffffffffffffffffffffffffffffffff167f8be0079c531659141344cd1fd0a4f28419497f9722a3daafe3b4186f6b6457e060405160405180910390a36000600360006101000a816113006124cc565b8173ffffffffffffffffffffffffffffffffffffffff021916908373ffffffffffffffffffffffffffffffffffffffff1602179061133c61252f565b505050565b600861134b6124cc565b81565b600061136b5a61135c6125f1565b60076113666124cc565b611bd8565b905090565b600b60205280600052604060002060009150905061138c6124cc565b81565b6000600360009061139e6124cc565b906101000a900473ffffffffffffffffffffffffffffffffffffffff16905090565b600060036000906113cf6124cc565b906101000a900473ffffffffffffffffffffffffffffffffffffffff1673ffffffffffffffffffffffffffffffffffffffff1661140a611af7565b73ffffffffffffffffffffffffffffffffffffffff1614905090565b5a61142f612594565b61143761162c565b600a819061144361252f565b50505061144e61134e565b6009819061145a61252f565b505050600073ffffffffffffffffffffffffffffffffffffffff168173ffffffffffffffffffffffffffffffffffffffff161461153d5761149a816106a4565b600c60008373ffffffffffffffffffffffffffffffffffffffff1673ffffffffffffffffffffffffffffffffffffffff16815260200190815260200160002081906114e361252f565b505050600a6114f06124cc565b600b60008373ffffffffffffffffffffffffffffffffffffffff1673ffffffffffffffffffffffffffffffffffffffff168152602001908152602001600020819061153961252f565b5050505b600082116115bc576040517f08c379a000000000000000000000000000000000000000000000000000000000815260040180806020018281038252600e8152602001807f43616e6e6f74207374616b652030000000000000000000000000000000000000815250602001915050604051809103906115b961245e565b50505b6115c582611bf1565b5a6115ce612594565b73ffffffffffffffffffffffffffffffffffffffff167f9e71bc8eea02a63969f509818f2dafb9254532904319f9dbda79b67bd34a5f3d836040518082815260200191505060405180910390a25050565b60096116296124cc565b81565b600080611637610a2f565b141561164e57600a6116476124cc565b90506116dd565b6116da6116c261165c610a2f565b6116b4670de0b6b3a76400006116a660086116756124cc565b61169860096116826124cc565b61168a61134e565b61180590919063ffffffff16565b61184f90919063ffffffff16565b61184f90919063ffffffff16565b6118de90919063ffffffff16565b600a6116cc6124cc565b61192890919063ffffffff16565b90505b90565b600a6116ea6124cc565b81565b60066000906116fa6124cc565b906101000a900473ffffffffffffffffffffffffffffffffffffffff1681565b61173361172e5a611729612594565b611196565b610a47565b61173b610f54565b565b60076117476124cc565b81565b600080906117566124cc565b906101000a900473ffffffffffffffffffffffffffffffffffffffff1681565b61177e6113c0565b6117f9576040517f08c379a00000000000000000000000000000000000000000000000000000000081526004018080602001828103825260208152602001807f4f776e61626c653a2063616c6c6572206973206e6f7420746865206f776e6572815250602001915050604051809103906117f661245e565b50505b61180281611d8c565b50565b600061184783836040518060400160405280601e81526020017f536166654d6174683a207375627472616374696f6e206f766572666c6f770000815250611ef2565b905092915050565b60008083141561186257600090506118d8565b600082840290508284828161187357fe5b04146118d3576040517f08c379a00000000000000000000000000000000000000000000000000000000081526004018080602001828103825260218152602001806127d860219139604001915050604051809103906118d061245e565b50505b809150505b92915050565b600061192083836040518060400160405280601a81526020017f536166654d6174683a206469766973696f6e206279207a65726f000000000000815250611fbb565b905092915050565b6000808284019050838110156119af576040517f08c379a000000000000000000000000000000000000000000000000000000000815260040180806020018281038252601b8152602001807f536166654d6174683a206164646974696f6e206f766572666c6f770000000000815250602001915050604051809103906119ac61245e565b50505b8091505092915050565b6119d58160016119c76124cc565b61180590919063ffffffff16565b600181906119e161252f565b505050611a4581600260005a6119f5612594565b73ffffffffffffffffffffffffffffffffffffffff1673ffffffffffffffffffffffffffffffffffffffff168152602001908152602001600020611a376124cc565b61180590919063ffffffff16565b600260005a611a52612594565b73ffffffffffffffffffffffffffffffffffffffff1673ffffffffffffffffffffffffffffffffffffffff1681526020019081526020016000208190611a9661252f565b505050611af45a611aa5612594565b8260008090611ab26124cc565b906101000a900473ffffffffffffffffffffffffffffffffffffffff1673ffffffffffffffffffffffffffffffffffffffff16611b079092919063ffffffff16565b50565b60005a611b02612594565b905090565b611bd3838473ffffffffffffffffffffffffffffffffffffffff1663a9059cbb905060e01b8484604051602401808373ffffffffffffffffffffffffffffffffffffffff1673ffffffffffffffffffffffffffffffffffffffff16815260200182815260200192505050604051602081830303815290604052907bffffffffffffffffffffffffffffffffffffffffffffffffffffffff19166020820180517bffffffffffffffffffffffffffffffffffffffffffffffffffffffff838183161783525050505061208a565b505050565b6000818310611be75781611be9565b825b905092915050565b611c0d816001611bff6124cc565b61192890919063ffffffff16565b60018190611c1961252f565b505050611c7d81600260005a611c2d612594565b73ffffffffffffffffffffffffffffffffffffffff1673ffffffffffffffffffffffffffffffffffffffff168152602001908152602001600020611c6f6124cc565b61192890919063ffffffff16565b600260005a611c8a612594565b73ffffffffffffffffffffffffffffffffffffffff1673ffffffffffffffffffffffffffffffffffffffff1681526020019081526020016000208190611cce61252f565b505050611d895a611cdd612594565b5a63996d79a5598160e01b8152602081600483336000905af158601d01573d60011458600c01573d6000803e3d621234565260ea61109c528051925060005b6040811015611d3657600081830152602081019050611d1c565b5050508360008090611d466124cc565b906101000a900473ffffffffffffffffffffffffffffffffffffffff1673ffffffffffffffffffffffffffffffffffffffff16612306909392919063ffffffff16565b50565b600073ffffffffffffffffffffffffffffffffffffffff168173ffffffffffffffffffffffffffffffffffffffff161415611e1b576040517f08c379a00000000000000000000000000000000000000000000000000000000081526004018080602001828103825260268152602001806127b26026913960400191505060405180910390611e1861245e565b50505b8073ffffffffffffffffffffffffffffffffffffffff166003600090611e3f6124cc565b906101000a900473ffffffffffffffffffffffffffffffffffffffff1673ffffffffffffffffffffffffffffffffffffffff167f8be0079c531659141344cd1fd0a4f28419497f9722a3daafe3b4186f6b6457e060405160405180910390a380600360006101000a81611eb06124cc565b8173ffffffffffffffffffffffffffffffffffffffff021916908373ffffffffffffffffffffffffffffffffffffffff16021790611eec61252f565b50505050565b6000838311158290611fa8576040517f08c379a00000000000000000000000000000000000000000000000000000000081526004018080602001828103825283818151815260200191508051906020019080838360005b83811015611f64578082015181840152602081019050611f49565b50505050905090810190601f168015611f915780820380516001836020036101000a031916815260200191505b509250505060405180910390611fa561245e565b50505b5060008385039050809150509392505050565b60008083118290612070576040517f08c379a00000000000000000000000000000000000000000000000000000000081526004018080602001828103825283818151815260200191508051906020019080838360005b8381101561202c578082015181840152602081019050612011565b50505050905090810190601f1680156120595780820380516001836020036101000a031916815260200191505b50925050506040518091039061206d61245e565b50505b50600083858161207c57fe5b049050809150509392505050565b6120a98273ffffffffffffffffffffffffffffffffffffffff1661240c565b612124576040517f08c379a000000000000000000000000000000000000000000000000000000000815260040180806020018281038252601f8152602001807f5361666545524332303a2063616c6c20746f206e6f6e2d636f6e7472616374008152506020019150506040518091039061212161245e565b50505b600060608373ffffffffffffffffffffffffffffffffffffffff16836040518082805190602001908083835b602083106121735780518252602082019150602081019050602083039250612150565b6001836020036101000a0380198251168184511680821785525050505050509050019150506000604051808303816000865a6121ad61264e565b5050505050509150503d80600081146121e2576040519150601f19603f3d011682016040523d82523d6000602084013e6121e7565b606091505b509150915081612268576040517f08c379a00000000000000000000000000000000000000000000000000000000081526004018080602001828103825260208152602001807f5361666545524332303a206c6f772d6c6576656c2063616c6c206661696c65648152506020019150506040518091039061226561245e565b50505b600081511115612300578080602001905160208110156122905760008061228d61245e565b50505b81019080805190602001909291905050506122ff576040517f08c379a000000000000000000000000000000000000000000000000000000000815260040180806020018281038252602a81526020018061281a602a9139604001915050604051809103906122fc61245e565b50505b5b50505050565b612406848573ffffffffffffffffffffffffffffffffffffffff166323b872dd905060e01b858585604051602401808473ffffffffffffffffffffffffffffffffffffffff1673ffffffffffffffffffffffffffffffffffffffff1681526020018373ffffffffffffffffffffffffffffffffffffffff1673ffffffffffffffffffffffffffffffffffffffff1681526020018281526020019350505050604051602081830303815290604052907bffffffffffffffffffffffffffffffffffffffffffffffffffffffff19166020820180517bffffffffffffffffffffffffffffffffffffffffffffffffffffffff838183161783525050505061208a565b50505050565b60008060007fc5d2460186f7233c927e7db2dcc703c0e500b653ca82273b7bfad8045d85a47060001b90508361244061274e565b91506000801b82141580156124555750808214155b92505050919050565b632a2a7adb598160e01b8152600481016020815285602082015260005b8681101561249957808601518160408401015260208101905061247b565b506020828760640184336000905af158601d01573d60011458600c01573d6000803e3d621234565260ea61109c52505050565b6303daa959598160e01b8152836004820152602081602483336000905af158601d01573d60011458600c01573d6000803e3d621234565260ea61109c528051935060005b604081101561252a57600081830152602081019050612510565b505050565b6322bd64c0598160e01b8152836004820152846024820152600081604483336000905af158601d01573d60011458600c01573d6000803e3d621234565260ea61109c5260005b604081101561258f57600081830152602081019050612575565b505050565b6373509064598160e01b8152602081600483336000905af158601d01573d60011458600c01573d6000803e3d621234565260ea61109c528051935060005b60408110156125ec576000818301526020810190506125d2565b505050565b63bdbf8c36598160e01b8152602081600483336000905af158601d01573d60011458600c01573d6000803e3d621234565260ea61109c528051935060005b60408110156126495760008183015260208101905061262f565b505050565b6385979f76598160e01b815261268d565b600081905081831115612670578290505b92915050565b600081905081831015612687578290505b92915050565b836004820152846024820152606060448201528760648201526084810160005b898110156126c85780890151818301526020810190506126ad565b506060828a60a40184336000905af158601d01573d60011458600c01573d6000803e3d621234565260ea61109c52815160408301513d6000853e8c8c82606087013350600060045af1505961271d8e3d612676565b8d01612729818761265f565b5b82811015612741576000815260208101905061272a565b50839e5050505050505050565b6324749d5c598160e01b8152836004820152602081602483336000905af158601d01573d60011458600c01573d6000803e3d621234565260ea61109c528051935060005b60408110156127ac57600081830152602081019050612792565b50505056fe4f776e61626c653a206e6577206f776e657220697320746865207a65726f2061646472657373536166654d6174683a206d756c7469706c69636174696f6e206f766572666c6f7743616c6c6572206973206e6f742072657761726420646973747269627574696f6e5361666545524332303a204552433230206f7065726174696f6e20646964206e6f742073756363656564",
          "opcodes": "PUSH1 0x80 PUSH1 0x40 MSTORE CALLVALUE DUP1 ISZERO PUSH2 0x19 JUMPI PUSH1 0x0 DUP1 PUSH2 0x16 PUSH2 0x245E JUMP JUMPDEST POP POP JUMPDEST POP PUSH1 0x4 CALLDATASIZE LT PUSH2 0x17B JUMPI PUSH1 0x0 CALLDATALOAD PUSH1 0xE0 SHR DUP1 PUSH4 0x80FAA57D GT PUSH2 0xE7 JUMPI DUP1 PUSH4 0xCD3DAF9D GT PUSH2 0xA0 JUMPI DUP1 PUSH4 0xE9FAD8EE GT PUSH2 0x7A JUMPI DUP1 PUSH4 0xE9FAD8EE EQ PUSH2 0x5E5 JUMPI DUP1 PUSH4 0xEBE2B12B EQ PUSH2 0x5EF JUMPI DUP1 PUSH4 0xEDC9AF95 EQ PUSH2 0x60D JUMPI DUP1 PUSH4 0xF2FDE38B EQ PUSH2 0x657 JUMPI PUSH2 0x17B JUMP JUMPDEST DUP1 PUSH4 0xCD3DAF9D EQ PUSH2 0x55F JUMPI DUP1 PUSH4 0xDF136D65 EQ PUSH2 0x57D JUMPI DUP1 PUSH4 0xE7D27998 EQ PUSH2 0x59B JUMPI PUSH2 0x17B JUMP JUMPDEST DUP1 PUSH4 0x80FAA57D EQ PUSH2 0x41F JUMPI DUP1 PUSH4 0x8B876347 EQ PUSH2 0x43D JUMPI DUP1 PUSH4 0x8DA5CB5B EQ PUSH2 0x49E JUMPI DUP1 PUSH4 0x8F32D59B EQ PUSH2 0x4E8 JUMPI DUP1 PUSH4 0xA694FC3A EQ PUSH2 0x50A JUMPI DUP1 PUSH4 0xC8F33C91 EQ PUSH2 0x541 JUMPI PUSH2 0x17B JUMP JUMPDEST DUP1 PUSH4 0x2E1A7D4D GT PUSH2 0x139 JUMPI DUP1 PUSH4 0x2E1A7D4D EQ PUSH2 0x31E JUMPI DUP1 PUSH4 0x3C6B16AB EQ PUSH2 0x355 JUMPI DUP1 PUSH4 0x3D18B912 EQ PUSH2 0x38C JUMPI DUP1 PUSH4 0x70A08231 EQ PUSH2 0x396 JUMPI DUP1 PUSH4 0x715018A6 EQ PUSH2 0x3F7 JUMPI DUP1 PUSH4 0x7B0A47EE EQ PUSH2 0x401 JUMPI PUSH2 0x17B JUMP JUMPDEST DUP1 PUSH3 0x8CC262 EQ PUSH2 0x189 JUMPI DUP1 PUSH4 0x700037D EQ PUSH2 0x1EA JUMPI DUP1 PUSH4 0xD68B761 EQ PUSH2 0x24B JUMPI DUP1 PUSH4 0x101114CF EQ PUSH2 0x298 JUMPI DUP1 PUSH4 0x18160DDD EQ PUSH2 0x2E2 JUMPI DUP1 PUSH4 0x1BE05289 EQ PUSH2 0x300 JUMPI JUMPDEST PUSH1 0x0 DUP1 PUSH2 0x186 PUSH2 0x245E JUMP JUMPDEST POP POP JUMPDEST PUSH2 0x1D4 PUSH1 0x4 DUP1 CALLDATASIZE SUB PUSH1 0x20 DUP2 LT ISZERO PUSH2 0x1A8 JUMPI PUSH1 0x0 DUP1 PUSH2 0x1A5 PUSH2 0x245E JUMP JUMPDEST POP POP JUMPDEST DUP2 ADD SWAP1 DUP1 DUP1 CALLDATALOAD PUSH20 0xFFFFFFFFFFFFFFFFFFFFFFFFFFFFFFFFFFFFFFFF AND SWAP1 PUSH1 0x20 ADD SWAP1 SWAP3 SWAP2 SWAP1 POP POP POP PUSH2 0x6A4 JUMP JUMPDEST PUSH1 0x40 MLOAD DUP1 DUP3 DUP2 MSTORE PUSH1 0x20 ADD SWAP2 POP POP PUSH1 0x40 MLOAD DUP1 SWAP2 SUB SWAP1 RETURN JUMPDEST PUSH2 0x235 PUSH1 0x4 DUP1 CALLDATASIZE SUB PUSH1 0x20 DUP2 LT ISZERO PUSH2 0x209 JUMPI PUSH1 0x0 DUP1 PUSH2 0x206 PUSH2 0x245E JUMP JUMPDEST POP POP JUMPDEST DUP2 ADD SWAP1 DUP1 DUP1 CALLDATALOAD PUSH20 0xFFFFFFFFFFFFFFFFFFFFFFFFFFFFFFFFFFFFFFFF AND SWAP1 PUSH1 0x20 ADD SWAP1 SWAP3 SWAP2 SWAP1 POP POP POP PUSH2 0x799 JUMP JUMPDEST PUSH1 0x40 MLOAD DUP1 DUP3 DUP2 MSTORE PUSH1 0x20 ADD SWAP2 POP POP PUSH1 0x40 MLOAD DUP1 SWAP2 SUB SWAP1 RETURN JUMPDEST PUSH2 0x296 PUSH1 0x4 DUP1 CALLDATASIZE SUB PUSH1 0x20 DUP2 LT ISZERO PUSH2 0x26A JUMPI PUSH1 0x0 DUP1 PUSH2 0x267 PUSH2 0x245E JUMP JUMPDEST POP POP JUMPDEST DUP2 ADD SWAP1 DUP1 DUP1 CALLDATALOAD PUSH20 0xFFFFFFFFFFFFFFFFFFFFFFFFFFFFFFFFFFFFFFFF AND SWAP1 PUSH1 0x20 ADD SWAP1 SWAP3 SWAP2 SWAP1 POP POP POP PUSH2 0x7B8 JUMP JUMPDEST STOP JUMPDEST PUSH2 0x2A0 PUSH2 0xA02 JUMP JUMPDEST PUSH1 0x40 MLOAD DUP1 DUP3 PUSH20 0xFFFFFFFFFFFFFFFFFFFFFFFFFFFFFFFFFFFFFFFF AND PUSH20 0xFFFFFFFFFFFFFFFFFFFFFFFFFFFFFFFFFFFFFFFF AND DUP2 MSTORE PUSH1 0x20 ADD SWAP2 POP POP PUSH1 0x40 MLOAD DUP1 SWAP2 SUB SWAP1 RETURN JUMPDEST PUSH2 0x2EA PUSH2 0xA2F JUMP JUMPDEST PUSH1 0x40 MLOAD DUP1 DUP3 DUP2 MSTORE PUSH1 0x20 ADD SWAP2 POP POP PUSH1 0x40 MLOAD DUP1 SWAP2 SUB SWAP1 RETURN JUMPDEST PUSH2 0x308 PUSH2 0xA40 JUMP JUMPDEST PUSH1 0x40 MLOAD DUP1 DUP3 DUP2 MSTORE PUSH1 0x20 ADD SWAP2 POP POP PUSH1 0x40 MLOAD DUP1 SWAP2 SUB SWAP1 RETURN JUMPDEST PUSH2 0x353 PUSH1 0x4 DUP1 CALLDATASIZE SUB PUSH1 0x20 DUP2 LT ISZERO PUSH2 0x33D JUMPI PUSH1 0x0 DUP1 PUSH2 0x33A PUSH2 0x245E JUMP JUMPDEST POP POP JUMPDEST DUP2 ADD SWAP1 DUP1 DUP1 CALLDATALOAD SWAP1 PUSH1 0x20 ADD SWAP1 SWAP3 SWAP2 SWAP1 POP POP POP PUSH2 0xA47 JUMP JUMPDEST STOP JUMPDEST PUSH2 0x38A PUSH1 0x4 DUP1 CALLDATASIZE SUB PUSH1 0x20 DUP2 LT ISZERO PUSH2 0x374 JUMPI PUSH1 0x0 DUP1 PUSH2 0x371 PUSH2 0x245E JUMP JUMPDEST POP POP JUMPDEST DUP2 ADD SWAP1 DUP1 DUP1 CALLDATALOAD SWAP1 PUSH1 0x20 ADD SWAP1 SWAP3 SWAP2 SWAP1 POP POP POP PUSH2 0xC40 JUMP JUMPDEST STOP JUMPDEST PUSH2 0x394 PUSH2 0xF54 JUMP JUMPDEST STOP JUMPDEST PUSH2 0x3E1 PUSH1 0x4 DUP1 CALLDATASIZE SUB PUSH1 0x20 DUP2 LT ISZERO PUSH2 0x3B5 JUMPI PUSH1 0x0 DUP1 PUSH2 0x3B2 PUSH2 0x245E JUMP JUMPDEST POP POP JUMPDEST DUP2 ADD SWAP1 DUP1 DUP1 CALLDATALOAD PUSH20 0xFFFFFFFFFFFFFFFFFFFFFFFFFFFFFFFFFFFFFFFF AND SWAP1 PUSH1 0x20 ADD SWAP1 SWAP3 SWAP2 SWAP1 POP POP POP PUSH2 0x1196 JUMP JUMPDEST PUSH1 0x40 MLOAD DUP1 DUP3 DUP2 MSTORE PUSH1 0x20 ADD SWAP2 POP POP PUSH1 0x40 MLOAD DUP1 SWAP2 SUB SWAP1 RETURN JUMPDEST PUSH2 0x3FF PUSH2 0x11E6 JUMP JUMPDEST STOP JUMPDEST PUSH2 0x409 PUSH2 0x1341 JUMP JUMPDEST PUSH1 0x40 MLOAD DUP1 DUP3 DUP2 MSTORE PUSH1 0x20 ADD SWAP2 POP POP PUSH1 0x40 MLOAD DUP1 SWAP2 SUB SWAP1 RETURN JUMPDEST PUSH2 0x427 PUSH2 0x134E JUMP JUMPDEST PUSH1 0x40 MLOAD DUP1 DUP3 DUP2 MSTORE PUSH1 0x20 ADD SWAP2 POP POP PUSH1 0x40 MLOAD DUP1 SWAP2 SUB SWAP1 RETURN JUMPDEST PUSH2 0x488 PUSH1 0x4 DUP1 CALLDATASIZE SUB PUSH1 0x20 DUP2 LT ISZERO PUSH2 0x45C JUMPI PUSH1 0x0 DUP1 PUSH2 0x459 PUSH2 0x245E JUMP JUMPDEST POP POP JUMPDEST DUP2 ADD SWAP1 DUP1 DUP1 CALLDATALOAD PUSH20 0xFFFFFFFFFFFFFFFFFFFFFFFFFFFFFFFFFFFFFFFF AND SWAP1 PUSH1 0x20 ADD SWAP1 SWAP3 SWAP2 SWAP1 POP POP POP PUSH2 0x1370 JUMP JUMPDEST PUSH1 0x40 MLOAD DUP1 DUP3 DUP2 MSTORE PUSH1 0x20 ADD SWAP2 POP POP PUSH1 0x40 MLOAD DUP1 SWAP2 SUB SWAP1 RETURN JUMPDEST PUSH2 0x4A6 PUSH2 0x138F JUMP JUMPDEST PUSH1 0x40 MLOAD DUP1 DUP3 PUSH20 0xFFFFFFFFFFFFFFFFFFFFFFFFFFFFFFFFFFFFFFFF AND PUSH20 0xFFFFFFFFFFFFFFFFFFFFFFFFFFFFFFFFFFFFFFFF AND DUP2 MSTORE PUSH1 0x20 ADD SWAP2 POP POP PUSH1 0x40 MLOAD DUP1 SWAP2 SUB SWAP1 RETURN JUMPDEST PUSH2 0x4F0 PUSH2 0x13C0 JUMP JUMPDEST PUSH1 0x40 MLOAD DUP1 DUP3 ISZERO ISZERO ISZERO ISZERO DUP2 MSTORE PUSH1 0x20 ADD SWAP2 POP POP PUSH1 0x40 MLOAD DUP1 SWAP2 SUB SWAP1 RETURN JUMPDEST PUSH2 0x53F PUSH1 0x4 DUP1 CALLDATASIZE SUB PUSH1 0x20 DUP2 LT ISZERO PUSH2 0x529 JUMPI PUSH1 0x0 DUP1 PUSH2 0x526 PUSH2 0x245E JUMP JUMPDEST POP POP JUMPDEST DUP2 ADD SWAP1 DUP1 DUP1 CALLDATALOAD SWAP1 PUSH1 0x20 ADD SWAP1 SWAP3 SWAP2 SWAP1 POP POP POP PUSH2 0x1426 JUMP JUMPDEST STOP JUMPDEST PUSH2 0x549 PUSH2 0x161F JUMP JUMPDEST PUSH1 0x40 MLOAD DUP1 DUP3 DUP2 MSTORE PUSH1 0x20 ADD SWAP2 POP POP PUSH1 0x40 MLOAD DUP1 SWAP2 SUB SWAP1 RETURN JUMPDEST PUSH2 0x567 PUSH2 0x162C JUMP JUMPDEST PUSH1 0x40 MLOAD DUP1 DUP3 DUP2 MSTORE PUSH1 0x20 ADD SWAP2 POP POP PUSH1 0x40 MLOAD DUP1 SWAP2 SUB SWAP1 RETURN JUMPDEST PUSH2 0x585 PUSH2 0x16E0 JUMP JUMPDEST PUSH1 0x40 MLOAD DUP1 DUP3 DUP2 MSTORE PUSH1 0x20 ADD SWAP2 POP POP PUSH1 0x40 MLOAD DUP1 SWAP2 SUB SWAP1 RETURN JUMPDEST PUSH2 0x5A3 PUSH2 0x16ED JUMP JUMPDEST PUSH1 0x40 MLOAD DUP1 DUP3 PUSH20 0xFFFFFFFFFFFFFFFFFFFFFFFFFFFFFFFFFFFFFFFF AND PUSH20 0xFFFFFFFFFFFFFFFFFFFFFFFFFFFFFFFFFFFFFFFF AND DUP2 MSTORE PUSH1 0x20 ADD SWAP2 POP POP PUSH1 0x40 MLOAD DUP1 SWAP2 SUB SWAP1 RETURN JUMPDEST PUSH2 0x5ED PUSH2 0x171A JUMP JUMPDEST STOP JUMPDEST PUSH2 0x5F7 PUSH2 0x173D JUMP JUMPDEST PUSH1 0x40 MLOAD DUP1 DUP3 DUP2 MSTORE PUSH1 0x20 ADD SWAP2 POP POP PUSH1 0x40 MLOAD DUP1 SWAP2 SUB SWAP1 RETURN JUMPDEST PUSH2 0x615 PUSH2 0x174A JUMP JUMPDEST PUSH1 0x40 MLOAD DUP1 DUP3 PUSH20 0xFFFFFFFFFFFFFFFFFFFFFFFFFFFFFFFFFFFFFFFF AND PUSH20 0xFFFFFFFFFFFFFFFFFFFFFFFFFFFFFFFFFFFFFFFF AND DUP2 MSTORE PUSH1 0x20 ADD SWAP2 POP POP PUSH1 0x40 MLOAD DUP1 SWAP2 SUB SWAP1 RETURN JUMPDEST PUSH2 0x6A2 PUSH1 0x4 DUP1 CALLDATASIZE SUB PUSH1 0x20 DUP2 LT ISZERO PUSH2 0x676 JUMPI PUSH1 0x0 DUP1 PUSH2 0x673 PUSH2 0x245E JUMP JUMPDEST POP POP JUMPDEST DUP2 ADD SWAP1 DUP1 DUP1 CALLDATALOAD PUSH20 0xFFFFFFFFFFFFFFFFFFFFFFFFFFFFFFFFFFFFFFFF AND SWAP1 PUSH1 0x20 ADD SWAP1 SWAP3 SWAP2 SWAP1 POP POP POP PUSH2 0x1776 JUMP JUMPDEST STOP JUMPDEST PUSH1 0x0 PUSH2 0x792 PUSH1 0xC PUSH1 0x0 DUP5 PUSH20 0xFFFFFFFFFFFFFFFFFFFFFFFFFFFFFFFFFFFFFFFF AND PUSH20 0xFFFFFFFFFFFFFFFFFFFFFFFFFFFFFFFFFFFFFFFF AND DUP2 MSTORE PUSH1 0x20 ADD SWAP1 DUP2 MSTORE PUSH1 0x20 ADD PUSH1 0x0 KECCAK256 PUSH2 0x6F0 PUSH2 0x24CC JUMP JUMPDEST PUSH2 0x784 PUSH8 0xDE0B6B3A7640000 PUSH2 0x776 PUSH2 0x75F PUSH1 0xB PUSH1 0x0 DUP10 PUSH20 0xFFFFFFFFFFFFFFFFFFFFFFFFFFFFFFFFFFFFFFFF AND PUSH20 0xFFFFFFFFFFFFFFFFFFFFFFFFFFFFFFFFFFFFFFFF AND DUP2 MSTORE PUSH1 0x20 ADD SWAP1 DUP2 MSTORE PUSH1 0x20 ADD PUSH1 0x0 KECCAK256 PUSH2 0x749 PUSH2 0x24CC JUMP JUMPDEST PUSH2 0x751 PUSH2 0x162C JUMP JUMPDEST PUSH2 0x1805 SWAP1 SWAP2 SWAP1 PUSH4 0xFFFFFFFF AND JUMP JUMPDEST PUSH2 0x768 DUP9 PUSH2 0x1196 JUMP JUMPDEST PUSH2 0x184F SWAP1 SWAP2 SWAP1 PUSH4 0xFFFFFFFF AND JUMP JUMPDEST PUSH2 0x18DE SWAP1 SWAP2 SWAP1 PUSH4 0xFFFFFFFF AND JUMP JUMPDEST PUSH2 0x1928 SWAP1 SWAP2 SWAP1 PUSH4 0xFFFFFFFF AND JUMP JUMPDEST SWAP1 POP SWAP2 SWAP1 POP JUMP JUMPDEST PUSH1 0xC PUSH1 0x20 MSTORE DUP1 PUSH1 0x0 MSTORE PUSH1 0x40 PUSH1 0x0 KECCAK256 PUSH1 0x0 SWAP2 POP SWAP1 POP PUSH2 0x7B5 PUSH2 0x24CC JUMP JUMPDEST DUP2 JUMP JUMPDEST PUSH2 0x7C0 PUSH2 0x13C0 JUMP JUMPDEST PUSH2 0x83B JUMPI PUSH1 0x40 MLOAD PUSH32 0x8C379A000000000000000000000000000000000000000000000000000000000 DUP2 MSTORE PUSH1 0x4 ADD DUP1 DUP1 PUSH1 0x20 ADD DUP3 DUP2 SUB DUP3 MSTORE PUSH1 0x20 DUP2 MSTORE PUSH1 0x20 ADD DUP1 PUSH32 0x4F776E61626C653A2063616C6C6572206973206E6F7420746865206F776E6572 DUP2 MSTORE POP PUSH1 0x20 ADD SWAP2 POP POP PUSH1 0x40 MLOAD DUP1 SWAP2 SUB SWAP1 PUSH2 0x838 PUSH2 0x245E JUMP JUMPDEST POP POP JUMPDEST PUSH1 0x0 PUSH1 0x5 PUSH1 0x0 DUP4 PUSH20 0xFFFFFFFFFFFFFFFFFFFFFFFFFFFFFFFFFFFFFFFF AND PUSH20 0xFFFFFFFFFFFFFFFFFFFFFFFFFFFFFFFFFFFFFFFF AND DUP2 MSTORE PUSH1 0x20 ADD SWAP1 DUP2 MSTORE PUSH1 0x20 ADD PUSH1 0x0 KECCAK256 PUSH1 0x0 PUSH2 0x100 EXP DUP2 PUSH2 0x88B PUSH2 0x24CC JUMP JUMPDEST DUP2 PUSH1 0xFF MUL NOT AND SWAP1 DUP4 ISZERO ISZERO MUL OR SWAP1 PUSH2 0x8A0 PUSH2 0x252F JUMP JUMPDEST POP POP PUSH2 0x91D JUMPI PUSH1 0x40 MLOAD PUSH32 0x8C379A000000000000000000000000000000000000000000000000000000000 DUP2 MSTORE PUSH1 0x4 ADD DUP1 DUP1 PUSH1 0x20 ADD DUP3 DUP2 SUB DUP3 MSTORE PUSH1 0x19 DUP2 MSTORE PUSH1 0x20 ADD DUP1 PUSH32 0x4164647265737320697320686173206265656E20616464656400000000000000 DUP2 MSTORE POP PUSH1 0x20 ADD SWAP2 POP POP PUSH1 0x40 MLOAD DUP1 SWAP2 SUB SWAP1 PUSH2 0x91A PUSH2 0x245E JUMP JUMPDEST POP POP JUMPDEST DUP1 PUSH1 0x4 PUSH1 0x0 PUSH2 0x100 EXP DUP2 PUSH2 0x92F PUSH2 0x24CC JUMP JUMPDEST DUP2 PUSH20 0xFFFFFFFFFFFFFFFFFFFFFFFFFFFFFFFFFFFFFFFF MUL NOT AND SWAP1 DUP4 PUSH20 0xFFFFFFFFFFFFFFFFFFFFFFFFFFFFFFFFFFFFFFFF AND MUL OR SWAP1 PUSH2 0x96B PUSH2 0x252F JUMP JUMPDEST POP POP POP PUSH1 0x1 PUSH1 0x5 PUSH1 0x0 PUSH1 0x4 PUSH1 0x0 SWAP1 PUSH2 0x981 PUSH2 0x24CC JUMP JUMPDEST SWAP1 PUSH2 0x100 EXP SWAP1 DIV PUSH20 0xFFFFFFFFFFFFFFFFFFFFFFFFFFFFFFFFFFFFFFFF AND PUSH20 0xFFFFFFFFFFFFFFFFFFFFFFFFFFFFFFFFFFFFFFFF AND PUSH20 0xFFFFFFFFFFFFFFFFFFFFFFFFFFFFFFFFFFFFFFFF AND DUP2 MSTORE PUSH1 0x20 ADD SWAP1 DUP2 MSTORE PUSH1 0x20 ADD PUSH1 0x0 KECCAK256 PUSH1 0x0 PUSH2 0x100 EXP DUP2 PUSH2 0x9E7 PUSH2 0x24CC JUMP JUMPDEST DUP2 PUSH1 0xFF MUL NOT AND SWAP1 DUP4 ISZERO ISZERO MUL OR SWAP1 PUSH2 0x9FC PUSH2 0x252F JUMP JUMPDEST POP POP POP POP JUMP JUMPDEST PUSH1 0x4 PUSH1 0x0 SWAP1 PUSH2 0xA0F PUSH2 0x24CC JUMP JUMPDEST SWAP1 PUSH2 0x100 EXP SWAP1 DIV PUSH20 0xFFFFFFFFFFFFFFFFFFFFFFFFFFFFFFFFFFFFFFFF AND DUP2 JUMP JUMPDEST PUSH1 0x0 PUSH1 0x1 PUSH2 0xA3B PUSH2 0x24CC JUMP JUMPDEST SWAP1 POP SWAP1 JUMP JUMPDEST PUSH3 0x93A80 DUP2 JUMP JUMPDEST GAS PUSH2 0xA50 PUSH2 0x2594 JUMP JUMPDEST PUSH2 0xA58 PUSH2 0x162C JUMP JUMPDEST PUSH1 0xA DUP2 SWAP1 PUSH2 0xA64 PUSH2 0x252F JUMP JUMPDEST POP POP POP PUSH2 0xA6F PUSH2 0x134E JUMP JUMPDEST PUSH1 0x9 DUP2 SWAP1 PUSH2 0xA7B PUSH2 0x252F JUMP JUMPDEST POP POP POP PUSH1 0x0 PUSH20 0xFFFFFFFFFFFFFFFFFFFFFFFFFFFFFFFFFFFFFFFF AND DUP2 PUSH20 0xFFFFFFFFFFFFFFFFFFFFFFFFFFFFFFFFFFFFFFFF AND EQ PUSH2 0xB5E JUMPI PUSH2 0xABB DUP2 PUSH2 0x6A4 JUMP JUMPDEST PUSH1 0xC PUSH1 0x0 DUP4 PUSH20 0xFFFFFFFFFFFFFFFFFFFFFFFFFFFFFFFFFFFFFFFF AND PUSH20 0xFFFFFFFFFFFFFFFFFFFFFFFFFFFFFFFFFFFFFFFF AND DUP2 MSTORE PUSH1 0x20 ADD SWAP1 DUP2 MSTORE PUSH1 0x20 ADD PUSH1 0x0 KECCAK256 DUP2 SWAP1 PUSH2 0xB04 PUSH2 0x252F JUMP JUMPDEST POP POP POP PUSH1 0xA PUSH2 0xB11 PUSH2 0x24CC JUMP JUMPDEST PUSH1 0xB PUSH1 0x0 DUP4 PUSH20 0xFFFFFFFFFFFFFFFFFFFFFFFFFFFFFFFFFFFFFFFF AND PUSH20 0xFFFFFFFFFFFFFFFFFFFFFFFFFFFFFFFFFFFFFFFF AND DUP2 MSTORE PUSH1 0x20 ADD SWAP1 DUP2 MSTORE PUSH1 0x20 ADD PUSH1 0x0 KECCAK256 DUP2 SWAP1 PUSH2 0xB5A PUSH2 0x252F JUMP JUMPDEST POP POP POP JUMPDEST PUSH1 0x0 DUP3 GT PUSH2 0xBDD JUMPI PUSH1 0x40 MLOAD PUSH32 0x8C379A000000000000000000000000000000000000000000000000000000000 DUP2 MSTORE PUSH1 0x4 ADD DUP1 DUP1 PUSH1 0x20 ADD DUP3 DUP2 SUB DUP3 MSTORE PUSH1 0x11 DUP2 MSTORE PUSH1 0x20 ADD DUP1 PUSH32 0x43616E6E6F742077697468647261772030000000000000000000000000000000 DUP2 MSTORE POP PUSH1 0x20 ADD SWAP2 POP POP PUSH1 0x40 MLOAD DUP1 SWAP2 SUB SWAP1 PUSH2 0xBDA PUSH2 0x245E JUMP JUMPDEST POP POP JUMPDEST PUSH2 0xBE6 DUP3 PUSH2 0x19B9 JUMP JUMPDEST GAS PUSH2 0xBEF PUSH2 0x2594 JUMP JUMPDEST PUSH20 0xFFFFFFFFFFFFFFFFFFFFFFFFFFFFFFFFFFFFFFFF AND PUSH32 0x7084F5476618D8E60B11EF0D7D3F06914655ADB8793E28FF7F018D4C76D505D5 DUP4 PUSH1 0x40 MLOAD DUP1 DUP3 DUP2 MSTORE PUSH1 0x20 ADD SWAP2 POP POP PUSH1 0x40 MLOAD DUP1 SWAP2 SUB SWAP1 LOG2 POP POP JUMP JUMPDEST PUSH1 0x1 ISZERO ISZERO PUSH1 0x5 PUSH1 0x0 PUSH2 0xC50 PUSH2 0x1AF7 JUMP JUMPDEST PUSH20 0xFFFFFFFFFFFFFFFFFFFFFFFFFFFFFFFFFFFFFFFF AND PUSH20 0xFFFFFFFFFFFFFFFFFFFFFFFFFFFFFFFFFFFFFFFF AND DUP2 MSTORE PUSH1 0x20 ADD SWAP1 DUP2 MSTORE PUSH1 0x20 ADD PUSH1 0x0 KECCAK256 PUSH1 0x0 SWAP1 PUSH2 0xC95 PUSH2 0x24CC JUMP JUMPDEST SWAP1 PUSH2 0x100 EXP SWAP1 DIV PUSH1 0xFF AND ISZERO ISZERO EQ PUSH2 0xD00 JUMPI PUSH1 0x40 MLOAD PUSH32 0x8C379A000000000000000000000000000000000000000000000000000000000 DUP2 MSTORE PUSH1 0x4 ADD DUP1 DUP1 PUSH1 0x20 ADD DUP3 DUP2 SUB DUP3 MSTORE PUSH1 0x21 DUP2 MSTORE PUSH1 0x20 ADD DUP1 PUSH2 0x27F9 PUSH1 0x21 SWAP2 CODECOPY PUSH1 0x40 ADD SWAP2 POP POP PUSH1 0x40 MLOAD DUP1 SWAP2 SUB SWAP1 PUSH2 0xCFD PUSH2 0x245E JUMP JUMPDEST POP POP JUMPDEST PUSH1 0x0 PUSH2 0xD0A PUSH2 0x162C JUMP JUMPDEST PUSH1 0xA DUP2 SWAP1 PUSH2 0xD16 PUSH2 0x252F JUMP JUMPDEST POP POP POP PUSH2 0xD21 PUSH2 0x134E JUMP JUMPDEST PUSH1 0x9 DUP2 SWAP1 PUSH2 0xD2D PUSH2 0x252F JUMP JUMPDEST POP POP POP PUSH1 0x0 PUSH20 0xFFFFFFFFFFFFFFFFFFFFFFFFFFFFFFFFFFFFFFFF AND DUP2 PUSH20 0xFFFFFFFFFFFFFFFFFFFFFFFFFFFFFFFFFFFFFFFF AND EQ PUSH2 0xE10 JUMPI PUSH2 0xD6D DUP2 PUSH2 0x6A4 JUMP JUMPDEST PUSH1 0xC PUSH1 0x0 DUP4 PUSH20 0xFFFFFFFFFFFFFFFFFFFFFFFFFFFFFFFFFFFFFFFF AND PUSH20 0xFFFFFFFFFFFFFFFFFFFFFFFFFFFFFFFFFFFFFFFF AND DUP2 MSTORE PUSH1 0x20 ADD SWAP1 DUP2 MSTORE PUSH1 0x20 ADD PUSH1 0x0 KECCAK256 DUP2 SWAP1 PUSH2 0xDB6 PUSH2 0x252F JUMP JUMPDEST POP POP POP PUSH1 0xA PUSH2 0xDC3 PUSH2 0x24CC JUMP JUMPDEST PUSH1 0xB PUSH1 0x0 DUP4 PUSH20 0xFFFFFFFFFFFFFFFFFFFFFFFFFFFFFFFFFFFFFFFF AND PUSH20 0xFFFFFFFFFFFFFFFFFFFFFFFFFFFFFFFFFFFFFFFF AND DUP2 MSTORE PUSH1 0x20 ADD SWAP1 DUP2 MSTORE PUSH1 0x20 ADD PUSH1 0x0 KECCAK256 DUP2 SWAP1 PUSH2 0xE0C PUSH2 0x252F JUMP JUMPDEST POP POP POP JUMPDEST PUSH1 0x7 PUSH2 0xE1A PUSH2 0x24CC JUMP JUMPDEST GAS PUSH2 0xE23 PUSH2 0x25F1 JUMP JUMPDEST LT PUSH2 0xE52 JUMPI PUSH2 0xE3E PUSH3 0x93A80 DUP4 PUSH2 0x18DE SWAP1 SWAP2 SWAP1 PUSH4 0xFFFFFFFF AND JUMP JUMPDEST PUSH1 0x8 DUP2 SWAP1 PUSH2 0xE4A PUSH2 0x252F JUMP JUMPDEST POP POP POP PUSH2 0xED4 JUMP JUMPDEST PUSH1 0x0 PUSH2 0xE78 GAS PUSH2 0xE60 PUSH2 0x25F1 JUMP JUMPDEST PUSH1 0x7 PUSH2 0xE6A PUSH2 0x24CC JUMP JUMPDEST PUSH2 0x1805 SWAP1 SWAP2 SWAP1 PUSH4 0xFFFFFFFF AND JUMP JUMPDEST SWAP1 POP PUSH1 0x0 PUSH2 0xE98 PUSH1 0x8 PUSH2 0xE89 PUSH2 0x24CC JUMP JUMPDEST DUP4 PUSH2 0x184F SWAP1 SWAP2 SWAP1 PUSH4 0xFFFFFFFF AND JUMP JUMPDEST SWAP1 POP PUSH2 0xEC2 PUSH3 0x93A80 PUSH2 0xEB4 DUP4 DUP8 PUSH2 0x1928 SWAP1 SWAP2 SWAP1 PUSH4 0xFFFFFFFF AND JUMP JUMPDEST PUSH2 0x18DE SWAP1 SWAP2 SWAP1 PUSH4 0xFFFFFFFF AND JUMP JUMPDEST PUSH1 0x8 DUP2 SWAP1 PUSH2 0xECE PUSH2 0x252F JUMP JUMPDEST POP POP POP POP POP JUMPDEST GAS PUSH2 0xEDD PUSH2 0x25F1 JUMP JUMPDEST PUSH1 0x9 DUP2 SWAP1 PUSH2 0xEE9 PUSH2 0x252F JUMP JUMPDEST POP POP POP PUSH2 0xF0A PUSH3 0x93A80 GAS PUSH2 0xEFC PUSH2 0x25F1 JUMP JUMPDEST PUSH2 0x1928 SWAP1 SWAP2 SWAP1 PUSH4 0xFFFFFFFF AND JUMP JUMPDEST PUSH1 0x7 DUP2 SWAP1 PUSH2 0xF16 PUSH2 0x252F JUMP JUMPDEST POP POP POP PUSH32 0xDE88A922E0D3B88B24E9623EFEB464919C6BF9F66857A65E2BFCF2CE87A9433D DUP3 PUSH1 0x40 MLOAD DUP1 DUP3 DUP2 MSTORE PUSH1 0x20 ADD SWAP2 POP POP PUSH1 0x40 MLOAD DUP1 SWAP2 SUB SWAP1 LOG1 POP POP JUMP JUMPDEST GAS PUSH2 0xF5D PUSH2 0x2594 JUMP JUMPDEST PUSH2 0xF65 PUSH2 0x162C JUMP JUMPDEST PUSH1 0xA DUP2 SWAP1 PUSH2 0xF71 PUSH2 0x252F JUMP JUMPDEST POP POP POP PUSH2 0xF7C PUSH2 0x134E JUMP JUMPDEST PUSH1 0x9 DUP2 SWAP1 PUSH2 0xF88 PUSH2 0x252F JUMP JUMPDEST POP POP POP PUSH1 0x0 PUSH20 0xFFFFFFFFFFFFFFFFFFFFFFFFFFFFFFFFFFFFFFFF AND DUP2 PUSH20 0xFFFFFFFFFFFFFFFFFFFFFFFFFFFFFFFFFFFFFFFF AND EQ PUSH2 0x106B JUMPI PUSH2 0xFC8 DUP2 PUSH2 0x6A4 JUMP JUMPDEST PUSH1 0xC PUSH1 0x0 DUP4 PUSH20 0xFFFFFFFFFFFFFFFFFFFFFFFFFFFFFFFFFFFFFFFF AND PUSH20 0xFFFFFFFFFFFFFFFFFFFFFFFFFFFFFFFFFFFFFFFF AND DUP2 MSTORE PUSH1 0x20 ADD SWAP1 DUP2 MSTORE PUSH1 0x20 ADD PUSH1 0x0 KECCAK256 DUP2 SWAP1 PUSH2 0x1011 PUSH2 0x252F JUMP JUMPDEST POP POP POP PUSH1 0xA PUSH2 0x101E PUSH2 0x24CC JUMP JUMPDEST PUSH1 0xB PUSH1 0x0 DUP4 PUSH20 0xFFFFFFFFFFFFFFFFFFFFFFFFFFFFFFFFFFFFFFFF AND PUSH20 0xFFFFFFFFFFFFFFFFFFFFFFFFFFFFFFFFFFFFFFFF AND DUP2 MSTORE PUSH1 0x20 ADD SWAP1 DUP2 MSTORE PUSH1 0x20 ADD PUSH1 0x0 KECCAK256 DUP2 SWAP1 PUSH2 0x1067 PUSH2 0x252F JUMP JUMPDEST POP POP POP JUMPDEST PUSH1 0x0 PUSH2 0x107E GAS PUSH2 0x1079 PUSH2 0x2594 JUMP JUMPDEST PUSH2 0x6A4 JUMP JUMPDEST SWAP1 POP PUSH1 0x0 DUP2 GT ISZERO PUSH2 0x1192 JUMPI PUSH1 0x0 PUSH1 0xC PUSH1 0x0 GAS PUSH2 0x1098 PUSH2 0x2594 JUMP JUMPDEST PUSH20 0xFFFFFFFFFFFFFFFFFFFFFFFFFFFFFFFFFFFFFFFF AND PUSH20 0xFFFFFFFFFFFFFFFFFFFFFFFFFFFFFFFFFFFFFFFF AND DUP2 MSTORE PUSH1 0x20 ADD SWAP1 DUP2 MSTORE PUSH1 0x20 ADD PUSH1 0x0 KECCAK256 DUP2 SWAP1 PUSH2 0x10DC PUSH2 0x252F JUMP JUMPDEST POP POP POP PUSH2 0x113B GAS PUSH2 0x10EB PUSH2 0x2594 JUMP JUMPDEST DUP3 PUSH1 0x6 PUSH1 0x0 SWAP1 PUSH2 0x10F9 PUSH2 0x24CC JUMP JUMPDEST SWAP1 PUSH2 0x100 EXP SWAP1 DIV PUSH20 0xFFFFFFFFFFFFFFFFFFFFFFFFFFFFFFFFFFFFFFFF AND PUSH20 0xFFFFFFFFFFFFFFFFFFFFFFFFFFFFFFFFFFFFFFFF AND PUSH2 0x1B07 SWAP1 SWAP3 SWAP2 SWAP1 PUSH4 0xFFFFFFFF AND JUMP JUMPDEST GAS PUSH2 0x1144 PUSH2 0x2594 JUMP JUMPDEST PUSH20 0xFFFFFFFFFFFFFFFFFFFFFFFFFFFFFFFFFFFFFFFF AND PUSH32 0xE2403640BA68FED3A2F88B7557551D1993F84B99BB10FF833F0CF8DB0C5E0486 DUP3 PUSH1 0x40 MLOAD DUP1 DUP3 DUP2 MSTORE PUSH1 0x20 ADD SWAP2 POP POP PUSH1 0x40 MLOAD DUP1 SWAP2 SUB SWAP1 LOG2 JUMPDEST POP POP JUMP JUMPDEST PUSH1 0x0 PUSH1 0x2 PUSH1 0x0 DUP4 PUSH20 0xFFFFFFFFFFFFFFFFFFFFFFFFFFFFFFFFFFFFFFFF AND PUSH20 0xFFFFFFFFFFFFFFFFFFFFFFFFFFFFFFFFFFFFFFFF AND DUP2 MSTORE PUSH1 0x20 ADD SWAP1 DUP2 MSTORE PUSH1 0x20 ADD PUSH1 0x0 KECCAK256 PUSH2 0x11DF PUSH2 0x24CC JUMP JUMPDEST SWAP1 POP SWAP2 SWAP1 POP JUMP JUMPDEST PUSH2 0x11EE PUSH2 0x13C0 JUMP JUMPDEST PUSH2 0x1269 JUMPI PUSH1 0x40 MLOAD PUSH32 0x8C379A000000000000000000000000000000000000000000000000000000000 DUP2 MSTORE PUSH1 0x4 ADD DUP1 DUP1 PUSH1 0x20 ADD DUP3 DUP2 SUB DUP3 MSTORE PUSH1 0x20 DUP2 MSTORE PUSH1 0x20 ADD DUP1 PUSH32 0x4F776E61626C653A2063616C6C6572206973206E6F7420746865206F776E6572 DUP2 MSTORE POP PUSH1 0x20 ADD SWAP2 POP POP PUSH1 0x40 MLOAD DUP1 SWAP2 SUB SWAP1 PUSH2 0x1266 PUSH2 0x245E JUMP JUMPDEST POP POP JUMPDEST PUSH1 0x0 PUSH20 0xFFFFFFFFFFFFFFFFFFFFFFFFFFFFFFFFFFFFFFFF AND PUSH1 0x3 PUSH1 0x0 SWAP1 PUSH2 0x128E PUSH2 0x24CC JUMP JUMPDEST SWAP1 PUSH2 0x100 EXP SWAP1 DIV PUSH20 0xFFFFFFFFFFFFFFFFFFFFFFFFFFFFFFFFFFFFFFFF AND PUSH20 0xFFFFFFFFFFFFFFFFFFFFFFFFFFFFFFFFFFFFFFFF AND PUSH32 0x8BE0079C531659141344CD1FD0A4F28419497F9722A3DAAFE3B4186F6B6457E0 PUSH1 0x40 MLOAD PUSH1 0x40 MLOAD DUP1 SWAP2 SUB SWAP1 LOG3 PUSH1 0x0 PUSH1 0x3 PUSH1 0x0 PUSH2 0x100 EXP DUP2 PUSH2 0x1300 PUSH2 0x24CC JUMP JUMPDEST DUP2 PUSH20 0xFFFFFFFFFFFFFFFFFFFFFFFFFFFFFFFFFFFFFFFF MUL NOT AND SWAP1 DUP4 PUSH20 0xFFFFFFFFFFFFFFFFFFFFFFFFFFFFFFFFFFFFFFFF AND MUL OR SWAP1 PUSH2 0x133C PUSH2 0x252F JUMP JUMPDEST POP POP POP JUMP JUMPDEST PUSH1 0x8 PUSH2 0x134B PUSH2 0x24CC JUMP JUMPDEST DUP2 JUMP JUMPDEST PUSH1 0x0 PUSH2 0x136B GAS PUSH2 0x135C PUSH2 0x25F1 JUMP JUMPDEST PUSH1 0x7 PUSH2 0x1366 PUSH2 0x24CC JUMP JUMPDEST PUSH2 0x1BD8 JUMP JUMPDEST SWAP1 POP SWAP1 JUMP JUMPDEST PUSH1 0xB PUSH1 0x20 MSTORE DUP1 PUSH1 0x0 MSTORE PUSH1 0x40 PUSH1 0x0 KECCAK256 PUSH1 0x0 SWAP2 POP SWAP1 POP PUSH2 0x138C PUSH2 0x24CC JUMP JUMPDEST DUP2 JUMP JUMPDEST PUSH1 0x0 PUSH1 0x3 PUSH1 0x0 SWAP1 PUSH2 0x139E PUSH2 0x24CC JUMP JUMPDEST SWAP1 PUSH2 0x100 EXP SWAP1 DIV PUSH20 0xFFFFFFFFFFFFFFFFFFFFFFFFFFFFFFFFFFFFFFFF AND SWAP1 POP SWAP1 JUMP JUMPDEST PUSH1 0x0 PUSH1 0x3 PUSH1 0x0 SWAP1 PUSH2 0x13CF PUSH2 0x24CC JUMP JUMPDEST SWAP1 PUSH2 0x100 EXP SWAP1 DIV PUSH20 0xFFFFFFFFFFFFFFFFFFFFFFFFFFFFFFFFFFFFFFFF AND PUSH20 0xFFFFFFFFFFFFFFFFFFFFFFFFFFFFFFFFFFFFFFFF AND PUSH2 0x140A PUSH2 0x1AF7 JUMP JUMPDEST PUSH20 0xFFFFFFFFFFFFFFFFFFFFFFFFFFFFFFFFFFFFFFFF AND EQ SWAP1 POP SWAP1 JUMP JUMPDEST GAS PUSH2 0x142F PUSH2 0x2594 JUMP JUMPDEST PUSH2 0x1437 PUSH2 0x162C JUMP JUMPDEST PUSH1 0xA DUP2 SWAP1 PUSH2 0x1443 PUSH2 0x252F JUMP JUMPDEST POP POP POP PUSH2 0x144E PUSH2 0x134E JUMP JUMPDEST PUSH1 0x9 DUP2 SWAP1 PUSH2 0x145A PUSH2 0x252F JUMP JUMPDEST POP POP POP PUSH1 0x0 PUSH20 0xFFFFFFFFFFFFFFFFFFFFFFFFFFFFFFFFFFFFFFFF AND DUP2 PUSH20 0xFFFFFFFFFFFFFFFFFFFFFFFFFFFFFFFFFFFFFFFF AND EQ PUSH2 0x153D JUMPI PUSH2 0x149A DUP2 PUSH2 0x6A4 JUMP JUMPDEST PUSH1 0xC PUSH1 0x0 DUP4 PUSH20 0xFFFFFFFFFFFFFFFFFFFFFFFFFFFFFFFFFFFFFFFF AND PUSH20 0xFFFFFFFFFFFFFFFFFFFFFFFFFFFFFFFFFFFFFFFF AND DUP2 MSTORE PUSH1 0x20 ADD SWAP1 DUP2 MSTORE PUSH1 0x20 ADD PUSH1 0x0 KECCAK256 DUP2 SWAP1 PUSH2 0x14E3 PUSH2 0x252F JUMP JUMPDEST POP POP POP PUSH1 0xA PUSH2 0x14F0 PUSH2 0x24CC JUMP JUMPDEST PUSH1 0xB PUSH1 0x0 DUP4 PUSH20 0xFFFFFFFFFFFFFFFFFFFFFFFFFFFFFFFFFFFFFFFF AND PUSH20 0xFFFFFFFFFFFFFFFFFFFFFFFFFFFFFFFFFFFFFFFF AND DUP2 MSTORE PUSH1 0x20 ADD SWAP1 DUP2 MSTORE PUSH1 0x20 ADD PUSH1 0x0 KECCAK256 DUP2 SWAP1 PUSH2 0x1539 PUSH2 0x252F JUMP JUMPDEST POP POP POP JUMPDEST PUSH1 0x0 DUP3 GT PUSH2 0x15BC JUMPI PUSH1 0x40 MLOAD PUSH32 0x8C379A000000000000000000000000000000000000000000000000000000000 DUP2 MSTORE PUSH1 0x4 ADD DUP1 DUP1 PUSH1 0x20 ADD DUP3 DUP2 SUB DUP3 MSTORE PUSH1 0xE DUP2 MSTORE PUSH1 0x20 ADD DUP1 PUSH32 0x43616E6E6F74207374616B652030000000000000000000000000000000000000 DUP2 MSTORE POP PUSH1 0x20 ADD SWAP2 POP POP PUSH1 0x40 MLOAD DUP1 SWAP2 SUB SWAP1 PUSH2 0x15B9 PUSH2 0x245E JUMP JUMPDEST POP POP JUMPDEST PUSH2 0x15C5 DUP3 PUSH2 0x1BF1 JUMP JUMPDEST GAS PUSH2 0x15CE PUSH2 0x2594 JUMP JUMPDEST PUSH20 0xFFFFFFFFFFFFFFFFFFFFFFFFFFFFFFFFFFFFFFFF AND PUSH32 0x9E71BC8EEA02A63969F509818F2DAFB9254532904319F9DBDA79B67BD34A5F3D DUP4 PUSH1 0x40 MLOAD DUP1 DUP3 DUP2 MSTORE PUSH1 0x20 ADD SWAP2 POP POP PUSH1 0x40 MLOAD DUP1 SWAP2 SUB SWAP1 LOG2 POP POP JUMP JUMPDEST PUSH1 0x9 PUSH2 0x1629 PUSH2 0x24CC JUMP JUMPDEST DUP2 JUMP JUMPDEST PUSH1 0x0 DUP1 PUSH2 0x1637 PUSH2 0xA2F JUMP JUMPDEST EQ ISZERO PUSH2 0x164E JUMPI PUSH1 0xA PUSH2 0x1647 PUSH2 0x24CC JUMP JUMPDEST SWAP1 POP PUSH2 0x16DD JUMP JUMPDEST PUSH2 0x16DA PUSH2 0x16C2 PUSH2 0x165C PUSH2 0xA2F JUMP JUMPDEST PUSH2 0x16B4 PUSH8 0xDE0B6B3A7640000 PUSH2 0x16A6 PUSH1 0x8 PUSH2 0x1675 PUSH2 0x24CC JUMP JUMPDEST PUSH2 0x1698 PUSH1 0x9 PUSH2 0x1682 PUSH2 0x24CC JUMP JUMPDEST PUSH2 0x168A PUSH2 0x134E JUMP JUMPDEST PUSH2 0x1805 SWAP1 SWAP2 SWAP1 PUSH4 0xFFFFFFFF AND JUMP JUMPDEST PUSH2 0x184F SWAP1 SWAP2 SWAP1 PUSH4 0xFFFFFFFF AND JUMP JUMPDEST PUSH2 0x184F SWAP1 SWAP2 SWAP1 PUSH4 0xFFFFFFFF AND JUMP JUMPDEST PUSH2 0x18DE SWAP1 SWAP2 SWAP1 PUSH4 0xFFFFFFFF AND JUMP JUMPDEST PUSH1 0xA PUSH2 0x16CC PUSH2 0x24CC JUMP JUMPDEST PUSH2 0x1928 SWAP1 SWAP2 SWAP1 PUSH4 0xFFFFFFFF AND JUMP JUMPDEST SWAP1 POP JUMPDEST SWAP1 JUMP JUMPDEST PUSH1 0xA PUSH2 0x16EA PUSH2 0x24CC JUMP JUMPDEST DUP2 JUMP JUMPDEST PUSH1 0x6 PUSH1 0x0 SWAP1 PUSH2 0x16FA PUSH2 0x24CC JUMP JUMPDEST SWAP1 PUSH2 0x100 EXP SWAP1 DIV PUSH20 0xFFFFFFFFFFFFFFFFFFFFFFFFFFFFFFFFFFFFFFFF AND DUP2 JUMP JUMPDEST PUSH2 0x1733 PUSH2 0x172E GAS PUSH2 0x1729 PUSH2 0x2594 JUMP JUMPDEST PUSH2 0x1196 JUMP JUMPDEST PUSH2 0xA47 JUMP JUMPDEST PUSH2 0x173B PUSH2 0xF54 JUMP JUMPDEST JUMP JUMPDEST PUSH1 0x7 PUSH2 0x1747 PUSH2 0x24CC JUMP JUMPDEST DUP2 JUMP JUMPDEST PUSH1 0x0 DUP1 SWAP1 PUSH2 0x1756 PUSH2 0x24CC JUMP JUMPDEST SWAP1 PUSH2 0x100 EXP SWAP1 DIV PUSH20 0xFFFFFFFFFFFFFFFFFFFFFFFFFFFFFFFFFFFFFFFF AND DUP2 JUMP JUMPDEST PUSH2 0x177E PUSH2 0x13C0 JUMP JUMPDEST PUSH2 0x17F9 JUMPI PUSH1 0x40 MLOAD PUSH32 0x8C379A000000000000000000000000000000000000000000000000000000000 DUP2 MSTORE PUSH1 0x4 ADD DUP1 DUP1 PUSH1 0x20 ADD DUP3 DUP2 SUB DUP3 MSTORE PUSH1 0x20 DUP2 MSTORE PUSH1 0x20 ADD DUP1 PUSH32 0x4F776E61626C653A2063616C6C6572206973206E6F7420746865206F776E6572 DUP2 MSTORE POP PUSH1 0x20 ADD SWAP2 POP POP PUSH1 0x40 MLOAD DUP1 SWAP2 SUB SWAP1 PUSH2 0x17F6 PUSH2 0x245E JUMP JUMPDEST POP POP JUMPDEST PUSH2 0x1802 DUP2 PUSH2 0x1D8C JUMP JUMPDEST POP JUMP JUMPDEST PUSH1 0x0 PUSH2 0x1847 DUP4 DUP4 PUSH1 0x40 MLOAD DUP1 PUSH1 0x40 ADD PUSH1 0x40 MSTORE DUP1 PUSH1 0x1E DUP2 MSTORE PUSH1 0x20 ADD PUSH32 0x536166654D6174683A207375627472616374696F6E206F766572666C6F770000 DUP2 MSTORE POP PUSH2 0x1EF2 JUMP JUMPDEST SWAP1 POP SWAP3 SWAP2 POP POP JUMP JUMPDEST PUSH1 0x0 DUP1 DUP4 EQ ISZERO PUSH2 0x1862 JUMPI PUSH1 0x0 SWAP1 POP PUSH2 0x18D8 JUMP JUMPDEST PUSH1 0x0 DUP3 DUP5 MUL SWAP1 POP DUP3 DUP5 DUP3 DUP2 PUSH2 0x1873 JUMPI INVALID JUMPDEST DIV EQ PUSH2 0x18D3 JUMPI PUSH1 0x40 MLOAD PUSH32 0x8C379A000000000000000000000000000000000000000000000000000000000 DUP2 MSTORE PUSH1 0x4 ADD DUP1 DUP1 PUSH1 0x20 ADD DUP3 DUP2 SUB DUP3 MSTORE PUSH1 0x21 DUP2 MSTORE PUSH1 0x20 ADD DUP1 PUSH2 0x27D8 PUSH1 0x21 SWAP2 CODECOPY PUSH1 0x40 ADD SWAP2 POP POP PUSH1 0x40 MLOAD DUP1 SWAP2 SUB SWAP1 PUSH2 0x18D0 PUSH2 0x245E JUMP JUMPDEST POP POP JUMPDEST DUP1 SWAP2 POP POP JUMPDEST SWAP3 SWAP2 POP POP JUMP JUMPDEST PUSH1 0x0 PUSH2 0x1920 DUP4 DUP4 PUSH1 0x40 MLOAD DUP1 PUSH1 0x40 ADD PUSH1 0x40 MSTORE DUP1 PUSH1 0x1A DUP2 MSTORE PUSH1 0x20 ADD PUSH32 0x536166654D6174683A206469766973696F6E206279207A65726F000000000000 DUP2 MSTORE POP PUSH2 0x1FBB JUMP JUMPDEST SWAP1 POP SWAP3 SWAP2 POP POP JUMP JUMPDEST PUSH1 0x0 DUP1 DUP3 DUP5 ADD SWAP1 POP DUP4 DUP2 LT ISZERO PUSH2 0x19AF JUMPI PUSH1 0x40 MLOAD PUSH32 0x8C379A000000000000000000000000000000000000000000000000000000000 DUP2 MSTORE PUSH1 0x4 ADD DUP1 DUP1 PUSH1 0x20 ADD DUP3 DUP2 SUB DUP3 MSTORE PUSH1 0x1B DUP2 MSTORE PUSH1 0x20 ADD DUP1 PUSH32 0x536166654D6174683A206164646974696F6E206F766572666C6F770000000000 DUP2 MSTORE POP PUSH1 0x20 ADD SWAP2 POP POP PUSH1 0x40 MLOAD DUP1 SWAP2 SUB SWAP1 PUSH2 0x19AC PUSH2 0x245E JUMP JUMPDEST POP POP JUMPDEST DUP1 SWAP2 POP POP SWAP3 SWAP2 POP POP JUMP JUMPDEST PUSH2 0x19D5 DUP2 PUSH1 0x1 PUSH2 0x19C7 PUSH2 0x24CC JUMP JUMPDEST PUSH2 0x1805 SWAP1 SWAP2 SWAP1 PUSH4 0xFFFFFFFF AND JUMP JUMPDEST PUSH1 0x1 DUP2 SWAP1 PUSH2 0x19E1 PUSH2 0x252F JUMP JUMPDEST POP POP POP PUSH2 0x1A45 DUP2 PUSH1 0x2 PUSH1 0x0 GAS PUSH2 0x19F5 PUSH2 0x2594 JUMP JUMPDEST PUSH20 0xFFFFFFFFFFFFFFFFFFFFFFFFFFFFFFFFFFFFFFFF AND PUSH20 0xFFFFFFFFFFFFFFFFFFFFFFFFFFFFFFFFFFFFFFFF AND DUP2 MSTORE PUSH1 0x20 ADD SWAP1 DUP2 MSTORE PUSH1 0x20 ADD PUSH1 0x0 KECCAK256 PUSH2 0x1A37 PUSH2 0x24CC JUMP JUMPDEST PUSH2 0x1805 SWAP1 SWAP2 SWAP1 PUSH4 0xFFFFFFFF AND JUMP JUMPDEST PUSH1 0x2 PUSH1 0x0 GAS PUSH2 0x1A52 PUSH2 0x2594 JUMP JUMPDEST PUSH20 0xFFFFFFFFFFFFFFFFFFFFFFFFFFFFFFFFFFFFFFFF AND PUSH20 0xFFFFFFFFFFFFFFFFFFFFFFFFFFFFFFFFFFFFFFFF AND DUP2 MSTORE PUSH1 0x20 ADD SWAP1 DUP2 MSTORE PUSH1 0x20 ADD PUSH1 0x0 KECCAK256 DUP2 SWAP1 PUSH2 0x1A96 PUSH2 0x252F JUMP JUMPDEST POP POP POP PUSH2 0x1AF4 GAS PUSH2 0x1AA5 PUSH2 0x2594 JUMP JUMPDEST DUP3 PUSH1 0x0 DUP1 SWAP1 PUSH2 0x1AB2 PUSH2 0x24CC JUMP JUMPDEST SWAP1 PUSH2 0x100 EXP SWAP1 DIV PUSH20 0xFFFFFFFFFFFFFFFFFFFFFFFFFFFFFFFFFFFFFFFF AND PUSH20 0xFFFFFFFFFFFFFFFFFFFFFFFFFFFFFFFFFFFFFFFF AND PUSH2 0x1B07 SWAP1 SWAP3 SWAP2 SWAP1 PUSH4 0xFFFFFFFF AND JUMP JUMPDEST POP JUMP JUMPDEST PUSH1 0x0 GAS PUSH2 0x1B02 PUSH2 0x2594 JUMP JUMPDEST SWAP1 POP SWAP1 JUMP JUMPDEST PUSH2 0x1BD3 DUP4 DUP5 PUSH20 0xFFFFFFFFFFFFFFFFFFFFFFFFFFFFFFFFFFFFFFFF AND PUSH4 0xA9059CBB SWAP1 POP PUSH1 0xE0 SHL DUP5 DUP5 PUSH1 0x40 MLOAD PUSH1 0x24 ADD DUP1 DUP4 PUSH20 0xFFFFFFFFFFFFFFFFFFFFFFFFFFFFFFFFFFFFFFFF AND PUSH20 0xFFFFFFFFFFFFFFFFFFFFFFFFFFFFFFFFFFFFFFFF AND DUP2 MSTORE PUSH1 0x20 ADD DUP3 DUP2 MSTORE PUSH1 0x20 ADD SWAP3 POP POP POP PUSH1 0x40 MLOAD PUSH1 0x20 DUP2 DUP4 SUB SUB DUP2 MSTORE SWAP1 PUSH1 0x40 MSTORE SWAP1 PUSH28 0xFFFFFFFFFFFFFFFFFFFFFFFFFFFFFFFFFFFFFFFFFFFFFFFFFFFFFFFF NOT AND PUSH1 0x20 DUP3 ADD DUP1 MLOAD PUSH28 0xFFFFFFFFFFFFFFFFFFFFFFFFFFFFFFFFFFFFFFFFFFFFFFFFFFFFFFFF DUP4 DUP2 DUP4 AND OR DUP4 MSTORE POP POP POP POP PUSH2 0x208A JUMP JUMPDEST POP POP POP JUMP JUMPDEST PUSH1 0x0 DUP2 DUP4 LT PUSH2 0x1BE7 JUMPI DUP2 PUSH2 0x1BE9 JUMP JUMPDEST DUP3 JUMPDEST SWAP1 POP SWAP3 SWAP2 POP POP JUMP JUMPDEST PUSH2 0x1C0D DUP2 PUSH1 0x1 PUSH2 0x1BFF PUSH2 0x24CC JUMP JUMPDEST PUSH2 0x1928 SWAP1 SWAP2 SWAP1 PUSH4 0xFFFFFFFF AND JUMP JUMPDEST PUSH1 0x1 DUP2 SWAP1 PUSH2 0x1C19 PUSH2 0x252F JUMP JUMPDEST POP POP POP PUSH2 0x1C7D DUP2 PUSH1 0x2 PUSH1 0x0 GAS PUSH2 0x1C2D PUSH2 0x2594 JUMP JUMPDEST PUSH20 0xFFFFFFFFFFFFFFFFFFFFFFFFFFFFFFFFFFFFFFFF AND PUSH20 0xFFFFFFFFFFFFFFFFFFFFFFFFFFFFFFFFFFFFFFFF AND DUP2 MSTORE PUSH1 0x20 ADD SWAP1 DUP2 MSTORE PUSH1 0x20 ADD PUSH1 0x0 KECCAK256 PUSH2 0x1C6F PUSH2 0x24CC JUMP JUMPDEST PUSH2 0x1928 SWAP1 SWAP2 SWAP1 PUSH4 0xFFFFFFFF AND JUMP JUMPDEST PUSH1 0x2 PUSH1 0x0 GAS PUSH2 0x1C8A PUSH2 0x2594 JUMP JUMPDEST PUSH20 0xFFFFFFFFFFFFFFFFFFFFFFFFFFFFFFFFFFFFFFFF AND PUSH20 0xFFFFFFFFFFFFFFFFFFFFFFFFFFFFFFFFFFFFFFFF AND DUP2 MSTORE PUSH1 0x20 ADD SWAP1 DUP2 MSTORE PUSH1 0x20 ADD PUSH1 0x0 KECCAK256 DUP2 SWAP1 PUSH2 0x1CCE PUSH2 0x252F JUMP JUMPDEST POP POP POP PUSH2 0x1D89 GAS PUSH2 0x1CDD PUSH2 0x2594 JUMP JUMPDEST GAS PUSH4 0x996D79A5 MSIZE DUP2 PUSH1 0xE0 SHL DUP2 MSTORE PUSH1 0x20 DUP2 PUSH1 0x4 DUP4 CALLER PUSH1 0x0 SWAP1 GAS CALL PC PUSH1 0x1D ADD JUMPI RETURNDATASIZE PUSH1 0x1 EQ PC PUSH1 0xC ADD JUMPI RETURNDATASIZE PUSH1 0x0 DUP1 RETURNDATACOPY RETURNDATASIZE PUSH3 0x123456 MSTORE PUSH1 0xEA PUSH2 0x109C MSTORE DUP1 MLOAD SWAP3 POP PUSH1 0x0 JUMPDEST PUSH1 0x40 DUP2 LT ISZERO PUSH2 0x1D36 JUMPI PUSH1 0x0 DUP2 DUP4 ADD MSTORE PUSH1 0x20 DUP2 ADD SWAP1 POP PUSH2 0x1D1C JUMP JUMPDEST POP POP POP DUP4 PUSH1 0x0 DUP1 SWAP1 PUSH2 0x1D46 PUSH2 0x24CC JUMP JUMPDEST SWAP1 PUSH2 0x100 EXP SWAP1 DIV PUSH20 0xFFFFFFFFFFFFFFFFFFFFFFFFFFFFFFFFFFFFFFFF AND PUSH20 0xFFFFFFFFFFFFFFFFFFFFFFFFFFFFFFFFFFFFFFFF AND PUSH2 0x2306 SWAP1 SWAP4 SWAP3 SWAP2 SWAP1 PUSH4 0xFFFFFFFF AND JUMP JUMPDEST POP JUMP JUMPDEST PUSH1 0x0 PUSH20 0xFFFFFFFFFFFFFFFFFFFFFFFFFFFFFFFFFFFFFFFF AND DUP2 PUSH20 0xFFFFFFFFFFFFFFFFFFFFFFFFFFFFFFFFFFFFFFFF AND EQ ISZERO PUSH2 0x1E1B JUMPI PUSH1 0x40 MLOAD PUSH32 0x8C379A000000000000000000000000000000000000000000000000000000000 DUP2 MSTORE PUSH1 0x4 ADD DUP1 DUP1 PUSH1 0x20 ADD DUP3 DUP2 SUB DUP3 MSTORE PUSH1 0x26 DUP2 MSTORE PUSH1 0x20 ADD DUP1 PUSH2 0x27B2 PUSH1 0x26 SWAP2 CODECOPY PUSH1 0x40 ADD SWAP2 POP POP PUSH1 0x40 MLOAD DUP1 SWAP2 SUB SWAP1 PUSH2 0x1E18 PUSH2 0x245E JUMP JUMPDEST POP POP JUMPDEST DUP1 PUSH20 0xFFFFFFFFFFFFFFFFFFFFFFFFFFFFFFFFFFFFFFFF AND PUSH1 0x3 PUSH1 0x0 SWAP1 PUSH2 0x1E3F PUSH2 0x24CC JUMP JUMPDEST SWAP1 PUSH2 0x100 EXP SWAP1 DIV PUSH20 0xFFFFFFFFFFFFFFFFFFFFFFFFFFFFFFFFFFFFFFFF AND PUSH20 0xFFFFFFFFFFFFFFFFFFFFFFFFFFFFFFFFFFFFFFFF AND PUSH32 0x8BE0079C531659141344CD1FD0A4F28419497F9722A3DAAFE3B4186F6B6457E0 PUSH1 0x40 MLOAD PUSH1 0x40 MLOAD DUP1 SWAP2 SUB SWAP1 LOG3 DUP1 PUSH1 0x3 PUSH1 0x0 PUSH2 0x100 EXP DUP2 PUSH2 0x1EB0 PUSH2 0x24CC JUMP JUMPDEST DUP2 PUSH20 0xFFFFFFFFFFFFFFFFFFFFFFFFFFFFFFFFFFFFFFFF MUL NOT AND SWAP1 DUP4 PUSH20 0xFFFFFFFFFFFFFFFFFFFFFFFFFFFFFFFFFFFFFFFF AND MUL OR SWAP1 PUSH2 0x1EEC PUSH2 0x252F JUMP JUMPDEST POP POP POP POP JUMP JUMPDEST PUSH1 0x0 DUP4 DUP4 GT ISZERO DUP3 SWAP1 PUSH2 0x1FA8 JUMPI PUSH1 0x40 MLOAD PUSH32 0x8C379A000000000000000000000000000000000000000000000000000000000 DUP2 MSTORE PUSH1 0x4 ADD DUP1 DUP1 PUSH1 0x20 ADD DUP3 DUP2 SUB DUP3 MSTORE DUP4 DUP2 DUP2 MLOAD DUP2 MSTORE PUSH1 0x20 ADD SWAP2 POP DUP1 MLOAD SWAP1 PUSH1 0x20 ADD SWAP1 DUP1 DUP4 DUP4 PUSH1 0x0 JUMPDEST DUP4 DUP2 LT ISZERO PUSH2 0x1F64 JUMPI DUP1 DUP3 ADD MLOAD DUP2 DUP5 ADD MSTORE PUSH1 0x20 DUP2 ADD SWAP1 POP PUSH2 0x1F49 JUMP JUMPDEST POP POP POP POP SWAP1 POP SWAP1 DUP2 ADD SWAP1 PUSH1 0x1F AND DUP1 ISZERO PUSH2 0x1F91 JUMPI DUP1 DUP3 SUB DUP1 MLOAD PUSH1 0x1 DUP4 PUSH1 0x20 SUB PUSH2 0x100 EXP SUB NOT AND DUP2 MSTORE PUSH1 0x20 ADD SWAP2 POP JUMPDEST POP SWAP3 POP POP POP PUSH1 0x40 MLOAD DUP1 SWAP2 SUB SWAP1 PUSH2 0x1FA5 PUSH2 0x245E JUMP JUMPDEST POP POP JUMPDEST POP PUSH1 0x0 DUP4 DUP6 SUB SWAP1 POP DUP1 SWAP2 POP POP SWAP4 SWAP3 POP POP POP JUMP JUMPDEST PUSH1 0x0 DUP1 DUP4 GT DUP3 SWAP1 PUSH2 0x2070 JUMPI PUSH1 0x40 MLOAD PUSH32 0x8C379A000000000000000000000000000000000000000000000000000000000 DUP2 MSTORE PUSH1 0x4 ADD DUP1 DUP1 PUSH1 0x20 ADD DUP3 DUP2 SUB DUP3 MSTORE DUP4 DUP2 DUP2 MLOAD DUP2 MSTORE PUSH1 0x20 ADD SWAP2 POP DUP1 MLOAD SWAP1 PUSH1 0x20 ADD SWAP1 DUP1 DUP4 DUP4 PUSH1 0x0 JUMPDEST DUP4 DUP2 LT ISZERO PUSH2 0x202C JUMPI DUP1 DUP3 ADD MLOAD DUP2 DUP5 ADD MSTORE PUSH1 0x20 DUP2 ADD SWAP1 POP PUSH2 0x2011 JUMP JUMPDEST POP POP POP POP SWAP1 POP SWAP1 DUP2 ADD SWAP1 PUSH1 0x1F AND DUP1 ISZERO PUSH2 0x2059 JUMPI DUP1 DUP3 SUB DUP1 MLOAD PUSH1 0x1 DUP4 PUSH1 0x20 SUB PUSH2 0x100 EXP SUB NOT AND DUP2 MSTORE PUSH1 0x20 ADD SWAP2 POP JUMPDEST POP SWAP3 POP POP POP PUSH1 0x40 MLOAD DUP1 SWAP2 SUB SWAP1 PUSH2 0x206D PUSH2 0x245E JUMP JUMPDEST POP POP JUMPDEST POP PUSH1 0x0 DUP4 DUP6 DUP2 PUSH2 0x207C JUMPI INVALID JUMPDEST DIV SWAP1 POP DUP1 SWAP2 POP POP SWAP4 SWAP3 POP POP POP JUMP JUMPDEST PUSH2 0x20A9 DUP3 PUSH20 0xFFFFFFFFFFFFFFFFFFFFFFFFFFFFFFFFFFFFFFFF AND PUSH2 0x240C JUMP JUMPDEST PUSH2 0x2124 JUMPI PUSH1 0x40 MLOAD PUSH32 0x8C379A000000000000000000000000000000000000000000000000000000000 DUP2 MSTORE PUSH1 0x4 ADD DUP1 DUP1 PUSH1 0x20 ADD DUP3 DUP2 SUB DUP3 MSTORE PUSH1 0x1F DUP2 MSTORE PUSH1 0x20 ADD DUP1 PUSH32 0x5361666545524332303A2063616C6C20746F206E6F6E2D636F6E747261637400 DUP2 MSTORE POP PUSH1 0x20 ADD SWAP2 POP POP PUSH1 0x40 MLOAD DUP1 SWAP2 SUB SWAP1 PUSH2 0x2121 PUSH2 0x245E JUMP JUMPDEST POP POP JUMPDEST PUSH1 0x0 PUSH1 0x60 DUP4 PUSH20 0xFFFFFFFFFFFFFFFFFFFFFFFFFFFFFFFFFFFFFFFF AND DUP4 PUSH1 0x40 MLOAD DUP1 DUP3 DUP1 MLOAD SWAP1 PUSH1 0x20 ADD SWAP1 DUP1 DUP4 DUP4 JUMPDEST PUSH1 0x20 DUP4 LT PUSH2 0x2173 JUMPI DUP1 MLOAD DUP3 MSTORE PUSH1 0x20 DUP3 ADD SWAP2 POP PUSH1 0x20 DUP2 ADD SWAP1 POP PUSH1 0x20 DUP4 SUB SWAP3 POP PUSH2 0x2150 JUMP JUMPDEST PUSH1 0x1 DUP4 PUSH1 0x20 SUB PUSH2 0x100 EXP SUB DUP1 NOT DUP3 MLOAD AND DUP2 DUP5 MLOAD AND DUP1 DUP3 OR DUP6 MSTORE POP POP POP POP POP POP SWAP1 POP ADD SWAP2 POP POP PUSH1 0x0 PUSH1 0x40 MLOAD DUP1 DUP4 SUB DUP2 PUSH1 0x0 DUP7 GAS PUSH2 0x21AD PUSH2 0x264E JUMP JUMPDEST POP POP POP POP POP POP SWAP2 POP POP RETURNDATASIZE DUP1 PUSH1 0x0 DUP2 EQ PUSH2 0x21E2 JUMPI PUSH1 0x40 MLOAD SWAP2 POP PUSH1 0x1F NOT PUSH1 0x3F RETURNDATASIZE ADD AND DUP3 ADD PUSH1 0x40 MSTORE RETURNDATASIZE DUP3 MSTORE RETURNDATASIZE PUSH1 0x0 PUSH1 0x20 DUP5 ADD RETURNDATACOPY PUSH2 0x21E7 JUMP JUMPDEST PUSH1 0x60 SWAP2 POP JUMPDEST POP SWAP2 POP SWAP2 POP DUP2 PUSH2 0x2268 JUMPI PUSH1 0x40 MLOAD PUSH32 0x8C379A000000000000000000000000000000000000000000000000000000000 DUP2 MSTORE PUSH1 0x4 ADD DUP1 DUP1 PUSH1 0x20 ADD DUP3 DUP2 SUB DUP3 MSTORE PUSH1 0x20 DUP2 MSTORE PUSH1 0x20 ADD DUP1 PUSH32 0x5361666545524332303A206C6F772D6C6576656C2063616C6C206661696C6564 DUP2 MSTORE POP PUSH1 0x20 ADD SWAP2 POP POP PUSH1 0x40 MLOAD DUP1 SWAP2 SUB SWAP1 PUSH2 0x2265 PUSH2 0x245E JUMP JUMPDEST POP POP JUMPDEST PUSH1 0x0 DUP2 MLOAD GT ISZERO PUSH2 0x2300 JUMPI DUP1 DUP1 PUSH1 0x20 ADD SWAP1 MLOAD PUSH1 0x20 DUP2 LT ISZERO PUSH2 0x2290 JUMPI PUSH1 0x0 DUP1 PUSH2 0x228D PUSH2 0x245E JUMP JUMPDEST POP POP JUMPDEST DUP2 ADD SWAP1 DUP1 DUP1 MLOAD SWAP1 PUSH1 0x20 ADD SWAP1 SWAP3 SWAP2 SWAP1 POP POP POP PUSH2 0x22FF JUMPI PUSH1 0x40 MLOAD PUSH32 0x8C379A000000000000000000000000000000000000000000000000000000000 DUP2 MSTORE PUSH1 0x4 ADD DUP1 DUP1 PUSH1 0x20 ADD DUP3 DUP2 SUB DUP3 MSTORE PUSH1 0x2A DUP2 MSTORE PUSH1 0x20 ADD DUP1 PUSH2 0x281A PUSH1 0x2A SWAP2 CODECOPY PUSH1 0x40 ADD SWAP2 POP POP PUSH1 0x40 MLOAD DUP1 SWAP2 SUB SWAP1 PUSH2 0x22FC PUSH2 0x245E JUMP JUMPDEST POP POP JUMPDEST JUMPDEST POP POP POP POP JUMP JUMPDEST PUSH2 0x2406 DUP5 DUP6 PUSH20 0xFFFFFFFFFFFFFFFFFFFFFFFFFFFFFFFFFFFFFFFF AND PUSH4 0x23B872DD SWAP1 POP PUSH1 0xE0 SHL DUP6 DUP6 DUP6 PUSH1 0x40 MLOAD PUSH1 0x24 ADD DUP1 DUP5 PUSH20 0xFFFFFFFFFFFFFFFFFFFFFFFFFFFFFFFFFFFFFFFF AND PUSH20 0xFFFFFFFFFFFFFFFFFFFFFFFFFFFFFFFFFFFFFFFF AND DUP2 MSTORE PUSH1 0x20 ADD DUP4 PUSH20 0xFFFFFFFFFFFFFFFFFFFFFFFFFFFFFFFFFFFFFFFF AND PUSH20 0xFFFFFFFFFFFFFFFFFFFFFFFFFFFFFFFFFFFFFFFF AND DUP2 MSTORE PUSH1 0x20 ADD DUP3 DUP2 MSTORE PUSH1 0x20 ADD SWAP4 POP POP POP POP PUSH1 0x40 MLOAD PUSH1 0x20 DUP2 DUP4 SUB SUB DUP2 MSTORE SWAP1 PUSH1 0x40 MSTORE SWAP1 PUSH28 0xFFFFFFFFFFFFFFFFFFFFFFFFFFFFFFFFFFFFFFFFFFFFFFFFFFFFFFFF NOT AND PUSH1 0x20 DUP3 ADD DUP1 MLOAD PUSH28 0xFFFFFFFFFFFFFFFFFFFFFFFFFFFFFFFFFFFFFFFFFFFFFFFFFFFFFFFF DUP4 DUP2 DUP4 AND OR DUP4 MSTORE POP POP POP POP PUSH2 0x208A JUMP JUMPDEST POP POP POP POP JUMP JUMPDEST PUSH1 0x0 DUP1 PUSH1 0x0 PUSH32 0xC5D2460186F7233C927E7DB2DCC703C0E500B653CA82273B7BFAD8045D85A470 PUSH1 0x0 SHL SWAP1 POP DUP4 PUSH2 0x2440 PUSH2 0x274E JUMP JUMPDEST SWAP2 POP PUSH1 0x0 DUP1 SHL DUP3 EQ ISZERO DUP1 ISZERO PUSH2 0x2455 JUMPI POP DUP1 DUP3 EQ ISZERO JUMPDEST SWAP3 POP POP POP SWAP2 SWAP1 POP JUMP JUMPDEST PUSH4 0x2A2A7ADB MSIZE DUP2 PUSH1 0xE0 SHL DUP2 MSTORE PUSH1 0x4 DUP2 ADD PUSH1 0x20 DUP2 MSTORE DUP6 PUSH1 0x20 DUP3 ADD MSTORE PUSH1 0x0 JUMPDEST DUP7 DUP2 LT ISZERO PUSH2 0x2499 JUMPI DUP1 DUP7 ADD MLOAD DUP2 PUSH1 0x40 DUP5 ADD ADD MSTORE PUSH1 0x20 DUP2 ADD SWAP1 POP PUSH2 0x247B JUMP JUMPDEST POP PUSH1 0x20 DUP3 DUP8 PUSH1 0x64 ADD DUP5 CALLER PUSH1 0x0 SWAP1 GAS CALL PC PUSH1 0x1D ADD JUMPI RETURNDATASIZE PUSH1 0x1 EQ PC PUSH1 0xC ADD JUMPI RETURNDATASIZE PUSH1 0x0 DUP1 RETURNDATACOPY RETURNDATASIZE PUSH3 0x123456 MSTORE PUSH1 0xEA PUSH2 0x109C MSTORE POP POP POP JUMP JUMPDEST PUSH4 0x3DAA959 MSIZE DUP2 PUSH1 0xE0 SHL DUP2 MSTORE DUP4 PUSH1 0x4 DUP3 ADD MSTORE PUSH1 0x20 DUP2 PUSH1 0x24 DUP4 CALLER PUSH1 0x0 SWAP1 GAS CALL PC PUSH1 0x1D ADD JUMPI RETURNDATASIZE PUSH1 0x1 EQ PC PUSH1 0xC ADD JUMPI RETURNDATASIZE PUSH1 0x0 DUP1 RETURNDATACOPY RETURNDATASIZE PUSH3 0x123456 MSTORE PUSH1 0xEA PUSH2 0x109C MSTORE DUP1 MLOAD SWAP4 POP PUSH1 0x0 JUMPDEST PUSH1 0x40 DUP2 LT ISZERO PUSH2 0x252A JUMPI PUSH1 0x0 DUP2 DUP4 ADD MSTORE PUSH1 0x20 DUP2 ADD SWAP1 POP PUSH2 0x2510 JUMP JUMPDEST POP POP POP JUMP JUMPDEST PUSH4 0x22BD64C0 MSIZE DUP2 PUSH1 0xE0 SHL DUP2 MSTORE DUP4 PUSH1 0x4 DUP3 ADD MSTORE DUP5 PUSH1 0x24 DUP3 ADD MSTORE PUSH1 0x0 DUP2 PUSH1 0x44 DUP4 CALLER PUSH1 0x0 SWAP1 GAS CALL PC PUSH1 0x1D ADD JUMPI RETURNDATASIZE PUSH1 0x1 EQ PC PUSH1 0xC ADD JUMPI RETURNDATASIZE PUSH1 0x0 DUP1 RETURNDATACOPY RETURNDATASIZE PUSH3 0x123456 MSTORE PUSH1 0xEA PUSH2 0x109C MSTORE PUSH1 0x0 JUMPDEST PUSH1 0x40 DUP2 LT ISZERO PUSH2 0x258F JUMPI PUSH1 0x0 DUP2 DUP4 ADD MSTORE PUSH1 0x20 DUP2 ADD SWAP1 POP PUSH2 0x2575 JUMP JUMPDEST POP POP POP JUMP JUMPDEST PUSH4 0x73509064 MSIZE DUP2 PUSH1 0xE0 SHL DUP2 MSTORE PUSH1 0x20 DUP2 PUSH1 0x4 DUP4 CALLER PUSH1 0x0 SWAP1 GAS CALL PC PUSH1 0x1D ADD JUMPI RETURNDATASIZE PUSH1 0x1 EQ PC PUSH1 0xC ADD JUMPI RETURNDATASIZE PUSH1 0x0 DUP1 RETURNDATACOPY RETURNDATASIZE PUSH3 0x123456 MSTORE PUSH1 0xEA PUSH2 0x109C MSTORE DUP1 MLOAD SWAP4 POP PUSH1 0x0 JUMPDEST PUSH1 0x40 DUP2 LT ISZERO PUSH2 0x25EC JUMPI PUSH1 0x0 DUP2 DUP4 ADD MSTORE PUSH1 0x20 DUP2 ADD SWAP1 POP PUSH2 0x25D2 JUMP JUMPDEST POP POP POP JUMP JUMPDEST PUSH4 0xBDBF8C36 MSIZE DUP2 PUSH1 0xE0 SHL DUP2 MSTORE PUSH1 0x20 DUP2 PUSH1 0x4 DUP4 CALLER PUSH1 0x0 SWAP1 GAS CALL PC PUSH1 0x1D ADD JUMPI RETURNDATASIZE PUSH1 0x1 EQ PC PUSH1 0xC ADD JUMPI RETURNDATASIZE PUSH1 0x0 DUP1 RETURNDATACOPY RETURNDATASIZE PUSH3 0x123456 MSTORE PUSH1 0xEA PUSH2 0x109C MSTORE DUP1 MLOAD SWAP4 POP PUSH1 0x0 JUMPDEST PUSH1 0x40 DUP2 LT ISZERO PUSH2 0x2649 JUMPI PUSH1 0x0 DUP2 DUP4 ADD MSTORE PUSH1 0x20 DUP2 ADD SWAP1 POP PUSH2 0x262F JUMP JUMPDEST POP POP POP JUMP JUMPDEST PUSH4 0x85979F76 MSIZE DUP2 PUSH1 0xE0 SHL DUP2 MSTORE PUSH2 0x268D JUMP JUMPDEST PUSH1 0x0 DUP2 SWAP1 POP DUP2 DUP4 GT ISZERO PUSH2 0x2670 JUMPI DUP3 SWAP1 POP JUMPDEST SWAP3 SWAP2 POP POP JUMP JUMPDEST PUSH1 0x0 DUP2 SWAP1 POP DUP2 DUP4 LT ISZERO PUSH2 0x2687 JUMPI DUP3 SWAP1 POP JUMPDEST SWAP3 SWAP2 POP POP JUMP JUMPDEST DUP4 PUSH1 0x4 DUP3 ADD MSTORE DUP5 PUSH1 0x24 DUP3 ADD MSTORE PUSH1 0x60 PUSH1 0x44 DUP3 ADD MSTORE DUP8 PUSH1 0x64 DUP3 ADD MSTORE PUSH1 0x84 DUP2 ADD PUSH1 0x0 JUMPDEST DUP10 DUP2 LT ISZERO PUSH2 0x26C8 JUMPI DUP1 DUP10 ADD MLOAD DUP2 DUP4 ADD MSTORE PUSH1 0x20 DUP2 ADD SWAP1 POP PUSH2 0x26AD JUMP JUMPDEST POP PUSH1 0x60 DUP3 DUP11 PUSH1 0xA4 ADD DUP5 CALLER PUSH1 0x0 SWAP1 GAS CALL PC PUSH1 0x1D ADD JUMPI RETURNDATASIZE PUSH1 0x1 EQ PC PUSH1 0xC ADD JUMPI RETURNDATASIZE PUSH1 0x0 DUP1 RETURNDATACOPY RETURNDATASIZE PUSH3 0x123456 MSTORE PUSH1 0xEA PUSH2 0x109C MSTORE DUP2 MLOAD PUSH1 0x40 DUP4 ADD MLOAD RETURNDATASIZE PUSH1 0x0 DUP6 RETURNDATACOPY DUP13 DUP13 DUP3 PUSH1 0x60 DUP8 ADD CALLER POP PUSH1 0x0 PUSH1 0x4 GAS CALL POP MSIZE PUSH2 0x271D DUP15 RETURNDATASIZE PUSH2 0x2676 JUMP JUMPDEST DUP14 ADD PUSH2 0x2729 DUP2 DUP8 PUSH2 0x265F JUMP JUMPDEST JUMPDEST DUP3 DUP2 LT ISZERO PUSH2 0x2741 JUMPI PUSH1 0x0 DUP2 MSTORE PUSH1 0x20 DUP2 ADD SWAP1 POP PUSH2 0x272A JUMP JUMPDEST POP DUP4 SWAP15 POP POP POP POP POP POP POP POP JUMP JUMPDEST PUSH4 0x24749D5C MSIZE DUP2 PUSH1 0xE0 SHL DUP2 MSTORE DUP4 PUSH1 0x4 DUP3 ADD MSTORE PUSH1 0x20 DUP2 PUSH1 0x24 DUP4 CALLER PUSH1 0x0 SWAP1 GAS CALL PC PUSH1 0x1D ADD JUMPI RETURNDATASIZE PUSH1 0x1 EQ PC PUSH1 0xC ADD JUMPI RETURNDATASIZE PUSH1 0x0 DUP1 RETURNDATACOPY RETURNDATASIZE PUSH3 0x123456 MSTORE PUSH1 0xEA PUSH2 0x109C MSTORE DUP1 MLOAD SWAP4 POP PUSH1 0x0 JUMPDEST PUSH1 0x40 DUP2 LT ISZERO PUSH2 0x27AC JUMPI PUSH1 0x0 DUP2 DUP4 ADD MSTORE PUSH1 0x20 DUP2 ADD SWAP1 POP PUSH2 0x2792 JUMP JUMPDEST POP POP POP JUMP INVALID 0x4F PUSH24 0x6E61626C653A206E6577206F776E65722069732074686520 PUSH27 0x65726F2061646472657373536166654D6174683A206D756C746970 PUSH13 0x69636174696F6E206F76657266 PUSH13 0x6F7743616C6C6572206973206E PUSH16 0x74207265776172642064697374726962 PUSH22 0x74696F6E5361666545524332303A204552433230206F PUSH17 0x65726174696F6E20646964206E6F742073 PUSH22 0x63636565640000000000000000000000000000000000 "
        },
        "methodIdentifiers": {
          "DURATION()": "1be05289",
          "balanceOf(address)": "70a08231",
          "earned(address)": "008cc262",
          "exit()": "e9fad8ee",
          "getReward()": "3d18b912",
          "isOwner()": "8f32d59b",
          "lastTimeRewardApplicable()": "80faa57d",
          "lastUpdateTime()": "c8f33c91",
          "notifyRewardAmount(uint256)": "3c6b16ab",
          "owner()": "8da5cb5b",
          "periodFinish()": "ebe2b12b",
          "renounceOwnership()": "715018a6",
          "rewardDistribution()": "101114cf",
          "rewardPerToken()": "cd3daf9d",
          "rewardPerTokenStored()": "df136d65",
          "rewardRate()": "7b0a47ee",
          "rewards(address)": "0700037d",
          "setRewardDistribution(address)": "0d68b761",
          "snx()": "e7d27998",
          "stake(uint256)": "a694fc3a",
          "totalSupply()": "18160ddd",
          "transferOwnership(address)": "f2fde38b",
          "uni()": "edc9af95",
          "userRewardPerTokenPaid(address)": "8b876347",
          "withdraw(uint256)": "2e1a7d4d"
        }
      }
    }
  }
}